{
  "_format": "hh-sol-artifact-1",
  "contractName": "ClockMock",
  "sourceName": "contracts/mocks/Clock.sol",
  "abi": [
    {
      "inputs": [],
      "stateMutability": "nonpayable",
      "type": "constructor"
    },
    {
      "inputs": [],
      "name": "getTime",
      "outputs": [
        {
          "internalType": "uint256",
          "name": "",
          "type": "uint256"
        }
      ],
      "stateMutability": "view",
      "type": "function"
    }
  ],
  "bytecode": "0x608060405234801561001057600080fd5b5060b58061001f6000396000f3fe6080604052348015600f57600080fd5b506004361060285760003560e01c8063557ed1ba14602d575b600080fd5b60336047565b604051603e91906066565b60405180910390f35b600042905090565b6000819050919050565b606081604f565b82525050565b6000602082019050607960008301846059565b9291505056fea264697066735822122059fa8b89039a3a9645f5abcd73bc9ef79179d8e7e22a4e908a8be8d6d52fc77564736f6c63430008090033",
  "linkReferences": {},
  "deployedLinkReferences": {}
}