{
  "_format": "hh-sol-artifact-1",
  "contractName": "FakeERC1400Mock",
  "sourceName": "contracts/mocks/FakeERC1400Mock.sol",
  "abi": [
    {
      "inputs": [
        {
          "internalType": "string",
          "name": "name",
          "type": "string"
        },
        {
          "internalType": "string",
          "name": "symbol",
          "type": "string"
        },
        {
          "internalType": "uint256",
          "name": "granularity",
          "type": "uint256"
        },
        {
          "internalType": "address[]",
          "name": "controllers",
          "type": "address[]"
        },
        {
          "internalType": "bytes32[]",
          "name": "defaultPartitions",
          "type": "bytes32[]"
        },
        {
          "internalType": "address",
          "name": "extension",
          "type": "address"
        },
        {
          "internalType": "address",
          "name": "mockAddress",
          "type": "address"
        }
      ],
      "stateMutability": "nonpayable",
      "type": "constructor"
    },
    {
      "anonymous": false,
      "inputs": [
        {
          "indexed": true,
          "internalType": "address",
          "name": "owner",
          "type": "address"
        },
        {
          "indexed": true,
          "internalType": "address",
          "name": "spender",
          "type": "address"
        },
        {
          "indexed": false,
          "internalType": "uint256",
          "name": "value",
          "type": "uint256"
        }
      ],
      "name": "Approval",
      "type": "event"
    },
    {
      "anonymous": false,
      "inputs": [
        {
          "indexed": true,
          "internalType": "bytes32",
          "name": "partition",
          "type": "bytes32"
        },
        {
          "indexed": true,
          "internalType": "address",
          "name": "owner",
          "type": "address"
        },
        {
          "indexed": true,
          "internalType": "address",
          "name": "spender",
          "type": "address"
        },
        {
          "indexed": false,
          "internalType": "uint256",
          "name": "value",
          "type": "uint256"
        }
      ],
      "name": "ApprovalByPartition",
      "type": "event"
    },
    {
      "anonymous": false,
      "inputs": [
        {
          "indexed": true,
          "internalType": "address",
          "name": "operator",
          "type": "address"
        },
        {
          "indexed": true,
          "internalType": "address",
          "name": "tokenHolder",
          "type": "address"
        }
      ],
      "name": "AuthorizedOperator",
      "type": "event"
    },
    {
      "anonymous": false,
      "inputs": [
        {
          "indexed": true,
          "internalType": "bytes32",
          "name": "partition",
          "type": "bytes32"
        },
        {
          "indexed": true,
          "internalType": "address",
          "name": "operator",
          "type": "address"
        },
        {
          "indexed": true,
          "internalType": "address",
          "name": "tokenHolder",
          "type": "address"
        }
      ],
      "name": "AuthorizedOperatorByPartition",
      "type": "event"
    },
    {
      "anonymous": false,
      "inputs": [
        {
          "indexed": true,
          "internalType": "bytes32",
          "name": "fromPartition",
          "type": "bytes32"
        },
        {
          "indexed": true,
          "internalType": "bytes32",
          "name": "toPartition",
          "type": "bytes32"
        },
        {
          "indexed": false,
          "internalType": "uint256",
          "name": "value",
          "type": "uint256"
        }
      ],
      "name": "ChangedPartition",
      "type": "event"
    },
    {
      "anonymous": false,
      "inputs": [
        {
          "indexed": true,
          "internalType": "bytes32",
          "name": "name",
          "type": "bytes32"
        },
        {
          "indexed": false,
          "internalType": "string",
          "name": "uri",
          "type": "string"
        },
        {
          "indexed": false,
          "internalType": "bytes32",
          "name": "documentHash",
          "type": "bytes32"
        }
      ],
      "name": "DocumentRemoved",
      "type": "event"
    },
    {
      "anonymous": false,
      "inputs": [
        {
          "indexed": true,
          "internalType": "bytes32",
          "name": "name",
          "type": "bytes32"
        },
        {
          "indexed": false,
          "internalType": "string",
          "name": "uri",
          "type": "string"
        },
        {
          "indexed": false,
          "internalType": "bytes32",
          "name": "documentHash",
          "type": "bytes32"
        }
      ],
      "name": "DocumentUpdated",
      "type": "event"
    },
    {
      "anonymous": false,
      "inputs": [
        {
          "indexed": true,
          "internalType": "address",
          "name": "operator",
          "type": "address"
        },
        {
          "indexed": true,
          "internalType": "address",
          "name": "to",
          "type": "address"
        },
        {
          "indexed": false,
          "internalType": "uint256",
          "name": "value",
          "type": "uint256"
        },
        {
          "indexed": false,
          "internalType": "bytes",
          "name": "data",
          "type": "bytes"
        }
      ],
      "name": "Issued",
      "type": "event"
    },
    {
      "anonymous": false,
      "inputs": [
        {
          "indexed": true,
          "internalType": "bytes32",
          "name": "partition",
          "type": "bytes32"
        },
        {
          "indexed": true,
          "internalType": "address",
          "name": "operator",
          "type": "address"
        },
        {
          "indexed": true,
          "internalType": "address",
          "name": "to",
          "type": "address"
        },
        {
          "indexed": false,
          "internalType": "uint256",
          "name": "value",
          "type": "uint256"
        },
        {
          "indexed": false,
          "internalType": "bytes",
          "name": "data",
          "type": "bytes"
        },
        {
          "indexed": false,
          "internalType": "bytes",
          "name": "operatorData",
          "type": "bytes"
        }
      ],
      "name": "IssuedByPartition",
      "type": "event"
    },
    {
      "anonymous": false,
      "inputs": [
        {
          "indexed": true,
          "internalType": "address",
          "name": "account",
          "type": "address"
        }
      ],
      "name": "MinterAdded",
      "type": "event"
    },
    {
      "anonymous": false,
      "inputs": [
        {
          "indexed": true,
          "internalType": "address",
          "name": "account",
          "type": "address"
        }
      ],
      "name": "MinterRemoved",
      "type": "event"
    },
    {
      "anonymous": false,
      "inputs": [
        {
          "indexed": true,
          "internalType": "address",
          "name": "previousOwner",
          "type": "address"
        },
        {
          "indexed": true,
          "internalType": "address",
          "name": "newOwner",
          "type": "address"
        }
      ],
      "name": "OwnershipTransferred",
      "type": "event"
    },
    {
      "anonymous": false,
      "inputs": [
        {
          "indexed": true,
          "internalType": "address",
          "name": "operator",
          "type": "address"
        },
        {
          "indexed": true,
          "internalType": "address",
          "name": "from",
          "type": "address"
        },
        {
          "indexed": false,
          "internalType": "uint256",
          "name": "value",
          "type": "uint256"
        },
        {
          "indexed": false,
          "internalType": "bytes",
          "name": "data",
          "type": "bytes"
        }
      ],
      "name": "Redeemed",
      "type": "event"
    },
    {
      "anonymous": false,
      "inputs": [
        {
          "indexed": true,
          "internalType": "bytes32",
          "name": "partition",
          "type": "bytes32"
        },
        {
          "indexed": true,
          "internalType": "address",
          "name": "operator",
          "type": "address"
        },
        {
          "indexed": true,
          "internalType": "address",
          "name": "from",
          "type": "address"
        },
        {
          "indexed": false,
          "internalType": "uint256",
          "name": "value",
          "type": "uint256"
        },
        {
          "indexed": false,
          "internalType": "bytes",
          "name": "operatorData",
          "type": "bytes"
        }
      ],
      "name": "RedeemedByPartition",
      "type": "event"
    },
    {
      "anonymous": false,
      "inputs": [
        {
          "indexed": true,
          "internalType": "address",
          "name": "operator",
          "type": "address"
        },
        {
          "indexed": true,
          "internalType": "address",
          "name": "tokenHolder",
          "type": "address"
        }
      ],
      "name": "RevokedOperator",
      "type": "event"
    },
    {
      "anonymous": false,
      "inputs": [
        {
          "indexed": true,
          "internalType": "bytes32",
          "name": "partition",
          "type": "bytes32"
        },
        {
          "indexed": true,
          "internalType": "address",
          "name": "operator",
          "type": "address"
        },
        {
          "indexed": true,
          "internalType": "address",
          "name": "tokenHolder",
          "type": "address"
        }
      ],
      "name": "RevokedOperatorByPartition",
      "type": "event"
    },
    {
      "anonymous": false,
      "inputs": [
        {
          "indexed": true,
          "internalType": "address",
          "name": "from",
          "type": "address"
        },
        {
          "indexed": true,
          "internalType": "address",
          "name": "to",
          "type": "address"
        },
        {
          "indexed": false,
          "internalType": "uint256",
          "name": "value",
          "type": "uint256"
        }
      ],
      "name": "Transfer",
      "type": "event"
    },
    {
      "anonymous": false,
      "inputs": [
        {
          "indexed": true,
          "internalType": "bytes32",
          "name": "fromPartition",
          "type": "bytes32"
        },
        {
          "indexed": false,
          "internalType": "address",
          "name": "operator",
          "type": "address"
        },
        {
          "indexed": true,
          "internalType": "address",
          "name": "from",
          "type": "address"
        },
        {
          "indexed": true,
          "internalType": "address",
          "name": "to",
          "type": "address"
        },
        {
          "indexed": false,
          "internalType": "uint256",
          "name": "value",
          "type": "uint256"
        },
        {
          "indexed": false,
          "internalType": "bytes",
          "name": "data",
          "type": "bytes"
        },
        {
          "indexed": false,
          "internalType": "bytes",
          "name": "operatorData",
          "type": "bytes"
        }
      ],
      "name": "TransferByPartition",
      "type": "event"
    },
    {
      "inputs": [
        {
          "internalType": "address",
          "name": "account",
          "type": "address"
        }
      ],
      "name": "addMinter",
      "outputs": [],
      "stateMutability": "nonpayable",
      "type": "function"
    },
    {
      "inputs": [
        {
          "internalType": "address",
          "name": "owner",
          "type": "address"
        },
        {
          "internalType": "address",
          "name": "spender",
          "type": "address"
        }
      ],
      "name": "allowance",
      "outputs": [
        {
          "internalType": "uint256",
          "name": "",
          "type": "uint256"
        }
      ],
      "stateMutability": "view",
      "type": "function"
    },
    {
      "inputs": [
        {
          "internalType": "bytes32",
          "name": "partition",
          "type": "bytes32"
        },
        {
          "internalType": "address",
          "name": "owner",
          "type": "address"
        },
        {
          "internalType": "address",
          "name": "spender",
          "type": "address"
        }
      ],
      "name": "allowanceByPartition",
      "outputs": [
        {
          "internalType": "uint256",
          "name": "",
          "type": "uint256"
        }
      ],
      "stateMutability": "view",
      "type": "function"
    },
    {
      "inputs": [
        {
          "internalType": "address",
          "name": "spender",
          "type": "address"
        },
        {
          "internalType": "uint256",
          "name": "value",
          "type": "uint256"
        }
      ],
      "name": "approve",
      "outputs": [
        {
          "internalType": "bool",
          "name": "",
          "type": "bool"
        }
      ],
      "stateMutability": "nonpayable",
      "type": "function"
    },
    {
      "inputs": [
        {
          "internalType": "bytes32",
          "name": "partition",
          "type": "bytes32"
        },
        {
          "internalType": "address",
          "name": "spender",
          "type": "address"
        },
        {
          "internalType": "uint256",
          "name": "value",
          "type": "uint256"
        }
      ],
      "name": "approveByPartition",
      "outputs": [
        {
          "internalType": "bool",
          "name": "",
          "type": "bool"
        }
      ],
      "stateMutability": "nonpayable",
      "type": "function"
    },
    {
      "inputs": [
        {
          "internalType": "address",
          "name": "operator",
          "type": "address"
        }
      ],
      "name": "authorizeOperator",
      "outputs": [],
      "stateMutability": "nonpayable",
      "type": "function"
    },
    {
      "inputs": [
        {
          "internalType": "bytes32",
          "name": "partition",
          "type": "bytes32"
        },
        {
          "internalType": "address",
          "name": "operator",
          "type": "address"
        }
      ],
      "name": "authorizeOperatorByPartition",
      "outputs": [],
      "stateMutability": "nonpayable",
      "type": "function"
    },
    {
      "inputs": [
        {
          "internalType": "address",
          "name": "tokenHolder",
          "type": "address"
        }
      ],
      "name": "balanceOf",
      "outputs": [
        {
          "internalType": "uint256",
          "name": "",
          "type": "uint256"
        }
      ],
      "stateMutability": "view",
      "type": "function"
    },
    {
      "inputs": [
        {
          "internalType": "bytes32",
          "name": "partition",
          "type": "bytes32"
        },
        {
          "internalType": "address",
          "name": "tokenHolder",
          "type": "address"
        }
      ],
      "name": "balanceOfByPartition",
      "outputs": [
        {
          "internalType": "uint256",
          "name": "",
          "type": "uint256"
        }
      ],
      "stateMutability": "view",
      "type": "function"
    },
    {
      "inputs": [
        {
          "internalType": "bytes32",
          "name": "interfaceHash",
          "type": "bytes32"
        },
        {
          "internalType": "address",
          "name": "",
          "type": "address"
        }
      ],
      "name": "canImplementInterfaceForAddress",
      "outputs": [
        {
          "internalType": "bytes32",
          "name": "",
          "type": "bytes32"
        }
      ],
      "stateMutability": "view",
      "type": "function"
    },
    {
      "inputs": [],
      "name": "controllers",
      "outputs": [
        {
          "internalType": "address[]",
          "name": "",
          "type": "address[]"
        }
      ],
      "stateMutability": "view",
      "type": "function"
    },
    {
      "inputs": [
        {
          "internalType": "bytes32",
          "name": "partition",
          "type": "bytes32"
        }
      ],
      "name": "controllersByPartition",
      "outputs": [
        {
          "internalType": "address[]",
          "name": "",
          "type": "address[]"
        }
      ],
      "stateMutability": "view",
      "type": "function"
    },
    {
      "inputs": [],
      "name": "decimals",
      "outputs": [
        {
          "internalType": "uint8",
          "name": "",
          "type": "uint8"
        }
      ],
      "stateMutability": "pure",
      "type": "function"
    },
    {
      "inputs": [],
      "name": "domainName",
      "outputs": [
        {
          "internalType": "string",
          "name": "",
          "type": "string"
        }
      ],
      "stateMutability": "view",
      "type": "function"
    },
    {
      "inputs": [],
      "name": "domainSeparator",
      "outputs": [
        {
          "internalType": "bytes32",
          "name": "",
          "type": "bytes32"
        }
      ],
      "stateMutability": "nonpayable",
      "type": "function"
    },
    {
      "inputs": [],
      "name": "domainVersion",
      "outputs": [
        {
          "internalType": "string",
          "name": "",
          "type": "string"
        }
      ],
      "stateMutability": "view",
      "type": "function"
    },
    {
      "inputs": [],
      "name": "generateDomainSeparator",
      "outputs": [
        {
          "internalType": "bytes32",
          "name": "",
          "type": "bytes32"
        }
      ],
      "stateMutability": "view",
      "type": "function"
    },
    {
      "inputs": [],
      "name": "getAllDocuments",
      "outputs": [
        {
          "internalType": "bytes32[]",
          "name": "",
          "type": "bytes32[]"
        }
      ],
      "stateMutability": "view",
      "type": "function"
    },
    {
      "inputs": [],
      "name": "getDefaultPartitions",
      "outputs": [
        {
          "internalType": "bytes32[]",
          "name": "",
          "type": "bytes32[]"
        }
      ],
      "stateMutability": "view",
      "type": "function"
    },
    {
      "inputs": [
        {
          "internalType": "bytes32",
          "name": "name",
          "type": "bytes32"
        }
      ],
      "name": "getDocument",
      "outputs": [
        {
          "internalType": "string",
          "name": "",
          "type": "string"
        },
        {
          "internalType": "bytes32",
          "name": "",
          "type": "bytes32"
        },
        {
          "internalType": "uint256",
          "name": "",
          "type": "uint256"
        }
      ],
      "stateMutability": "view",
      "type": "function"
    },
    {
      "inputs": [],
      "name": "granularity",
      "outputs": [
        {
          "internalType": "uint256",
          "name": "",
          "type": "uint256"
        }
      ],
      "stateMutability": "view",
      "type": "function"
    },
    {
      "inputs": [],
      "name": "isControllable",
      "outputs": [
        {
          "internalType": "bool",
          "name": "",
          "type": "bool"
        }
      ],
      "stateMutability": "view",
      "type": "function"
    },
    {
      "inputs": [],
      "name": "isIssuable",
      "outputs": [
        {
          "internalType": "bool",
          "name": "",
          "type": "bool"
        }
      ],
      "stateMutability": "view",
      "type": "function"
    },
    {
      "inputs": [
        {
          "internalType": "address",
          "name": "account",
          "type": "address"
        }
      ],
      "name": "isMinter",
      "outputs": [
        {
          "internalType": "bool",
          "name": "",
          "type": "bool"
        }
      ],
      "stateMutability": "view",
      "type": "function"
    },
    {
      "inputs": [
        {
          "internalType": "address",
          "name": "operator",
          "type": "address"
        },
        {
          "internalType": "address",
          "name": "tokenHolder",
          "type": "address"
        }
      ],
      "name": "isOperator",
      "outputs": [
        {
          "internalType": "bool",
          "name": "",
          "type": "bool"
        }
      ],
      "stateMutability": "view",
      "type": "function"
    },
    {
      "inputs": [
        {
          "internalType": "bytes32",
          "name": "partition",
          "type": "bytes32"
        },
        {
          "internalType": "address",
          "name": "operator",
          "type": "address"
        },
        {
          "internalType": "address",
          "name": "tokenHolder",
          "type": "address"
        }
      ],
      "name": "isOperatorForPartition",
      "outputs": [
        {
          "internalType": "bool",
          "name": "",
          "type": "bool"
        }
      ],
      "stateMutability": "view",
      "type": "function"
    },
    {
      "inputs": [
        {
          "internalType": "address",
          "name": "tokenHolder",
          "type": "address"
        },
        {
          "internalType": "uint256",
          "name": "value",
          "type": "uint256"
        },
        {
          "internalType": "bytes",
          "name": "data",
          "type": "bytes"
        }
      ],
      "name": "issue",
      "outputs": [],
      "stateMutability": "nonpayable",
      "type": "function"
    },
    {
      "inputs": [
        {
          "internalType": "bytes32",
          "name": "partition",
          "type": "bytes32"
        },
        {
          "internalType": "address",
          "name": "tokenHolder",
          "type": "address"
        },
        {
          "internalType": "uint256",
          "name": "value",
          "type": "uint256"
        },
        {
          "internalType": "bytes",
          "name": "data",
          "type": "bytes"
        }
      ],
      "name": "issueByPartition",
      "outputs": [],
      "stateMutability": "nonpayable",
      "type": "function"
    },
    {
      "inputs": [
        {
          "internalType": "address",
          "name": "newContractAddress",
          "type": "address"
        },
        {
          "internalType": "bool",
          "name": "definitive",
          "type": "bool"
        }
      ],
      "name": "migrate",
      "outputs": [],
      "stateMutability": "nonpayable",
      "type": "function"
    },
    {
      "inputs": [],
      "name": "name",
      "outputs": [
        {
          "internalType": "string",
          "name": "",
          "type": "string"
        }
      ],
      "stateMutability": "view",
      "type": "function"
    },
    {
      "inputs": [
        {
          "internalType": "bytes32",
          "name": "partition",
          "type": "bytes32"
        },
        {
          "internalType": "address",
          "name": "tokenHolder",
          "type": "address"
        },
        {
          "internalType": "uint256",
          "name": "value",
          "type": "uint256"
        },
        {
          "internalType": "bytes",
          "name": "operatorData",
          "type": "bytes"
        }
      ],
      "name": "operatorRedeemByPartition",
      "outputs": [],
      "stateMutability": "nonpayable",
      "type": "function"
    },
    {
      "inputs": [
        {
          "internalType": "bytes32",
          "name": "partition",
          "type": "bytes32"
        },
        {
          "internalType": "address",
          "name": "from",
          "type": "address"
        },
        {
          "internalType": "address",
          "name": "to",
          "type": "address"
        },
        {
          "internalType": "uint256",
          "name": "value",
          "type": "uint256"
        },
        {
          "internalType": "bytes",
          "name": "data",
          "type": "bytes"
        },
        {
          "internalType": "bytes",
          "name": "operatorData",
          "type": "bytes"
        }
      ],
      "name": "operatorTransferByPartition",
      "outputs": [
        {
          "internalType": "bytes32",
          "name": "",
          "type": "bytes32"
        }
      ],
      "stateMutability": "nonpayable",
      "type": "function"
    },
    {
      "inputs": [],
      "name": "owner",
      "outputs": [
        {
          "internalType": "address",
          "name": "",
          "type": "address"
        }
      ],
      "stateMutability": "view",
      "type": "function"
    },
    {
      "inputs": [
        {
          "internalType": "address",
          "name": "tokenHolder",
          "type": "address"
        }
      ],
      "name": "partitionsOf",
      "outputs": [
        {
          "internalType": "bytes32[]",
          "name": "",
          "type": "bytes32[]"
        }
      ],
      "stateMutability": "view",
      "type": "function"
    },
    {
      "inputs": [
        {
          "internalType": "uint256",
          "name": "value",
          "type": "uint256"
        },
        {
          "internalType": "bytes",
          "name": "data",
          "type": "bytes"
        }
      ],
      "name": "redeem",
      "outputs": [],
      "stateMutability": "nonpayable",
      "type": "function"
    },
    {
      "inputs": [
        {
          "internalType": "bytes32",
          "name": "partition",
          "type": "bytes32"
        },
        {
          "internalType": "uint256",
          "name": "value",
          "type": "uint256"
        },
        {
          "internalType": "bytes",
          "name": "data",
          "type": "bytes"
        }
      ],
      "name": "redeemByPartition",
      "outputs": [],
      "stateMutability": "nonpayable",
      "type": "function"
    },
    {
      "inputs": [
        {
          "internalType": "address",
          "name": "from",
          "type": "address"
        },
        {
          "internalType": "uint256",
          "name": "value",
          "type": "uint256"
        },
        {
          "internalType": "bytes",
          "name": "data",
          "type": "bytes"
        }
      ],
      "name": "redeemFrom",
      "outputs": [],
      "stateMutability": "nonpayable",
      "type": "function"
    },
    {
      "inputs": [
        {
          "internalType": "bytes32",
          "name": "_name",
          "type": "bytes32"
        }
      ],
      "name": "removeDocument",
      "outputs": [],
      "stateMutability": "nonpayable",
      "type": "function"
    },
    {
      "inputs": [
        {
          "internalType": "address",
          "name": "account",
          "type": "address"
        }
      ],
      "name": "removeMinter",
      "outputs": [],
      "stateMutability": "nonpayable",
      "type": "function"
    },
    {
      "inputs": [],
      "name": "renounceControl",
      "outputs": [],
      "stateMutability": "nonpayable",
      "type": "function"
    },
    {
      "inputs": [],
      "name": "renounceIssuance",
      "outputs": [],
      "stateMutability": "nonpayable",
      "type": "function"
    },
    {
      "inputs": [],
      "name": "renounceMinter",
      "outputs": [],
      "stateMutability": "nonpayable",
      "type": "function"
    },
    {
      "inputs": [],
      "name": "renounceOwnership",
      "outputs": [],
      "stateMutability": "nonpayable",
      "type": "function"
    },
    {
      "inputs": [
        {
          "internalType": "address",
          "name": "operator",
          "type": "address"
        }
      ],
      "name": "revokeOperator",
      "outputs": [],
      "stateMutability": "nonpayable",
      "type": "function"
    },
    {
      "inputs": [
        {
          "internalType": "bytes32",
          "name": "partition",
          "type": "bytes32"
        },
        {
          "internalType": "address",
          "name": "operator",
          "type": "address"
        }
      ],
      "name": "revokeOperatorByPartition",
      "outputs": [],
      "stateMutability": "nonpayable",
      "type": "function"
    },
    {
      "inputs": [
        {
          "internalType": "address[]",
          "name": "operators",
          "type": "address[]"
        }
      ],
      "name": "setControllers",
      "outputs": [],
      "stateMutability": "nonpayable",
      "type": "function"
    },
    {
      "inputs": [
        {
          "internalType": "bytes32[]",
          "name": "partitions",
          "type": "bytes32[]"
        }
      ],
      "name": "setDefaultPartitions",
      "outputs": [],
      "stateMutability": "nonpayable",
      "type": "function"
    },
    {
      "inputs": [
        {
          "internalType": "bytes32",
          "name": "name",
          "type": "bytes32"
        },
        {
          "internalType": "string",
          "name": "uri",
          "type": "string"
        },
        {
          "internalType": "bytes32",
          "name": "documentHash",
          "type": "bytes32"
        }
      ],
      "name": "setDocument",
      "outputs": [],
      "stateMutability": "nonpayable",
      "type": "function"
    },
    {
      "inputs": [
        {
          "internalType": "bytes32",
          "name": "partition",
          "type": "bytes32"
        },
        {
          "internalType": "address[]",
          "name": "operators",
          "type": "address[]"
        }
      ],
      "name": "setPartitionControllers",
      "outputs": [],
      "stateMutability": "nonpayable",
      "type": "function"
    },
    {
      "inputs": [
        {
          "internalType": "address",
          "name": "extension",
          "type": "address"
        },
        {
          "internalType": "string",
          "name": "interfaceLabel",
          "type": "string"
        },
        {
          "internalType": "bool",
          "name": "removeOldExtensionRoles",
          "type": "bool"
        },
        {
          "internalType": "bool",
          "name": "addMinterRoleForExtension",
          "type": "bool"
        },
        {
          "internalType": "bool",
          "name": "addControllerRoleForExtension",
          "type": "bool"
        }
      ],
      "name": "setTokenExtension",
      "outputs": [],
      "stateMutability": "nonpayable",
      "type": "function"
    },
    {
      "inputs": [],
      "name": "symbol",
      "outputs": [
        {
          "internalType": "string",
          "name": "",
          "type": "string"
        }
      ],
      "stateMutability": "view",
      "type": "function"
    },
    {
      "inputs": [],
      "name": "totalPartitions",
      "outputs": [
        {
          "internalType": "bytes32[]",
          "name": "",
          "type": "bytes32[]"
        }
      ],
      "stateMutability": "view",
      "type": "function"
    },
    {
      "inputs": [],
      "name": "totalSupply",
      "outputs": [
        {
          "internalType": "uint256",
          "name": "",
          "type": "uint256"
        }
      ],
      "stateMutability": "view",
      "type": "function"
    },
    {
      "inputs": [
        {
          "internalType": "bytes32",
          "name": "partition",
          "type": "bytes32"
        }
      ],
      "name": "totalSupplyByPartition",
      "outputs": [
        {
          "internalType": "uint256",
          "name": "",
          "type": "uint256"
        }
      ],
      "stateMutability": "view",
      "type": "function"
    },
    {
      "inputs": [
        {
          "internalType": "address",
          "name": "to",
          "type": "address"
        },
        {
          "internalType": "uint256",
          "name": "value",
          "type": "uint256"
        }
      ],
      "name": "transfer",
      "outputs": [
        {
          "internalType": "bool",
          "name": "",
          "type": "bool"
        }
      ],
      "stateMutability": "nonpayable",
      "type": "function"
    },
    {
      "inputs": [
        {
          "internalType": "bytes32",
          "name": "partition",
          "type": "bytes32"
        },
        {
          "internalType": "address",
          "name": "to",
          "type": "address"
        },
        {
          "internalType": "uint256",
          "name": "value",
          "type": "uint256"
        },
        {
          "internalType": "bytes",
          "name": "data",
          "type": "bytes"
        }
      ],
      "name": "transferByPartition",
      "outputs": [
        {
          "internalType": "bytes32",
          "name": "",
          "type": "bytes32"
        }
      ],
      "stateMutability": "nonpayable",
      "type": "function"
    },
    {
      "inputs": [
        {
          "internalType": "address",
          "name": "from",
          "type": "address"
        },
        {
          "internalType": "address",
          "name": "to",
          "type": "address"
        },
        {
          "internalType": "uint256",
          "name": "value",
          "type": "uint256"
        }
      ],
      "name": "transferFrom",
      "outputs": [
        {
          "internalType": "bool",
          "name": "",
          "type": "bool"
        }
      ],
      "stateMutability": "nonpayable",
      "type": "function"
    },
    {
      "inputs": [
        {
          "internalType": "address",
          "name": "from",
          "type": "address"
        },
        {
          "internalType": "address",
          "name": "to",
          "type": "address"
        },
        {
          "internalType": "uint256",
          "name": "value",
          "type": "uint256"
        },
        {
          "internalType": "bytes",
          "name": "",
          "type": "bytes"
        }
      ],
      "name": "transferFromWithData",
      "outputs": [],
      "stateMutability": "nonpayable",
      "type": "function"
    },
    {
      "inputs": [
        {
          "internalType": "address",
          "name": "newOwner",
          "type": "address"
        }
      ],
      "name": "transferOwnership",
      "outputs": [],
      "stateMutability": "nonpayable",
      "type": "function"
    },
    {
      "inputs": [
        {
          "internalType": "address",
          "name": "to",
          "type": "address"
        },
        {
          "internalType": "uint256",
          "name": "value",
          "type": "uint256"
        },
        {
          "internalType": "bytes",
          "name": "data",
          "type": "bytes"
        }
      ],
      "name": "transferWithData",
      "outputs": [],
      "stateMutability": "nonpayable",
      "type": "function"
    }
  ],
  "bytecode": "0x60806040523480156200001157600080fd5b506040516200909e3803806200909e83398181016040528101906200003791906200113c565b86868686866200005c620000506200046860201b60201c565b6200047060201b60201c565b6200006d336200053460201b60201c565b6200007d6200059560201b60201c565b5084600490805190602001906200009692919062000b63565b508360059080519060200190620000af92919062000b63565b5060006007819055506001831015620000c757600080fd5b82600681905550620000df82620005de60201b60201c565b8060149080519060200190620000f792919062000bf4565b506001600860016101000a81548160ff0219169083151502179055506001600860026101000a81548160ff0219169083151502179055506200017a6040518060400160405280600c81526020017f45524331343030546f6b656e0000000000000000000000000000000000000000815250306200075460201b620033121760201c565b620001c66040518060400160405280600a81526020017f4552433230546f6b656e00000000000000000000000000000000000000000000815250306200075460201b620033121760201c565b620002116040518060400160405280600c81526020017f45524331343030546f6b656e00000000000000000000000000000000000000008152506200080d60201b620033c51760201c565b6200025c6040518060400160405280600a81526020017f4552433230546f6b656e000000000000000000000000000000000000000000008152506200080d60201b620033c51760201c565b5050505050600073ffffffffffffffffffffffffffffffffffffffff168273ffffffffffffffffffffffffffffffffffffffff16146200045b578173ffffffffffffffffffffffffffffffffffffffff1663c69664bb30836040518363ffffffff1660e01b8152600401620002d39291906200127c565b600060405180830381600087803b158015620002ee57600080fd5b505af115801562000303573d6000803e3d6000fd5b505050508173ffffffffffffffffffffffffffffffffffffffff1663fa061ca030836040518363ffffffff1660e01b8152600401620003449291906200127c565b600060405180830381600087803b1580156200035f57600080fd5b505af115801562000374573d6000803e3d6000fd5b505050508173ffffffffffffffffffffffffffffffffffffffff1663c428b20230836040518363ffffffff1660e01b8152600401620003b59291906200127c565b600060405180830381600087803b158015620003d057600080fd5b505af1158015620003e5573d6000803e3d6000fd5b505050508173ffffffffffffffffffffffffffffffffffffffff1663eb5314bd30836040518363ffffffff1660e01b8152600401620004269291906200127c565b600060405180830381600087803b1580156200044157600080fd5b505af115801562000456573d6000803e3d6000fd5b505050505b50505050505050620015f7565b600033905090565b60008060009054906101000a900473ffffffffffffffffffffffffffffffffffffffff169050816000806101000a81548173ffffffffffffffffffffffffffffffffffffffff021916908373ffffffffffffffffffffffffffffffffffffffff1602179055508173ffffffffffffffffffffffffffffffffffffffff168173ffffffffffffffffffffffffffffffffffffffff167f8be0079c531659141344cd1fd0a4f28419497f9722a3daafe3b4186f6b6457e060405160405180910390a35050565b6200054f8160026200086360201b620034191790919060201c565b8073ffffffffffffffffffffffffffffffffffffffff167f6ae172837ea30b801fbfcdd4108aa1d5bf8ff775444fd70256b44e6bf3dfc3f660405160405180910390a250565b600080620005a86200091660201b60201c565b90506000620005bc6200092360201b60201c565b9050806003600084815260200190815260200160002081905550809250505090565b60005b6016805490508110156200069e57600060176000601684815481106200060c576200060b620012a9565b5b9060005260206000200160009054906101000a900473ffffffffffffffffffffffffffffffffffffffff1673ffffffffffffffffffffffffffffffffffffffff1673ffffffffffffffffffffffffffffffffffffffff16815260200190815260200160002060006101000a81548160ff0219169083151502179055508080620006959062001307565b915050620005e1565b5060005b81518110156200073757600160176000848481518110620006c857620006c7620012a9565b5b602002602001015173ffffffffffffffffffffffffffffffffffffffff1673ffffffffffffffffffffffffffffffffffffffff16815260200190815260200160002060006101000a81548160ff02191690831515021790555080806200072e9062001307565b915050620006a2565b5080601690805190602001906200075092919062000c46565b5050565b600082604051602001620007699190620013a2565b604051602081830303815290604052805190602001209050738473be67c1e951fa0428d28140dbeecab7052b8473ffffffffffffffffffffffffffffffffffffffff166329965a1d3083856040518463ffffffff1660e01b8152600401620007d493929190620013cc565b600060405180830381600087803b158015620007ef57600080fd5b505af115801562000804573d6000803e3d6000fd5b50505050505050565b600180600083604051602001620008259190620013a2565b60405160208183030381529060405280519060200120815260200190815260200160002060006101000a81548160ff02191690831515021790555050565b620008758282620009c160201b60201c565b15620008b8576040517f08c379a0000000000000000000000000000000000000000000000000000000008152600401620008af906200146a565b60405180910390fd5b60018260000160008373ffffffffffffffffffffffffffffffffffffffff1673ffffffffffffffffffffffffffffffffffffffff16815260200190815260200160002060006101000a81548160ff0219169083151502179055505050565b6000804690508091505090565b600080620009366200091660201b60201c565b905060007f8b73c3c69bb8fe3d512ecc4cf759cc79239f7b179b0ffacaa9a75d522b39400f6200096b62000a8c60201b60201c565b805190602001206200098262000b2660201b60201c565b805190602001208430604051602001620009a19594939291906200149d565b604051602081830303815290604052805190602001209050809250505090565b60008073ffffffffffffffffffffffffffffffffffffffff168273ffffffffffffffffffffffffffffffffffffffff16141562000a35576040517f08c379a000000000000000000000000000000000000000000000000000000000815260040162000a2c9062001570565b60405180910390fd5b8260000160008373ffffffffffffffffffffffffffffffffffffffff1673ffffffffffffffffffffffffffffffffffffffff16815260200190815260200160002060009054906101000a900460ff16905092915050565b60606004805462000a9d90620015c1565b80601f016020809104026020016040519081016040528092919081815260200182805462000acb90620015c1565b801562000b1c5780601f1062000af05761010080835404028352916020019162000b1c565b820191906000526020600020905b81548152906001019060200180831162000afe57829003601f168201915b5050505050905090565b60606040518060400160405280600181526020017f3100000000000000000000000000000000000000000000000000000000000000815250905090565b82805462000b7190620015c1565b90600052602060002090601f01602090048101928262000b95576000855562000be1565b82601f1062000bb057805160ff191683800117855562000be1565b8280016001018555821562000be1579182015b8281111562000be057825182559160200191906001019062000bc3565b5b50905062000bf0919062000cd5565b5090565b82805482825590600052602060002090810192821562000c33579160200282015b8281111562000c3257825182559160200191906001019062000c15565b5b50905062000c42919062000cf4565b5090565b82805482825590600052602060002090810192821562000cc2579160200282015b8281111562000cc15782518260006101000a81548173ffffffffffffffffffffffffffffffffffffffff021916908373ffffffffffffffffffffffffffffffffffffffff1602179055509160200191906001019062000c67565b5b50905062000cd1919062000cd5565b5090565b5b8082111562000cf057600081600090555060010162000cd6565b5090565b5b8082111562000d0f57600081600090555060010162000cf5565b5090565b6000604051905090565b600080fd5b600080fd5b600080fd5b600080fd5b6000601f19601f8301169050919050565b7f4e487b7100000000000000000000000000000000000000000000000000000000600052604160045260246000fd5b62000d7c8262000d31565b810181811067ffffffffffffffff8211171562000d9e5762000d9d62000d42565b5b80604052505050565b600062000db362000d13565b905062000dc1828262000d71565b919050565b600067ffffffffffffffff82111562000de45762000de362000d42565b5b62000def8262000d31565b9050602081019050919050565b60005b8381101562000e1c57808201518184015260208101905062000dff565b8381111562000e2c576000848401525b50505050565b600062000e4962000e438462000dc6565b62000da7565b90508281526020810184848401111562000e685762000e6762000d2c565b5b62000e7584828562000dfc565b509392505050565b600082601f83011262000e955762000e9462000d27565b5b815162000ea784826020860162000e32565b91505092915050565b6000819050919050565b62000ec58162000eb0565b811462000ed157600080fd5b50565b60008151905062000ee58162000eba565b92915050565b600067ffffffffffffffff82111562000f095762000f0862000d42565b5b602082029050602081019050919050565b600080fd5b600073ffffffffffffffffffffffffffffffffffffffff82169050919050565b600062000f4c8262000f1f565b9050919050565b62000f5e8162000f3f565b811462000f6a57600080fd5b50565b60008151905062000f7e8162000f53565b92915050565b600062000f9b62000f958462000eeb565b62000da7565b9050808382526020820190506020840283018581111562000fc15762000fc062000f1a565b5b835b8181101562000fee578062000fd9888262000f6d565b84526020840193505060208101905062000fc3565b5050509392505050565b600082601f83011262001010576200100f62000d27565b5b81516200102284826020860162000f84565b91505092915050565b600067ffffffffffffffff82111562001049576200104862000d42565b5b602082029050602081019050919050565b6000819050919050565b6200106f816200105a565b81146200107b57600080fd5b50565b6000815190506200108f8162001064565b92915050565b6000620010ac620010a6846200102b565b62000da7565b90508083825260208201905060208402830185811115620010d257620010d162000f1a565b5b835b81811015620010ff5780620010ea88826200107e565b845260208401935050602081019050620010d4565b5050509392505050565b600082601f83011262001121576200112062000d27565b5b81516200113384826020860162001095565b91505092915050565b600080600080600080600060e0888a0312156200115e576200115d62000d1d565b5b600088015167ffffffffffffffff8111156200117f576200117e62000d22565b5b6200118d8a828b0162000e7d565b975050602088015167ffffffffffffffff811115620011b157620011b062000d22565b5b620011bf8a828b0162000e7d565b9650506040620011d28a828b0162000ed4565b955050606088015167ffffffffffffffff811115620011f657620011f562000d22565b5b620012048a828b0162000ff8565b945050608088015167ffffffffffffffff81111562001228576200122762000d22565b5b620012368a828b0162001109565b93505060a0620012498a828b0162000f6d565b92505060c06200125c8a828b0162000f6d565b91505092959891949750929550565b620012768162000f3f565b82525050565b60006040820190506200129360008301856200126b565b620012a260208301846200126b565b9392505050565b7f4e487b7100000000000000000000000000000000000000000000000000000000600052603260045260246000fd5b7f4e487b7100000000000000000000000000000000000000000000000000000000600052601160045260246000fd5b6000620013148262000eb0565b91507fffffffffffffffffffffffffffffffffffffffffffffffffffffffffffffffff8214156200134a5762001349620012d8565b5b600182019050919050565b600081519050919050565b600081905092915050565b6000620013788262001355565b62001384818562001360565b93506200139681856020860162000dfc565b80840191505092915050565b6000620013b082846200136b565b915081905092915050565b620013c6816200105a565b82525050565b6000606082019050620013e360008301866200126b565b620013f26020830185620013bb565b6200140160408301846200126b565b949350505050565b600082825260208201905092915050565b7f526f6c65733a206163636f756e7420616c72656164792068617320726f6c6500600082015250565b600062001452601f8362001409565b91506200145f826200141a565b602082019050919050565b60006020820190508181036000830152620014858162001443565b9050919050565b620014978162000eb0565b82525050565b600060a082019050620014b46000830188620013bb565b620014c36020830187620013bb565b620014d26040830186620013bb565b620014e160608301856200148c565b620014f060808301846200126b565b9695505050505050565b7f526f6c65733a206163636f756e7420697320746865207a65726f20616464726560008201527f7373000000000000000000000000000000000000000000000000000000000000602082015250565b60006200155860228362001409565b91506200156582620014fa565b604082019050919050565b600060208201905081810360008301526200158b8162001549565b9050919050565b7f4e487b7100000000000000000000000000000000000000000000000000000000600052602260045260246000fd5b60006002820490506001821680620015da57607f821691505b60208210811415620015f157620015f062001592565b5b50919050565b617a9780620016076000396000f3fe608060405234801561001057600080fd5b50600436106103a45760003560e01c80638c0dee9c116101e9578063b10d6b411161010f578063e77c646d116100ad578063f2fde38b1161007c578063f2fde38b14610af5578063f3d490db14610b11578063f698da2514610b41578063fad8b32a14610b5f576103a4565b8063e77c646d14610a85578063ea74838a14610aa1578063ec9a6e8714610abd578063ee532f3114610ad9576103a4565b8063bcfdc0cf116100e9578063bcfdc0cf14610a11578063c350184814610a2f578063ca281fd914610a4b578063dd62ed3e14610a55576103a4565b8063b10d6b4114610993578063b6363cf2146109c5578063bb3acde9146109f5576103a4565b80639865027511610187578063a6f4f10511610156578063a6f4f105146108f9578063a8082cb014610915578063a9059cbb14610933578063aa271e1a14610963576103a4565b8063986502751461088557806398ddcec71461088f5780639fa5f50b146108ab578063a26734dc146108c9576103a4565b8063959b8c3f116101c3578063959b8c3f1461081357806395d89b411461082f5780639675193c1461084d578063983b2d5614610869576103a4565b80638c0dee9c146107a95780638da5cb5b146107d9578063933964c7146107f7576103a4565b806330e82803116102ce5780636c30d1701161026c578063740ab8f41161023b578063740ab8f41461070d5780637cc0c3a71461073d578063861ed3ea1461075b578063895d73861461078b576103a4565b80636c30d170146106995780636d77cad6146106a357806370a08231146106d3578063715018a614610703576103a4565b8063556f0dc7116102a8578063556f0dc71461062557806362eb00681461064357806367c849191461065f57806369598efe1461067b576103a4565b806330e82803146105b9578063313ce567146105e95780634c783bf514610607576103a4565b806317ec83ca11610346578063249cb3fa11610315578063249cb3fa146105335780632535f762146105635780632f1cae851461057f5780633092afd51461059d576103a4565b806317ec83ca1461049757806318160ddd146104c75780631d43e1c0146104e557806323b872dd14610503576103a4565b8063103ef9e111610382578063103ef9e11461041357806314d1e62f1461042f578063168ecec51461045f57806316e1aed41461047b576103a4565b8063010648ca146103a957806306fdde03146103c5578063095ea7b3146103e3575b600080fd5b6103c360048036038101906103be9190615f82565b610b7b565b005b6103cd610d1c565b6040516103da919061608f565b60405180910390f35b6103fd60048036038101906103f89190616145565b610dae565b60405161040a91906161a0565b60405180910390f35b61042d600480360381019061042891906161bb565b610f0f565b005b610449600480360381019061044491906161fb565b611014565b60405161045691906161a0565b60405180910390f35b610479600480360381019061047491906161bb565b611188565b005b610495600480360381019061049091906162a4565b61128d565b005b6104b160048036038101906104ac9190616304565b6112e5565b6040516104be9190616366565b60405180910390f35b6104cf61137e565b6040516104dc9190616366565b60405180910390f35b6104ed611388565b6040516104fa919061608f565b60405180910390f35b61051d60048036038101906105189190616381565b6113c5565b60405161052a91906161a0565b60405180910390f35b61054d600480360381019061054891906161bb565b6116d8565b60405161055a91906163e3565b60405180910390f35b61057d60048036038101906105789190616454565b611737565b005b61058761178e565b60405161059491906161a0565b60405180910390f35b6105b760048036038101906105b291906164c8565b6117a5565b005b6105d360048036038101906105ce91906161bb565b611807565b6040516105e09190616366565b60405180910390f35b6105f1611862565b6040516105fe9190616511565b60405180910390f35b61060f61186b565b60405161061c91906161a0565b60405180910390f35b61062d611882565b60405161063a9190616366565b60405180910390f35b61065d6004803603810190610658919061652c565b61188c565b005b610679600480360381019061067491906165a0565b6118f3565b005b6106836119f0565b60405161069091906166e6565b60405180910390f35b6106a1611a48565b005b6106bd60048036038101906106b89190616304565b611a6d565b6040516106ca91906161a0565b60405180910390f35b6106ed60048036038101906106e891906164c8565b611a83565b6040516106fa9190616366565b60405180910390f35b61070b611acc565b005b610727600480360381019061072291906164c8565b611ae0565b60405161073491906166e6565b60405180910390f35b610745611b77565b60405161075291906167c6565b60405180910390f35b610775600480360381019061077091906167e8565b611c05565b60405161078291906167c6565b60405180910390f35b610793611ca6565b6040516107a0919061608f565b60405180910390f35b6107c360048036038101906107be9190616815565b611d38565b6040516107d091906163e3565b60405180910390f35b6107e161211f565b6040516107ee91906168f3565b60405180910390f35b610811600480360381019061080c919061693a565b612148565b005b61082d600480360381019061082891906164c8565b61215e565b005b610837612289565b604051610844919061608f565b60405180910390f35b61086760048036038101906108629190616454565b61231b565b005b610883600480360381019061087e91906164c8565b612371565b005b61088d6123d3565b005b6108a960048036038101906108a491906165a0565b6123de565b005b6108b3612786565b6040516108c091906166e6565b60405180910390f35b6108e360048036038101906108de91906167e8565b6127de565b6040516108f09190616366565b60405180910390f35b610913600480360381019061090e919061697a565b6127fb565b005b61091d61285c565b60405161092a91906163e3565b60405180910390f35b61094d60048036038101906109489190616145565b6128e0565b60405161095a91906161a0565b60405180910390f35b61097d600480360381019061097891906164c8565b612908565b60405161098a91906161a0565b60405180910390f35b6109ad60048036038101906109a891906167e8565b612925565b6040516109bc93929190616a14565b60405180910390f35b6109df60048036038101906109da9190616a52565b612a37565b6040516109ec91906161a0565b60405180910390f35b610a0f6004803603810190610a0a9190616454565b612a4b565b005b610a19612baf565b604051610a2691906166e6565b60405180910390f35b610a496004803603810190610a4491906167e8565b612c07565b005b610a53612f5e565b005b610a6f6004803603810190610a6a9190616a52565b612f83565b604051610a7c9190616366565b60405180910390f35b610a9f6004803603810190610a9a9190616a92565b61300a565b005b610abb6004803603810190610ab69190616af2565b61305f565b005b610ad76004803603810190610ad29190616b95565b6130b5565b005b610af36004803603810190610aee9190616be2565b6130d3565b005b610b0f6004803603810190610b0a91906164c8565b6130e5565b005b610b2b6004803603810190610b2691906165a0565b613169565b604051610b3891906163e3565b60405180910390f35b610b496131d8565b604051610b5691906163e3565b60405180910390f35b610b796004803603810190610b7491906164c8565b6131e7565b005b601760003373ffffffffffffffffffffffffffffffffffffffff1673ffffffffffffffffffffffffffffffffffffffff16815260200190815260200160002060009054906101000a900460ff16610bd157600080fd5b604051806060016040528084848080601f016020809104026020016040519081016040528093929190818152602001838380828437600081840152601f19601f82011690508083019250505050505050815260200182815260200142815250600b60008681526020019081526020016000206000820151816000019080519060200190610c5f929190615d06565b5060208201518160010155604082015181600201559050506000600c6000838152602001908152602001600020541415610cda57600d819080600181540180825580915050600190039060005260206000200160009091909190915055600d80549050600c6000838152602001908152602001600020819055505b837fb4c22d60cd550a815744f04e3ff5278bf19684565ee00e2b084041b6024bd6f6848484604051610d0e93929190616ca6565b60405180910390a250505050565b606060048054610d2b90616d07565b80601f0160208091040260200160405190810160405280929190818152602001828054610d5790616d07565b8015610da45780601f10610d7957610100808354040283529160200191610da4565b820191906000526020600020905b815481529060010190602001808311610d8757829003601f168201915b5050505050905090565b60008073ffffffffffffffffffffffffffffffffffffffff168373ffffffffffffffffffffffffffffffffffffffff161415610e1f576040517f08c379a0000000000000000000000000000000000000000000000000000000008152600401610e1690616d85565b60405180910390fd5b81600a60003373ffffffffffffffffffffffffffffffffffffffff1673ffffffffffffffffffffffffffffffffffffffff16815260200190815260200160002060008573ffffffffffffffffffffffffffffffffffffffff1673ffffffffffffffffffffffffffffffffffffffff168152602001908152602001600020819055508273ffffffffffffffffffffffffffffffffffffffff163373ffffffffffffffffffffffffffffffffffffffff167f8c5be1e5ebec7d5bd14f71427d1e84f3dd0314c0f7b2291e5b200ac8c7c3b92584604051610efd9190616366565b60405180910390a36001905092915050565b6001601960003373ffffffffffffffffffffffffffffffffffffffff1673ffffffffffffffffffffffffffffffffffffffff168152602001908152602001600020600084815260200190815260200160002060008373ffffffffffffffffffffffffffffffffffffffff1673ffffffffffffffffffffffffffffffffffffffff16815260200190815260200160002060006101000a81548160ff0219169083151502179055503373ffffffffffffffffffffffffffffffffffffffff168173ffffffffffffffffffffffffffffffffffffffff16837f3646a897c70797ecc134b0adc32f471b07bf1d6f451133b0384badab531e3fd660405160405180910390a45050565b60008073ffffffffffffffffffffffffffffffffffffffff168373ffffffffffffffffffffffffffffffffffffffff161415611085576040517f08c379a000000000000000000000000000000000000000000000000000000000815260040161107c90616d85565b60405180910390fd5b816018600086815260200190815260200160002060003373ffffffffffffffffffffffffffffffffffffffff1673ffffffffffffffffffffffffffffffffffffffff16815260200190815260200160002060008573ffffffffffffffffffffffffffffffffffffffff1673ffffffffffffffffffffffffffffffffffffffff168152602001908152602001600020819055508273ffffffffffffffffffffffffffffffffffffffff163373ffffffffffffffffffffffffffffffffffffffff16857ff061499aa77c2f6f5e25e34955a06623705344a88256cc861a121ec0bce5cfec856040516111759190616366565b60405180910390a4600190509392505050565b6000601960003373ffffffffffffffffffffffffffffffffffffffff1673ffffffffffffffffffffffffffffffffffffffff168152602001908152602001600020600084815260200190815260200160002060008373ffffffffffffffffffffffffffffffffffffffff1673ffffffffffffffffffffffffffffffffffffffff16815260200190815260200160002060006101000a81548160ff0219169083151502179055503373ffffffffffffffffffffffffffffffffffffffff168173ffffffffffffffffffffffffffffffffffffffff16837f3b287c4f1bab4df949b33bceacef984f544dc5d5479930d00e4ee8c9d8dd96f260405160405180910390a45050565b6112956134c1565b6112e083838380806020026020016040519081016040528093929190818152602001838360200280828437600081840152601f19601f8201169050808301925050505050505061353f565b505050565b60006018600085815260200190815260200160002060008473ffffffffffffffffffffffffffffffffffffffff1673ffffffffffffffffffffffffffffffffffffffff16815260200190815260200160002060008373ffffffffffffffffffffffffffffffffffffffff1673ffffffffffffffffffffffffffffffffffffffff1681526020019081526020016000205490509392505050565b6000600754905090565b60606040518060400160405280600181526020017f3100000000000000000000000000000000000000000000000000000000000000815250905090565b60006113d133856136fb565b806114585750600a60008573ffffffffffffffffffffffffffffffffffffffff1673ffffffffffffffffffffffffffffffffffffffff16815260200190815260200160002060003373ffffffffffffffffffffffffffffffffffffffff1673ffffffffffffffffffffffffffffffffffffffff168152602001908152602001600020548211155b611497576040517f08c379a000000000000000000000000000000000000000000000000000000000815260040161148e90616df1565b60405180910390fd5b81600a60008673ffffffffffffffffffffffffffffffffffffffff1673ffffffffffffffffffffffffffffffffffffffff16815260200190815260200160002060003373ffffffffffffffffffffffffffffffffffffffff1673ffffffffffffffffffffffffffffffffffffffff168152602001908152602001600020541061162e576115a982600a60008773ffffffffffffffffffffffffffffffffffffffff1673ffffffffffffffffffffffffffffffffffffffff16815260200190815260200160002060003373ffffffffffffffffffffffffffffffffffffffff1673ffffffffffffffffffffffffffffffffffffffff1681526020019081526020016000205461383190919063ffffffff16565b600a60008673ffffffffffffffffffffffffffffffffffffffff1673ffffffffffffffffffffffffffffffffffffffff16815260200190815260200160002060003373ffffffffffffffffffffffffffffffffffffffff1673ffffffffffffffffffffffffffffffffffffffff168152602001908152602001600020819055506116b1565b6000600a60008673ffffffffffffffffffffffffffffffffffffffff1673ffffffffffffffffffffffffffffffffffffffff16815260200190815260200160002060003373ffffffffffffffffffffffffffffffffffffffff1673ffffffffffffffffffffffffffffffffffffffff168152602001908152602001600020819055505b6116cd3385858560405180602001604052806000815250613847565b600190509392505050565b60006001600084815260200190815260200160002060009054906101000a900460ff161561172c5760405160200161170f90616e68565b604051602081830303815290604052805190602001209050611731565b600090505b92915050565b6117883333868686868080601f016020809104026020016040519081016040528093929190818152602001838380828437600081840152601f19601f82011690508083019250505050505050613847565b50505050565b6000600860029054906101000a900460ff16905090565b6117ae33612908565b806117f257506117bc613a1c565b73ffffffffffffffffffffffffffffffffffffffff166117da61211f565b73ffffffffffffffffffffffffffffffffffffffff16145b6117fb57600080fd5b61180481613a24565b50565b6000601360008373ffffffffffffffffffffffffffffffffffffffff1673ffffffffffffffffffffffffffffffffffffffff168152602001908152602001600020600084815260200190815260200160002054905092915050565b60006012905090565b6000600860019054906101000a900460ff16905090565b6000600654905090565b6118ed8433338686868080601f016020809104026020016040519081016040528093929190818152602001838380828437600081840152601f19601f8201169050808301925050505050505060405180602001604052806000815250613a7e565b50505050565b6118fc33612908565b80611940575061190a613a1c565b73ffffffffffffffffffffffffffffffffffffffff1661192861211f565b73ffffffffffffffffffffffffffffffffffffffff16145b61194957600080fd5b600860029054906101000a900460ff16611998576040517f08c379a000000000000000000000000000000000000000000000000000000000815260040161198f90616ec9565b60405180910390fd5b6119e98533868686868080601f016020809104026020016040519081016040528093929190818152602001838380828437600081840152601f19601f82011690508083019250505050505050613bb8565b5050505050565b6060600e805480602002602001604051908101604052809291908181526020018280548015611a3e57602002820191906000526020600020905b815481526020019060010190808311611a2a575b5050505050905090565b611a506134c1565b6000600860026101000a81548160ff021916908315150217905550565b6000611a7a848484613c7c565b90509392505050565b6000600960008373ffffffffffffffffffffffffffffffffffffffff1673ffffffffffffffffffffffffffffffffffffffff168152602001908152602001600020549050919050565b611ad46134c1565b611ade6000613db0565b565b6060601160008373ffffffffffffffffffffffffffffffffffffffff1673ffffffffffffffffffffffffffffffffffffffff168152602001908152602001600020805480602002602001604051908101604052809291908181526020018280548015611b6b57602002820191906000526020600020905b815481526020019060010190808311611b57575b50505050509050919050565b60606016805480602002602001604051908101604052809291908181526020018280548015611bfb57602002820191906000526020600020905b8160009054906101000a900473ffffffffffffffffffffffffffffffffffffffff1673ffffffffffffffffffffffffffffffffffffffff1681526020019060010190808311611bb1575b5050505050905090565b6060601a6000838152602001908152602001600020805480602002602001604051908101604052809291908181526020018280548015611c9a57602002820191906000526020600020905b8160009054906101000a900473ffffffffffffffffffffffffffffffffffffffff1673ffffffffffffffffffffffffffffffffffffffff1681526020019060010190808311611c50575b50505050509050919050565b606060048054611cb590616d07565b80601f0160208091040260200160405190810160405280929190818152602001828054611ce190616d07565b8015611d2e5780601f10611d0357610100808354040283529160200191611d2e565b820191906000526020600020905b815481529060010190602001808311611d1157829003601f168201915b5050505050905090565b6000611d4589338a613c7c565b80611ddd5750601860008a815260200190815260200160002060008973ffffffffffffffffffffffffffffffffffffffff1673ffffffffffffffffffffffffffffffffffffffff16815260200190815260200160002060003373ffffffffffffffffffffffffffffffffffffffff1673ffffffffffffffffffffffffffffffffffffffff168152602001908152602001600020548611155b611e1c576040517f08c379a0000000000000000000000000000000000000000000000000000000008152600401611e1390616df1565b60405180910390fd5b85601860008b815260200190815260200160002060008a73ffffffffffffffffffffffffffffffffffffffff1673ffffffffffffffffffffffffffffffffffffffff16815260200190815260200160002060003373ffffffffffffffffffffffffffffffffffffffff1673ffffffffffffffffffffffffffffffffffffffff1681526020019081526020016000205410611fe657611f5086601860008c815260200190815260200160002060008b73ffffffffffffffffffffffffffffffffffffffff1673ffffffffffffffffffffffffffffffffffffffff16815260200190815260200160002060003373ffffffffffffffffffffffffffffffffffffffff1673ffffffffffffffffffffffffffffffffffffffff1681526020019081526020016000205461383190919063ffffffff16565b601860008b815260200190815260200160002060008a73ffffffffffffffffffffffffffffffffffffffff1673ffffffffffffffffffffffffffffffffffffffff16815260200190815260200160002060003373ffffffffffffffffffffffffffffffffffffffff1673ffffffffffffffffffffffffffffffffffffffff1681526020019081526020016000208190555061207a565b6000601860008b815260200190815260200160002060008a73ffffffffffffffffffffffffffffffffffffffff1673ffffffffffffffffffffffffffffffffffffffff16815260200190815260200160002060003373ffffffffffffffffffffffffffffffffffffffff1673ffffffffffffffffffffffffffffffffffffffff168152602001908152602001600020819055505b61211189338a8a8a8a8a8080601f016020809104026020016040519081016040528093929190818152602001838380828437600081840152601f19601f8201169050808301925050505050505089898080601f016020809104026020016040519081016040528093929190818152602001838380828437600081840152601f19601f82011690508083019250505050505050613e74565b905098975050505050505050565b60008060009054906101000a900473ffffffffffffffffffffffffffffffffffffffff16905090565b6121506134c1565b61215a828261403e565b5050565b3373ffffffffffffffffffffffffffffffffffffffff168173ffffffffffffffffffffffffffffffffffffffff16141561219757600080fd5b6001601560008373ffffffffffffffffffffffffffffffffffffffff1673ffffffffffffffffffffffffffffffffffffffff16815260200190815260200160002060003373ffffffffffffffffffffffffffffffffffffffff1673ffffffffffffffffffffffffffffffffffffffff16815260200190815260200160002060006101000a81548160ff0219169083151502179055503373ffffffffffffffffffffffffffffffffffffffff168173ffffffffffffffffffffffffffffffffffffffff167ff4caeb2d6ca8932a215a353d0703c326ec2d81fc68170f320eb2ab49e9df61f960405160405180910390a350565b60606005805461229890616d07565b80601f01602080910402602001604051908101604052809291908181526020018280546122c490616d07565b80156123115780601f106122e657610100808354040283529160200191612311565b820191906000526020600020905b8154815290600101906020018083116122f457829003601f168201915b5050505050905090565b61236b33858585858080601f016020809104026020016040519081016040528093929190818152602001838380828437600081840152601f19601f820116905080830192505050505050506140e2565b50505050565b61237a33612908565b806123be5750612388613a1c565b73ffffffffffffffffffffffffffffffffffffffff166123a661211f565b73ffffffffffffffffffffffffffffffffffffffff16145b6123c757600080fd5b6123d0816143ef565b50565b6123dc33613a24565b565b6123e9853386613c7c565b8061248157506018600086815260200190815260200160002060008573ffffffffffffffffffffffffffffffffffffffff1673ffffffffffffffffffffffffffffffffffffffff16815260200190815260200160002060003373ffffffffffffffffffffffffffffffffffffffff1673ffffffffffffffffffffffffffffffffffffffff168152602001908152602001600020548311155b6124c0576040517f08c379a00000000000000000000000000000000000000000000000000000000081526004016124b790616f35565b60405180910390fd5b826018600087815260200190815260200160002060008673ffffffffffffffffffffffffffffffffffffffff1673ffffffffffffffffffffffffffffffffffffffff16815260200190815260200160002060003373ffffffffffffffffffffffffffffffffffffffff1673ffffffffffffffffffffffffffffffffffffffff168152602001908152602001600020541061268a576125f4836018600088815260200190815260200160002060008773ffffffffffffffffffffffffffffffffffffffff1673ffffffffffffffffffffffffffffffffffffffff16815260200190815260200160002060003373ffffffffffffffffffffffffffffffffffffffff1673ffffffffffffffffffffffffffffffffffffffff1681526020019081526020016000205461383190919063ffffffff16565b6018600087815260200190815260200160002060008673ffffffffffffffffffffffffffffffffffffffff1673ffffffffffffffffffffffffffffffffffffffff16815260200190815260200160002060003373ffffffffffffffffffffffffffffffffffffffff1673ffffffffffffffffffffffffffffffffffffffff1681526020019081526020016000208190555061271e565b60006018600087815260200190815260200160002060008673ffffffffffffffffffffffffffffffffffffffff1673ffffffffffffffffffffffffffffffffffffffff16815260200190815260200160002060003373ffffffffffffffffffffffffffffffffffffffff1673ffffffffffffffffffffffffffffffffffffffff168152602001908152602001600020819055505b61277f853386866040518060200160405280600081525087878080601f016020809104026020016040519081016040528093929190818152602001838380828437600081840152601f19601f82011690508083019250505050505050613a7e565b5050505050565b6060600d8054806020026020016040519081016040528092919081815260200182805480156127d457602002820191906000526020600020905b8154815260200190600101908083116127c0575b5050505050905090565b600060106000838152602001908152602001600020549050919050565b6128036134c1565b6128548686868080601f016020809104026020016040519081016040528093929190818152602001838380828437600081840152601f19601f82011690508083019250505050505050858585614449565b505050505050565b60008061286761459a565b905060007f8b73c3c69bb8fe3d512ecc4cf759cc79239f7b179b0ffacaa9a75d522b39400f612894611ca6565b805190602001206128a3611388565b8051906020012084306040516020016128c0959493929190616f55565b604051602081830303815290604052805190602001209050809250505090565b60006128fe3333858560405180602001604052806000815250613847565b6001905092915050565b600061291e8260026145a790919063ffffffff16565b9050919050565b60606000806000600b6000868152602001908152602001600020600001805461294d90616d07565b9050141561295a57600080fd5b600b6000858152602001908152602001600020600001600b600086815260200190815260200160002060010154600b6000878152602001908152602001600020600201548280546129aa90616d07565b80601f01602080910402602001604051908101604052809291908181526020018280546129d690616d07565b8015612a235780601f106129f857610100808354040283529160200191612a23565b820191906000526020600020905b815481529060010190602001808311612a0657829003601f168201915b505050505092509250925092509193909250565b6000612a4383836136fb565b905092915050565b612a5433612908565b80612a985750612a62613a1c565b73ffffffffffffffffffffffffffffffffffffffff16612a8061211f565b73ffffffffffffffffffffffffffffffffffffffff16145b612aa157600080fd5b600860029054906101000a900460ff16612af0576040517f08c379a0000000000000000000000000000000000000000000000000000000008152600401612ae790616ec9565b60405180910390fd5b60006014805490501415612b39576040517f08c379a0000000000000000000000000000000000000000000000000000000008152600401612b3090616ec9565b60405180910390fd5b612ba96014600081548110612b5157612b50616fa8565b5b906000526020600020015433868686868080601f016020809104026020016040519081016040528093929190818152602001838380828437600081840152601f19601f82011690508083019250505050505050613bb8565b50505050565b60606014805480602002602001604051908101604052809291908181526020018280548015612bfd57602002820191906000526020600020905b815481526020019060010190808311612be9575b5050505050905090565b601760003373ffffffffffffffffffffffffffffffffffffffff1673ffffffffffffffffffffffffffffffffffffffff16815260200190815260200160002060009054906101000a900460ff16612c93576040517f08c379a0000000000000000000000000000000000000000000000000000000008152600401612c8a90617023565b60405180910390fd5b6000600b60008381526020019081526020016000206000018054612cb690616d07565b90501415612cf9576040517f08c379a0000000000000000000000000000000000000000000000000000000008152600401612cf09061708f565b60405180910390fd5b6000600b6000838152602001908152602001600020604051806060016040529081600082018054612d2990616d07565b80601f0160208091040260200160405190810160405280929190818152602001828054612d5590616d07565b8015612da25780601f10612d7757610100808354040283529160200191612da2565b820191906000526020600020905b815481529060010190602001808311612d8557829003601f168201915b505050505081526020016001820154815260200160028201548152505090506000600c60008360200151815260200190815260200160002054905060008111612e20576040517f08c379a0000000000000000000000000000000000000000000000000000000008152600401612e17906170fb565b60405180910390fd5b6000600d6001600d80549050612e36919061714a565b81548110612e4757612e46616fa8565b5b9060005260206000200154905080600d600184612e64919061714a565b81548110612e7557612e74616fa8565b5b906000526020600020018190555081600c600083815260200190815260200160002081905550600d805480612ead57612eac61717e565b5b600190038181906000526020600020016000905590556000600c60008560200151815260200190815260200160002081905550600b600085815260200190815260200160002060008082016000612f049190615d8c565b600182016000905560028201600090555050837f3d9bba27d3e360d8c80645beed7e991454a8271bf6f269a24f7782be0f0d065484600001518560200151604051612f509291906171ad565b60405180910390a250505050565b612f666134c1565b6000600860016101000a81548160ff021916908315150217905550565b6000600a60008473ffffffffffffffffffffffffffffffffffffffff1673ffffffffffffffffffffffffffffffffffffffff16815260200190815260200160002060008373ffffffffffffffffffffffffffffffffffffffff1673ffffffffffffffffffffffffffffffffffffffff16815260200190815260200160002054905092915050565b61305a33338585858080601f016020809104026020016040519081016040528093929190818152602001838380828437600081840152601f19601f8201169050808301925050505050505061466f565b505050565b6130676134c1565b6130b1828280806020026020016040519081016040528093929190818152602001838360200280828437600081840152601f19601f82011690508083019250505050505050614836565b5050565b6130bd6134c1565b8181601491906130ce929190615dcc565b505050565b6130de85858561499c565b5050505050565b6130ed6134c1565b600073ffffffffffffffffffffffffffffffffffffffff168173ffffffffffffffffffffffffffffffffffffffff16141561315d576040517f08c379a00000000000000000000000000000000000000000000000000000000081526004016131549061724f565b60405180910390fd5b61316681613db0565b50565b60006131cd863333888888888080601f016020809104026020016040519081016040528093929190818152602001838380828437600081840152601f19601f8201169050808301925050505050505060405180602001604052806000815250613e74565b905095945050505050565b60006131e2614cba565b905090565b3373ffffffffffffffffffffffffffffffffffffffff168173ffffffffffffffffffffffffffffffffffffffff16141561322057600080fd5b6000601560008373ffffffffffffffffffffffffffffffffffffffff1673ffffffffffffffffffffffffffffffffffffffff16815260200190815260200160002060003373ffffffffffffffffffffffffffffffffffffffff1673ffffffffffffffffffffffffffffffffffffffff16815260200190815260200160002060006101000a81548160ff0219169083151502179055503373ffffffffffffffffffffffffffffffffffffffff168173ffffffffffffffffffffffffffffffffffffffff167f50546e66e5f44d728365dc3908c63bc5cfeeab470722c1677e3073a6ac294aa160405160405180910390a350565b60008260405160200161332591906172a0565b604051602081830303815290604052805190602001209050738473be67c1e951fa0428d28140dbeecab7052b8473ffffffffffffffffffffffffffffffffffffffff166329965a1d3083856040518463ffffffff1660e01b815260040161338e939291906172b7565b600060405180830381600087803b1580156133a857600080fd5b505af11580156133bc573d6000803e3d6000fd5b50505050505050565b6001806000836040516020016133db91906172a0565b60405160208183030381529060405280519060200120815260200190815260200160002060006101000a81548160ff02191690831515021790555050565b61342382826145a7565b15613463576040517f08c379a000000000000000000000000000000000000000000000000000000000815260040161345a9061733a565b60405180910390fd5b60018260000160008373ffffffffffffffffffffffffffffffffffffffff1673ffffffffffffffffffffffffffffffffffffffff16815260200190815260200160002060006101000a81548160ff0219169083151502179055505050565b6134c9613a1c565b73ffffffffffffffffffffffffffffffffffffffff166134e761211f565b73ffffffffffffffffffffffffffffffffffffffff161461353d576040517f08c379a0000000000000000000000000000000000000000000000000000000008152600401613534906173a6565b60405180910390fd5b565b60005b601a60008481526020019081526020016000208054905081101561362b576000601b60008581526020019081526020016000206000601a6000878152602001908152602001600020848154811061359c5761359b616fa8565b5b9060005260206000200160009054906101000a900473ffffffffffffffffffffffffffffffffffffffff1673ffffffffffffffffffffffffffffffffffffffff1673ffffffffffffffffffffffffffffffffffffffff16815260200190815260200160002060006101000a81548160ff0219169083151502179055508080613623906173c6565b915050613542565b5060005b81518110156136ce576001601b6000858152602001908152602001600020600084848151811061366257613661616fa8565b5b602002602001015173ffffffffffffffffffffffffffffffffffffffff1673ffffffffffffffffffffffffffffffffffffffff16815260200190815260200160002060006101000a81548160ff02191690831515021790555080806136c6906173c6565b91505061362f565b5080601a600084815260200190815260200160002090805190602001906136f6929190615e19565b505050565b60008173ffffffffffffffffffffffffffffffffffffffff168373ffffffffffffffffffffffffffffffffffffffff1614806137bd5750601560008473ffffffffffffffffffffffffffffffffffffffff1673ffffffffffffffffffffffffffffffffffffffff16815260200190815260200160002060008373ffffffffffffffffffffffffffffffffffffffff1673ffffffffffffffffffffffffffffffffffffffff16815260200190815260200160002060009054906101000a900460ff165b806138295750600860019054906101000a900460ff1680156138285750601760008473ffffffffffffffffffffffffffffffffffffffff1673ffffffffffffffffffffffffffffffffffffffff16815260200190815260200160002060009054906101000a900460ff165b5b905092915050565b6000818361383f919061714a565b905092915050565b60006014805490501415613890576040517f08c379a000000000000000000000000000000000000000000000000000000000815260040161388790616ec9565b60405180910390fd5b6000829050600080600090505b6014805490508110156139cf57601360008873ffffffffffffffffffffffffffffffffffffffff1673ffffffffffffffffffffffffffffffffffffffff1681526020019081526020016000206000601483815481106138ff576138fe616fa8565b5b906000526020600020015481526020019081526020016000205491508183116139685761395e6014828154811061393957613938616fa8565b5b9060005260206000200154898989878960405180602001604052806000815250613e74565b50600092506139cf565b600082146139bc576139ac6014828154811061398757613986616fa8565b5b9060005260206000200154898989868960405180602001604052806000815250613e74565b5081836139b9919061714a565b92505b80806139c7906173c6565b91505061389d565b5060008214613a13576040517f08c379a0000000000000000000000000000000000000000000000000000000008152600401613a0a9061745b565b60405180910390fd5b50505050505050565b600033905090565b613a38816002614cfc90919063ffffffff16565b8073ffffffffffffffffffffffffffffffffffffffff167fe94479a9f7e1952cc78f2d6baab678adc1b772d936c6583def489e524cb6669260405160405180910390a250565b82601360008673ffffffffffffffffffffffffffffffffffffffff1673ffffffffffffffffffffffffffffffffffffffff1681526020019081526020016000206000888152602001908152602001600020541015613b11576040517f08c379a0000000000000000000000000000000000000000000000000000000008152600401613b089061745b565b60405180910390fd5b613b218686866000878787614da3565b613b318686866000878787614ea1565b613b3c848785614f9f565b613b48858585856140e2565b8373ffffffffffffffffffffffffffffffffffffffff168573ffffffffffffffffffffffffffffffffffffffff16877fce306c3dbc4a497124b5a4f2be8388b41084c1d74663da27ecee1186c00239bf8685604051613ba89291906174d0565b60405180910390a4505050505050565b613bd78585600086868660405180602001604052806000815250614ea1565b613be3848484846154ec565b613bee838684615777565b613c0d8585600086868660405180602001604052806000815250615a33565b8273ffffffffffffffffffffffffffffffffffffffff168473ffffffffffffffffffffffffffffffffffffffff16867ff0ded82afbb1bb3ff3fc48cb2a26584aa84e4af0bf309c804ecdb94d0f6a98bb8585604051613c6d929190617526565b60405180910390a45050505050565b6000613c8883836136fb565b80613d2a5750601960008373ffffffffffffffffffffffffffffffffffffffff1673ffffffffffffffffffffffffffffffffffffffff168152602001908152602001600020600085815260200190815260200160002060008473ffffffffffffffffffffffffffffffffffffffff1673ffffffffffffffffffffffffffffffffffffffff16815260200190815260200160002060009054906101000a900460ff165b80613da75750600860019054906101000a900460ff168015613da65750601b600085815260200190815260200160002060008473ffffffffffffffffffffffffffffffffffffffff1673ffffffffffffffffffffffffffffffffffffffff16815260200190815260200160002060009054906101000a900460ff165b5b90509392505050565b60008060009054906101000a900473ffffffffffffffffffffffffffffffffffffffff169050816000806101000a81548173ffffffffffffffffffffffffffffffffffffffff021916908373ffffffffffffffffffffffffffffffffffffffff1602179055508173ffffffffffffffffffffffffffffffffffffffff168173ffffffffffffffffffffffffffffffffffffffff167f8be0079c531659141344cd1fd0a4f28419497f9722a3daafe3b4186f6b6457e060405160405180910390a35050565b600083601360008873ffffffffffffffffffffffffffffffffffffffff1673ffffffffffffffffffffffffffffffffffffffff16815260200190815260200160002060008a8152602001908152602001600020541015613f09576040517f08c379a0000000000000000000000000000000000000000000000000000000008152600401613f009061745b565b60405180910390fd5b60008890506000835114158015613f2257506040845110155b15613f3457613f318985615b31565b90505b613f4389898989898989614da3565b613f5289898989898989614ea1565b613f5d878a87614f9f565b613f6887878761499c565b613f73868287615777565b613f8281898989898989615a33565b8573ffffffffffffffffffffffffffffffffffffffff168773ffffffffffffffffffffffffffffffffffffffff168a7fff4e9a26af4eb73b8bacfaa4abd4fea03d9448e7b912dc5ff4019048875aa2d48b898989604051613fe69493929190617569565b60405180910390a488811461402f5780897f67c8ba31d2dd11f1384577b3405b04ed91eed1231e408432ad2458cab37b2fa1876040516140269190616366565b60405180910390a35b80915050979650505050505050565b61407d6040518060400160405280600a81526020017f4552433230546f6b656e0000000000000000000000000000000000000000000081525083613312565b6140bc6040518060400160405280600c81526020017f45524331343030546f6b656e000000000000000000000000000000000000000081525083613312565b80156140de576001600860006101000a81548160ff0219169083151502179055505b5050565b600860009054906101000a900460ff1615614132576040517f08c379a000000000000000000000000000000000000000000000000000000000815260040161412990617608565b60405180910390fd5b61413b82615b83565b61417a576040517f08c379a000000000000000000000000000000000000000000000000000000000815260040161417190617674565b60405180910390fd5b600073ffffffffffffffffffffffffffffffffffffffff168373ffffffffffffffffffffffffffffffffffffffff1614156141ea576040517f08c379a00000000000000000000000000000000000000000000000000000000081526004016141e190616d85565b60405180910390fd5b81600960008573ffffffffffffffffffffffffffffffffffffffff1673ffffffffffffffffffffffffffffffffffffffff16815260200190815260200160002054101561426c576040517f08c379a00000000000000000000000000000000000000000000000000000000081526004016142639061745b565b60405180910390fd5b6142be82600960008673ffffffffffffffffffffffffffffffffffffffff1673ffffffffffffffffffffffffffffffffffffffff1681526020019081526020016000205461383190919063ffffffff16565b600960008573ffffffffffffffffffffffffffffffffffffffff1673ffffffffffffffffffffffffffffffffffffffff168152602001908152602001600020819055506143168260075461383190919063ffffffff16565b6007819055508273ffffffffffffffffffffffffffffffffffffffff168473ffffffffffffffffffffffffffffffffffffffff167fb7d0d6b60740753e9f16692a2f479472a1385aec2420fa43225b02f2ffa1afe7848460405161437b9291906174d0565b60405180910390a3600073ffffffffffffffffffffffffffffffffffffffff168373ffffffffffffffffffffffffffffffffffffffff167fddf252ad1be2c89b69c2b068fc378daa952ba7f163c4a11628f55a4df523b3ef846040516143e19190616366565b60405180910390a350505050565b61440381600261341990919063ffffffff16565b8073ffffffffffffffffffffffffffffffffffffffff167f6ae172837ea30b801fbfcdd4108aa1d5bf8ff775444fd70256b44e6bf3dfc3f660405160405180910390a250565b60006144553086615bb7565b9050600073ffffffffffffffffffffffffffffffffffffffff168173ffffffffffffffffffffffffffffffffffffffff16141580156144915750835b156145075761449f81612908565b156144ae576144ad81613a24565b5b6000601760008373ffffffffffffffffffffffffffffffffffffffff1673ffffffffffffffffffffffffffffffffffffffff16815260200190815260200160002060006101000a81548160ff0219169083151502179055505b6145118587613312565b828015614524575061452286612908565b155b1561453357614532866143ef565b5b8115614592576001601760008873ffffffffffffffffffffffffffffffffffffffff1673ffffffffffffffffffffffffffffffffffffffff16815260200190815260200160002060006101000a81548160ff0219169083151502179055505b505050505050565b6000804690508091505090565b60008073ffffffffffffffffffffffffffffffffffffffff168273ffffffffffffffffffffffffffffffffffffffff161415614618576040517f08c379a000000000000000000000000000000000000000000000000000000000815260040161460f90617706565b60405180910390fd5b8260000160008373ffffffffffffffffffffffffffffffffffffffff1673ffffffffffffffffffffffffffffffffffffffff16815260200190815260200160002060009054906101000a900460ff16905092915050565b600060148054905014156146b8576040517f08c379a00000000000000000000000000000000000000000000000000000000081526004016146af90616ec9565b60405180910390fd5b6000829050600080600090505b6014805490508110156147ea57601360008773ffffffffffffffffffffffffffffffffffffffff1673ffffffffffffffffffffffffffffffffffffffff16815260200190815260200160002060006014838154811061472757614726616fa8565b5b9060005260206000200154815260200190815260200160002054915081831161478e576147856014828154811061476157614760616fa8565b5b90600052602060002001548888868860405180602001604052806000815250613a7e565b600092506147ea565b6147c9601482815481106147a5576147a4616fa8565b5b90600052602060002001548888858860405180602001604052806000815250613a7e565b81836147d5919061714a565b925080806147e2906173c6565b9150506146c5565b506000821461482e576040517f08c379a00000000000000000000000000000000000000000000000000000000081526004016148259061745b565b60405180910390fd5b505050505050565b60005b6016805490508110156148ef57600060176000601684815481106148605761485f616fa8565b5b9060005260206000200160009054906101000a900473ffffffffffffffffffffffffffffffffffffffff1673ffffffffffffffffffffffffffffffffffffffff1673ffffffffffffffffffffffffffffffffffffffff16815260200190815260200160002060006101000a81548160ff02191690831515021790555080806148e7906173c6565b915050614839565b5060005b81518110156149815760016017600084848151811061491557614914616fa8565b5b602002602001015173ffffffffffffffffffffffffffffffffffffffff1673ffffffffffffffffffffffffffffffffffffffff16815260200190815260200160002060006101000a81548160ff0219169083151502179055508080614979906173c6565b9150506148f3565b508060169080519060200190614998929190615e19565b5050565b600860009054906101000a900460ff16156149ec576040517f08c379a00000000000000000000000000000000000000000000000000000000081526004016149e390617608565b60405180910390fd5b6149f581615b83565b614a34576040517f08c379a0000000000000000000000000000000000000000000000000000000008152600401614a2b90617674565b60405180910390fd5b600073ffffffffffffffffffffffffffffffffffffffff168273ffffffffffffffffffffffffffffffffffffffff161415614aa4576040517f08c379a0000000000000000000000000000000000000000000000000000000008152600401614a9b90617772565b60405180910390fd5b80600960008573ffffffffffffffffffffffffffffffffffffffff1673ffffffffffffffffffffffffffffffffffffffff168152602001908152602001600020541015614b26576040517f08c379a0000000000000000000000000000000000000000000000000000000008152600401614b1d9061745b565b60405180910390fd5b614b7881600960008673ffffffffffffffffffffffffffffffffffffffff1673ffffffffffffffffffffffffffffffffffffffff1681526020019081526020016000205461383190919063ffffffff16565b600960008573ffffffffffffffffffffffffffffffffffffffff1673ffffffffffffffffffffffffffffffffffffffff16815260200190815260200160002081905550614c0d81600960008573ffffffffffffffffffffffffffffffffffffffff1673ffffffffffffffffffffffffffffffffffffffff16815260200190815260200160002054615c8b90919063ffffffff16565b600960008473ffffffffffffffffffffffffffffffffffffffff1673ffffffffffffffffffffffffffffffffffffffff168152602001908152602001600020819055508173ffffffffffffffffffffffffffffffffffffffff168373ffffffffffffffffffffffffffffffffffffffff167fddf252ad1be2c89b69c2b068fc378daa952ba7f163c4a11628f55a4df523b3ef83604051614cad9190616366565b60405180910390a3505050565b60008060036000614cc961459a565b81526020019081526020016000205490506000801b8114614ced5780915050614cf9565b614cf5615ca1565b9150505b90565b614d0682826145a7565b614d45576040517f08c379a0000000000000000000000000000000000000000000000000000000008152600401614d3c90617804565b60405180910390fd5b60008260000160008373ffffffffffffffffffffffffffffffffffffffff1673ffffffffffffffffffffffffffffffffffffffff16815260200190815260200160002060006101000a81548160ff0219169083151502179055505050565b6000614de4866040518060400160405280601381526020017f45524331343030546f6b656e7353656e64657200000000000000000000000000815250615bb7565b9050600073ffffffffffffffffffffffffffffffffffffffff168173ffffffffffffffffffffffffffffffffffffffff1614614e97578073ffffffffffffffffffffffffffffffffffffffff16634e755a546000368b8b8b8b8b8b8b6040518a63ffffffff1660e01b8152600401614e6499989796959493929190617851565b600060405180830381600087803b158015614e7e57600080fd5b505af1158015614e92573d6000803e3d6000fd5b505050505b5050505050505050565b6000614ee2306040518060400160405280601681526020017f45524331343030546f6b656e7356616c696461746f7200000000000000000000815250615bb7565b9050600073ffffffffffffffffffffffffffffffffffffffff168173ffffffffffffffffffffffffffffffffffffffff1614614f95578073ffffffffffffffffffffffffffffffffffffffff1663520faa766000368b8b8b8b8b8b8b6040518a63ffffffff1660e01b8152600401614f6299989796959493929190617851565b600060405180830381600087803b158015614f7c57600080fd5b505af1158015614f90573d6000803e3d6000fd5b505050505b5050505050505050565b61500281601360008673ffffffffffffffffffffffffffffffffffffffff1673ffffffffffffffffffffffffffffffffffffffff16815260200190815260200160002060008581526020019081526020016000205461383190919063ffffffff16565b601360008573ffffffffffffffffffffffffffffffffffffffff1673ffffffffffffffffffffffffffffffffffffffff16815260200190815260200160002060008481526020019081526020016000208190555061507c81601060008581526020019081526020016000205461383190919063ffffffff16565b60106000848152602001908152602001600020819055506000601060008481526020019081526020016000205414156151c9576000600f60008481526020019081526020016000205490506000811161510a576040517f08c379a000000000000000000000000000000000000000000000000000000000815260040161510190617674565b60405180910390fd5b6000600e6001600e80549050615120919061714a565b8154811061513157615130616fa8565b5b9060005260206000200154905080600e60018461514e919061714a565b8154811061515f5761515e616fa8565b5b906000526020600020018190555081600f600083815260200190815260200160002081905550600e8054806151975761519661717e565b5b600190038181906000526020600020016000905590556000600f60008681526020019081526020016000208190555050505b6000601360008573ffffffffffffffffffffffffffffffffffffffff1673ffffffffffffffffffffffffffffffffffffffff16815260200190815260200160002060008481526020019081526020016000205414156154e7576000601260008573ffffffffffffffffffffffffffffffffffffffff1673ffffffffffffffffffffffffffffffffffffffff1681526020019081526020016000206000848152602001908152602001600020549050600081116152ba576040517f08c379a00000000000000000000000000000000000000000000000000000000081526004016152b190617674565b60405180910390fd5b6000601160008673ffffffffffffffffffffffffffffffffffffffff1673ffffffffffffffffffffffffffffffffffffffff1681526020019081526020016000206001601160008873ffffffffffffffffffffffffffffffffffffffff1673ffffffffffffffffffffffffffffffffffffffff1681526020019081526020016000208054905061534a919061714a565b8154811061535b5761535a616fa8565b5b9060005260206000200154905080601160008773ffffffffffffffffffffffffffffffffffffffff1673ffffffffffffffffffffffffffffffffffffffff1681526020019081526020016000206001846153b5919061714a565b815481106153c6576153c5616fa8565b5b906000526020600020018190555081601260008773ffffffffffffffffffffffffffffffffffffffff1673ffffffffffffffffffffffffffffffffffffffff168152602001908152602001600020600083815260200190815260200160002081905550601160008673ffffffffffffffffffffffffffffffffffffffff1673ffffffffffffffffffffffffffffffffffffffff1681526020019081526020016000208054806154785761547761717e565b5b600190038181906000526020600020016000905590556000601260008773ffffffffffffffffffffffffffffffffffffffff1673ffffffffffffffffffffffffffffffffffffffff16815260200190815260200160002060008681526020019081526020016000208190555050505b505050565b600860009054906101000a900460ff161561553c576040517f08c379a000000000000000000000000000000000000000000000000000000000815260040161553390617608565b60405180910390fd5b61554582615b83565b615584576040517f08c379a000000000000000000000000000000000000000000000000000000000815260040161557b90617674565b60405180910390fd5b600073ffffffffffffffffffffffffffffffffffffffff168373ffffffffffffffffffffffffffffffffffffffff1614156155f4576040517f08c379a00000000000000000000000000000000000000000000000000000000081526004016155eb90617772565b60405180910390fd5b61560982600754615c8b90919063ffffffff16565b60078190555061566182600960008673ffffffffffffffffffffffffffffffffffffffff1673ffffffffffffffffffffffffffffffffffffffff16815260200190815260200160002054615c8b90919063ffffffff16565b600960008573ffffffffffffffffffffffffffffffffffffffff1673ffffffffffffffffffffffffffffffffffffffff168152602001908152602001600020819055508273ffffffffffffffffffffffffffffffffffffffff168473ffffffffffffffffffffffffffffffffffffffff167f0e9905d62635f049c2f4e11678ebf9dc3d1f8c4a653e290759b772e47ba00d0084846040516157039291906174d0565b60405180910390a38273ffffffffffffffffffffffffffffffffffffffff16600073ffffffffffffffffffffffffffffffffffffffff167fddf252ad1be2c89b69c2b068fc378daa952ba7f163c4a11628f55a4df523b3ef846040516157699190616366565b60405180910390a350505050565b60008114615a2e576000601260008573ffffffffffffffffffffffffffffffffffffffff1673ffffffffffffffffffffffffffffffffffffffff16815260200190815260200160002060008481526020019081526020016000205414156158d657601160008473ffffffffffffffffffffffffffffffffffffffff1673ffffffffffffffffffffffffffffffffffffffff168152602001908152602001600020829080600181540180825580915050600190039060005260206000200160009091909190915055601160008473ffffffffffffffffffffffffffffffffffffffff1673ffffffffffffffffffffffffffffffffffffffff16815260200190815260200160002080549050601260008573ffffffffffffffffffffffffffffffffffffffff1673ffffffffffffffffffffffffffffffffffffffff1681526020019081526020016000206000848152602001908152602001600020819055505b61593981601360008673ffffffffffffffffffffffffffffffffffffffff1673ffffffffffffffffffffffffffffffffffffffff168152602001908152602001600020600085815260200190815260200160002054615c8b90919063ffffffff16565b601360008573ffffffffffffffffffffffffffffffffffffffff1673ffffffffffffffffffffffffffffffffffffffff1681526020019081526020016000206000848152602001908152602001600020819055506000600f60008481526020019081526020016000205414156159f057600e829080600181540180825580915050600190039060005260206000200160009091909190915055600e80549050600f6000848152602001908152602001600020819055505b615a16816010600085815260200190815260200160002054615c8b90919063ffffffff16565b60106000848152602001908152602001600020819055505b505050565b6000615a74856040518060400160405280601681526020017f45524331343030546f6b656e73526563697069656e7400000000000000000000815250615bb7565b9050600073ffffffffffffffffffffffffffffffffffffffff168173ffffffffffffffffffffffffffffffffffffffff1614615b27578073ffffffffffffffffffffffffffffffffffffffff1663f464b5766000368b8b8b8c8b8b8b6040518a63ffffffff1660e01b8152600401615af499989796959493929190617851565b600060405180830381600087803b158015615b0e57600080fd5b505af1158015615b22573d6000803e3d6000fd5b505050505b5050505050505050565b6000807fffffffffffffffffffffffffffffffffffffffffffffffffffffffffffffffff60001b905060006020840151905081811415615b775760408401519250615b7b565b8492505b505092915050565b600081615baf600654615ba160065486615cda90919063ffffffff16565b615cf090919063ffffffff16565b149050919050565b60008082604051602001615bcb91906172a0565b604051602081830303815290604052805190602001209050738473be67c1e951fa0428d28140dbeecab7052b8473ffffffffffffffffffffffffffffffffffffffff1663aabbb8ca85836040518363ffffffff1660e01b8152600401615c329291906178e6565b60206040518083038186803b158015615c4a57600080fd5b505afa158015615c5e573d6000803e3d6000fd5b505050506040513d601f19601f82011682018060405250810190615c829190617924565b91505092915050565b60008183615c999190617951565b905092915050565b600080615cac61459a565b90506000615cb861285c565b9050806003600084815260200190815260200160002081905550809250505090565b60008183615ce891906179d6565b905092915050565b60008183615cfe9190617a07565b905092915050565b828054615d1290616d07565b90600052602060002090601f016020900481019282615d345760008555615d7b565b82601f10615d4d57805160ff1916838001178555615d7b565b82800160010185558215615d7b579182015b82811115615d7a578251825591602001919060010190615d5f565b5b509050615d889190615ea3565b5090565b508054615d9890616d07565b6000825580601f10615daa5750615dc9565b601f016020900490600052602060002090810190615dc89190615ea3565b5b50565b828054828255906000526020600020908101928215615e08579160200282015b82811115615e07578235825591602001919060010190615dec565b5b509050615e159190615ec0565b5090565b828054828255906000526020600020908101928215615e92579160200282015b82811115615e915782518260006101000a81548173ffffffffffffffffffffffffffffffffffffffff021916908373ffffffffffffffffffffffffffffffffffffffff16021790555091602001919060010190615e39565b5b509050615e9f9190615ea3565b5090565b5b80821115615ebc576000816000905550600101615ea4565b5090565b5b80821115615ed9576000816000905550600101615ec1565b5090565b600080fd5b600080fd5b6000819050919050565b615efa81615ee7565b8114615f0557600080fd5b50565b600081359050615f1781615ef1565b92915050565b600080fd5b600080fd5b600080fd5b60008083601f840112615f4257615f41615f1d565b5b8235905067ffffffffffffffff811115615f5f57615f5e615f22565b5b602083019150836001820283011115615f7b57615f7a615f27565b5b9250929050565b60008060008060608587031215615f9c57615f9b615edd565b5b6000615faa87828801615f08565b945050602085013567ffffffffffffffff811115615fcb57615fca615ee2565b5b615fd787828801615f2c565b93509350506040615fea87828801615f08565b91505092959194509250565b600081519050919050565b600082825260208201905092915050565b60005b83811015616030578082015181840152602081019050616015565b8381111561603f576000848401525b50505050565b6000601f19601f8301169050919050565b600061606182615ff6565b61606b8185616001565b935061607b818560208601616012565b61608481616045565b840191505092915050565b600060208201905081810360008301526160a98184616056565b905092915050565b600073ffffffffffffffffffffffffffffffffffffffff82169050919050565b60006160dc826160b1565b9050919050565b6160ec816160d1565b81146160f757600080fd5b50565b600081359050616109816160e3565b92915050565b6000819050919050565b6161228161610f565b811461612d57600080fd5b50565b60008135905061613f81616119565b92915050565b6000806040838503121561615c5761615b615edd565b5b600061616a858286016160fa565b925050602061617b85828601616130565b9150509250929050565b60008115159050919050565b61619a81616185565b82525050565b60006020820190506161b56000830184616191565b92915050565b600080604083850312156161d2576161d1615edd565b5b60006161e085828601615f08565b92505060206161f1858286016160fa565b9150509250929050565b60008060006060848603121561621457616213615edd565b5b600061622286828701615f08565b9350506020616233868287016160fa565b925050604061624486828701616130565b9150509250925092565b60008083601f84011261626457616263615f1d565b5b8235905067ffffffffffffffff81111561628157616280615f22565b5b60208301915083602082028301111561629d5761629c615f27565b5b9250929050565b6000806000604084860312156162bd576162bc615edd565b5b60006162cb86828701615f08565b935050602084013567ffffffffffffffff8111156162ec576162eb615ee2565b5b6162f88682870161624e565b92509250509250925092565b60008060006060848603121561631d5761631c615edd565b5b600061632b86828701615f08565b935050602061633c868287016160fa565b925050604061634d868287016160fa565b9150509250925092565b6163608161610f565b82525050565b600060208201905061637b6000830184616357565b92915050565b60008060006060848603121561639a57616399615edd565b5b60006163a8868287016160fa565b93505060206163b9868287016160fa565b92505060406163ca86828701616130565b9150509250925092565b6163dd81615ee7565b82525050565b60006020820190506163f860008301846163d4565b92915050565b60008083601f84011261641457616413615f1d565b5b8235905067ffffffffffffffff81111561643157616430615f22565b5b60208301915083600182028301111561644d5761644c615f27565b5b9250929050565b6000806000806060858703121561646e5761646d615edd565b5b600061647c878288016160fa565b945050602061648d87828801616130565b935050604085013567ffffffffffffffff8111156164ae576164ad615ee2565b5b6164ba878288016163fe565b925092505092959194509250565b6000602082840312156164de576164dd615edd565b5b60006164ec848285016160fa565b91505092915050565b600060ff82169050919050565b61650b816164f5565b82525050565b60006020820190506165266000830184616502565b92915050565b6000806000806060858703121561654657616545615edd565b5b600061655487828801615f08565b945050602061656587828801616130565b935050604085013567ffffffffffffffff81111561658657616585615ee2565b5b616592878288016163fe565b925092505092959194509250565b6000806000806000608086880312156165bc576165bb615edd565b5b60006165ca88828901615f08565b95505060206165db888289016160fa565b94505060406165ec88828901616130565b935050606086013567ffffffffffffffff81111561660d5761660c615ee2565b5b616619888289016163fe565b92509250509295509295909350565b600081519050919050565b600082825260208201905092915050565b6000819050602082019050919050565b61665d81615ee7565b82525050565b600061666f8383616654565b60208301905092915050565b6000602082019050919050565b600061669382616628565b61669d8185616633565b93506166a883616644565b8060005b838110156166d95781516166c08882616663565b97506166cb8361667b565b9250506001810190506166ac565b5085935050505092915050565b600060208201905081810360008301526167008184616688565b905092915050565b600081519050919050565b600082825260208201905092915050565b6000819050602082019050919050565b61673d816160d1565b82525050565b600061674f8383616734565b60208301905092915050565b6000602082019050919050565b600061677382616708565b61677d8185616713565b935061678883616724565b8060005b838110156167b95781516167a08882616743565b97506167ab8361675b565b92505060018101905061678c565b5085935050505092915050565b600060208201905081810360008301526167e08184616768565b905092915050565b6000602082840312156167fe576167fd615edd565b5b600061680c84828501615f08565b91505092915050565b60008060008060008060008060c0898b03121561683557616834615edd565b5b60006168438b828c01615f08565b98505060206168548b828c016160fa565b97505060406168658b828c016160fa565b96505060606168768b828c01616130565b955050608089013567ffffffffffffffff81111561689757616896615ee2565b5b6168a38b828c016163fe565b945094505060a089013567ffffffffffffffff8111156168c6576168c5615ee2565b5b6168d28b828c016163fe565b92509250509295985092959890939650565b6168ed816160d1565b82525050565b600060208201905061690860008301846168e4565b92915050565b61691781616185565b811461692257600080fd5b50565b6000813590506169348161690e565b92915050565b6000806040838503121561695157616950615edd565b5b600061695f858286016160fa565b925050602061697085828601616925565b9150509250929050565b60008060008060008060a0878903121561699757616996615edd565b5b60006169a589828a016160fa565b965050602087013567ffffffffffffffff8111156169c6576169c5615ee2565b5b6169d289828a01615f2c565b955095505060406169e589828a01616925565b93505060606169f689828a01616925565b9250506080616a0789828a01616925565b9150509295509295509295565b60006060820190508181036000830152616a2e8186616056565b9050616a3d60208301856163d4565b616a4a6040830184616357565b949350505050565b60008060408385031215616a6957616a68615edd565b5b6000616a77858286016160fa565b9250506020616a88858286016160fa565b9150509250929050565b600080600060408486031215616aab57616aaa615edd565b5b6000616ab986828701616130565b935050602084013567ffffffffffffffff811115616ada57616ad9615ee2565b5b616ae6868287016163fe565b92509250509250925092565b60008060208385031215616b0957616b08615edd565b5b600083013567ffffffffffffffff811115616b2757616b26615ee2565b5b616b338582860161624e565b92509250509250929050565b60008083601f840112616b5557616b54615f1d565b5b8235905067ffffffffffffffff811115616b7257616b71615f22565b5b602083019150836020820283011115616b8e57616b8d615f27565b5b9250929050565b60008060208385031215616bac57616bab615edd565b5b600083013567ffffffffffffffff811115616bca57616bc9615ee2565b5b616bd685828601616b3f565b92509250509250929050565b600080600080600060808688031215616bfe57616bfd615edd565b5b6000616c0c888289016160fa565b9550506020616c1d888289016160fa565b9450506040616c2e88828901616130565b935050606086013567ffffffffffffffff811115616c4f57616c4e615ee2565b5b616c5b888289016163fe565b92509250509295509295909350565b82818337600083830152505050565b6000616c858385616001565b9350616c92838584616c6a565b616c9b83616045565b840190509392505050565b60006040820190508181036000830152616cc1818587616c79565b9050616cd060208301846163d4565b949350505050565b7f4e487b7100000000000000000000000000000000000000000000000000000000600052602260045260246000fd5b60006002820490506001821680616d1f57607f821691505b60208210811415616d3357616d32616cd8565b5b50919050565b7f3536000000000000000000000000000000000000000000000000000000000000600082015250565b6000616d6f600283616001565b9150616d7a82616d39565b602082019050919050565b60006020820190508181036000830152616d9e81616d62565b9050919050565b7f3533000000000000000000000000000000000000000000000000000000000000600082015250565b6000616ddb600283616001565b9150616de682616da5565b602082019050919050565b60006020820190508181036000830152616e0a81616dce565b9050919050565b600081905092915050565b7f455243313832305f4143434550545f4d41474943000000000000000000000000600082015250565b6000616e52601483616e11565b9150616e5d82616e1c565b601482019050919050565b6000616e7382616e45565b9150819050919050565b7f3535000000000000000000000000000000000000000000000000000000000000600082015250565b6000616eb3600283616001565b9150616ebe82616e7d565b602082019050919050565b60006020820190508181036000830152616ee281616ea6565b9050919050565b7f3538000000000000000000000000000000000000000000000000000000000000600082015250565b6000616f1f600283616001565b9150616f2a82616ee9565b602082019050919050565b60006020820190508181036000830152616f4e81616f12565b9050919050565b600060a082019050616f6a60008301886163d4565b616f7760208301876163d4565b616f8460408301866163d4565b616f916060830185616357565b616f9e60808301846168e4565b9695505050505050565b7f4e487b7100000000000000000000000000000000000000000000000000000000600052603260045260246000fd5b7f556e617574686f72697a65640000000000000000000000000000000000000000600082015250565b600061700d600c83616001565b915061701882616fd7565b602082019050919050565b6000602082019050818103600083015261703c81617000565b9050919050565b7f446f63756d656e7420646f65736e742065786973740000000000000000000000600082015250565b6000617079601583616001565b915061708482617043565b602082019050919050565b600060208201905081810360008301526170a88161706c565b9050919050565b7f496e76616c696420696e64657800000000000000000000000000000000000000600082015250565b60006170e5600d83616001565b91506170f0826170af565b602082019050919050565b60006020820190508181036000830152617114816170d8565b9050919050565b7f4e487b7100000000000000000000000000000000000000000000000000000000600052601160045260246000fd5b60006171558261610f565b91506171608361610f565b9250828210156171735761717261711b565b5b828203905092915050565b7f4e487b7100000000000000000000000000000000000000000000000000000000600052603160045260246000fd5b600060408201905081810360008301526171c78185616056565b90506171d660208301846163d4565b9392505050565b7f4f776e61626c653a206e6577206f776e657220697320746865207a65726f206160008201527f6464726573730000000000000000000000000000000000000000000000000000602082015250565b6000617239602683616001565b9150617244826171dd565b604082019050919050565b600060208201905081810360008301526172688161722c565b9050919050565b600061727a82615ff6565b6172848185616e11565b9350617294818560208601616012565b80840191505092915050565b60006172ac828461726f565b915081905092915050565b60006060820190506172cc60008301866168e4565b6172d960208301856163d4565b6172e660408301846168e4565b949350505050565b7f526f6c65733a206163636f756e7420616c72656164792068617320726f6c6500600082015250565b6000617324601f83616001565b915061732f826172ee565b602082019050919050565b6000602082019050818103600083015261735381617317565b9050919050565b7f4f776e61626c653a2063616c6c6572206973206e6f7420746865206f776e6572600082015250565b6000617390602083616001565b915061739b8261735a565b602082019050919050565b600060208201905081810360008301526173bf81617383565b9050919050565b60006173d18261610f565b91507fffffffffffffffffffffffffffffffffffffffffffffffffffffffffffffffff8214156174045761740361711b565b5b600182019050919050565b7f3532000000000000000000000000000000000000000000000000000000000000600082015250565b6000617445600283616001565b91506174508261740f565b602082019050919050565b6000602082019050818103600083015261747481617438565b9050919050565b600081519050919050565b600082825260208201905092915050565b60006174a28261747b565b6174ac8185617486565b93506174bc818560208601616012565b6174c581616045565b840191505092915050565b60006040820190506174e56000830185616357565b81810360208301526174f78184617497565b90509392505050565b50565b6000617510600083617486565b915061751b82617500565b600082019050919050565b600060608201905061753b6000830185616357565b818103602083015261754d8184617497565b9050818103604083015261756081617503565b90509392505050565b600060808201905061757e60008301876168e4565b61758b6020830186616357565b818103604083015261759d8185617497565b905081810360608301526175b18184617497565b905095945050505050565b7f3534000000000000000000000000000000000000000000000000000000000000600082015250565b60006175f2600283616001565b91506175fd826175bc565b602082019050919050565b60006020820190508181036000830152617621816175e5565b9050919050565b7f3530000000000000000000000000000000000000000000000000000000000000600082015250565b600061765e600283616001565b915061766982617628565b602082019050919050565b6000602082019050818103600083015261768d81617651565b9050919050565b7f526f6c65733a206163636f756e7420697320746865207a65726f20616464726560008201527f7373000000000000000000000000000000000000000000000000000000000000602082015250565b60006176f0602283616001565b91506176fb82617694565b604082019050919050565b6000602082019050818103600083015261771f816176e3565b9050919050565b7f3537000000000000000000000000000000000000000000000000000000000000600082015250565b600061775c600283616001565b915061776782617726565b602082019050919050565b6000602082019050818103600083015261778b8161774f565b9050919050565b7f526f6c65733a206163636f756e7420646f6573206e6f74206861766520726f6c60008201527f6500000000000000000000000000000000000000000000000000000000000000602082015250565b60006177ee602183616001565b91506177f982617792565b604082019050919050565b6000602082019050818103600083015261781d816177e1565b9050919050565b60006178308385617486565b935061783d838584616c6a565b61784683616045565b840190509392505050565b600061010082019050818103600083015261786d818b8d617824565b905061787c602083018a6163d4565b61788960408301896168e4565b61789660608301886168e4565b6178a360808301876168e4565b6178b060a0830186616357565b81810360c08301526178c28185617497565b905081810360e08301526178d68184617497565b90509a9950505050505050505050565b60006040820190506178fb60008301856168e4565b61790860208301846163d4565b9392505050565b60008151905061791e816160e3565b92915050565b60006020828403121561793a57617939615edd565b5b60006179488482850161790f565b91505092915050565b600061795c8261610f565b91506179678361610f565b9250827fffffffffffffffffffffffffffffffffffffffffffffffffffffffffffffffff0382111561799c5761799b61711b565b5b828201905092915050565b7f4e487b7100000000000000000000000000000000000000000000000000000000600052601260045260246000fd5b60006179e18261610f565b91506179ec8361610f565b9250826179fc576179fb6179a7565b5b828204905092915050565b6000617a128261610f565b9150617a1d8361610f565b9250817fffffffffffffffffffffffffffffffffffffffffffffffffffffffffffffffff0483118215151615617a5657617a5561711b565b5b82820290509291505056fea26469706673582212202a331d1bf752dd85222d4c2371528be5caf6b4ec40791256a209c625ac5c6e7364736f6c63430008090033",
  "linkReferences": {},
  "deployedLinkReferences": {}
}