{
  "_format": "hh-sol-artifact-1",
  "contractName": "ERC1400TokensChecker",
  "sourceName": "contracts/extensions/tokenExtensions/ERC1400TokensChecker.sol",
  "abi": [
    {
      "inputs": [],
      "stateMutability": "nonpayable",
      "type": "constructor"
    },
    {
      "inputs": [
        {
          "internalType": "bytes32",
          "name": "interfaceHash",
          "type": "bytes32"
        },
        {
          "internalType": "address",
          "name": "",
          "type": "address"
        }
      ],
      "name": "canImplementInterfaceForAddress",
      "outputs": [
        {
          "internalType": "bytes32",
          "name": "",
          "type": "bytes32"
        }
      ],
      "stateMutability": "view",
      "type": "function"
    },
    {
      "inputs": [
        {
          "internalType": "bytes",
          "name": "payload",
          "type": "bytes"
        },
        {
          "internalType": "bytes32",
          "name": "partition",
          "type": "bytes32"
        },
        {
          "internalType": "address",
          "name": "operator",
          "type": "address"
        },
        {
          "internalType": "address",
          "name": "from",
          "type": "address"
        },
        {
          "internalType": "address",
          "name": "to",
          "type": "address"
        },
        {
          "internalType": "uint256",
          "name": "value",
          "type": "uint256"
        },
        {
          "internalType": "bytes",
          "name": "data",
          "type": "bytes"
        },
        {
          "internalType": "bytes",
          "name": "operatorData",
          "type": "bytes"
        }
      ],
      "name": "canTransferByPartition",
      "outputs": [
        {
          "internalType": "bytes1",
          "name": "",
          "type": "bytes1"
        },
        {
          "internalType": "bytes32",
          "name": "",
          "type": "bytes32"
        },
        {
          "internalType": "bytes32",
          "name": "",
          "type": "bytes32"
        }
      ],
      "stateMutability": "view",
      "type": "function"
    }
  ],
  "bytecode": "0x60806040523480156200001157600080fd5b506200005d6040518060400160405280601481526020017f45524331343030546f6b656e73436865636b65720000000000000000000000008152506200006360201b620001f31760201c565b62000155565b6001600080836040516020016200007b91906200013c565b60405160208183030381529060405280519060200120815260200190815260200160002060006101000a81548160ff02191690831515021790555050565b600081519050919050565b600081905092915050565b60005b83811015620000ef578082015181840152602081019050620000d2565b83811115620000ff576000848401525b50505050565b60006200011282620000b9565b6200011e8185620000c4565b935062000130818560208601620000cf565b80840191505092915050565b60006200014a828462000105565b915081905092915050565b6114a280620001656000396000f3fe608060405234801561001057600080fd5b50600436106100365760003560e01c8063249cb3fa1461003b578063c71ff5271461006b575b600080fd5b61005560048036038101906100509190610bf2565b61009d565b6040516100629190610c41565b60405180910390f35b61008560048036038101906100809190610cf7565b6100fb565b60405161009493929190610e4a565b60405180910390f35b600080600084815260200190815260200160002060009054906101000a900460ff16156100f0576040516020016100d390610ed8565b6040516020818303038152906040528051906020012090506100f5565b600090505b92915050565b60008060006101dc8e8e8080601f016020809104026020016040519081016040528093929190818152602001838380828437600081840152601f19601f820116905080830192505050505050508d8d8d8d8d8d8d8080601f016020809104026020016040519081016040528093929190818152602001838380828437600081840152601f19601f820116905080830192505050505050508c8c8080601f016020809104026020016040519081016040528093929190818152602001838380828437600081840152601f19601f82011690508083019250505050505050610247565b9250925092509b509b509b98505050505050505050565b6001600080836040516020016102099190610f5c565b60405160208183030381529060405280519060200120815260200190815260200160002060006101000a81548160ff02191690831515021790555050565b60008060003373ffffffffffffffffffffffffffffffffffffffff16636d77cad68b8b8b6040518463ffffffff1660e01b815260040161028993929190610f82565b60206040518083038186803b1580156102a157600080fd5b505afa1580156102b5573d6000803e3d6000fd5b505050506040513d601f19601f820116820180604052508101906102d99190610ff1565b61030e57897f580000000000000000000000000000000000000000000000000000000000000090600090925092509250610a46565b853373ffffffffffffffffffffffffffffffffffffffff166370a082318a6040518263ffffffff1660e01b8152600401610348919061101e565b60206040518083038186803b15801561036057600080fd5b505afa158015610374573d6000803e3d6000fd5b505050506040513d601f19601f82011682018060405250810190610398919061104e565b108061042d5750853373ffffffffffffffffffffffffffffffffffffffff166330e828038c8b6040518363ffffffff1660e01b81526004016103db92919061107b565b60206040518083038186803b1580156103f357600080fd5b505afa158015610407573d6000803e3d6000fd5b505050506040513d601f19601f8201168201806040525081019061042b919061104e565b105b1561046357897f520000000000000000000000000000000000000000000000000000000000000090600090925092509250610a46565b600073ffffffffffffffffffffffffffffffffffffffff168773ffffffffffffffffffffffffffffffffffffffff1614156104c957897f570000000000000000000000000000000000000000000000000000000000000090600090925092509250610a46565b600061050a896040518060400160405280601381526020017f45524331343030546f6b656e7353656e64657200000000000000000000000000815250610a54565b9050600073ffffffffffffffffffffffffffffffffffffffff168173ffffffffffffffffffffffffffffffffffffffff16141580156105dd57508073ffffffffffffffffffffffffffffffffffffffff1663e8a24c6a8d8d8d8d8d8d8d8d6040518963ffffffff1660e01b815260040161058b989796959493929190611119565b60206040518083038186803b1580156105a357600080fd5b505afa1580156105b7573d6000803e3d6000fd5b505050506040513d601f19601f820116820180604052508101906105db9190610ff1565b155b15610614578a7f56000000000000000000000000000000000000000000000000000000000000009060009093509350935050610a46565b610653886040518060400160405280601681526020017f45524331343030546f6b656e73526563697069656e7400000000000000000000815250610a54565b9050600073ffffffffffffffffffffffffffffffffffffffff168173ffffffffffffffffffffffffffffffffffffffff161415801561072657508073ffffffffffffffffffffffffffffffffffffffff1663f55886df8d8d8d8d8d8d8d8d6040518963ffffffff1660e01b81526004016106d4989796959493929190611119565b60206040518083038186803b1580156106ec57600080fd5b505afa158015610700573d6000803e3d6000fd5b505050506040513d601f19601f820116820180604052508101906107249190610ff1565b155b1561075d578a7f57000000000000000000000000000000000000000000000000000000000000009060009093509350935050610a46565b61079c336040518060400160405280601681526020017f45524331343030546f6b656e7356616c696461746f7200000000000000000000815250610a54565b905060006040518061012001604052803373ffffffffffffffffffffffffffffffffffffffff1681526020018e81526020018d81526020018c73ffffffffffffffffffffffffffffffffffffffff1681526020018b73ffffffffffffffffffffffffffffffffffffffff1681526020018a73ffffffffffffffffffffffffffffffffffffffff168152602001898152602001888152602001878152509050600073ffffffffffffffffffffffffffffffffffffffff168273ffffffffffffffffffffffffffffffffffffffff16141580156108fd57508173ffffffffffffffffffffffffffffffffffffffff166398a53ef5826040518263ffffffff1660e01b81526004016108ab91906112f6565b60206040518083038186803b1580156108c357600080fd5b505afa1580156108d7573d6000803e3d6000fd5b505050506040513d601f19601f820116820180604052508101906108fb9190610ff1565b155b15610935578b7f5400000000000000000000000000000000000000000000000000000000000000906000909450945094505050610a46565b60003373ffffffffffffffffffffffffffffffffffffffff1663556f0dc76040518163ffffffff1660e01b815260040160206040518083038186803b15801561097d57600080fd5b505afa158015610991573d6000803e3d6000fd5b505050506040513d601f19601f820116820180604052508101906109b5919061104e565b9050886109dd826109cf848d610b2890919063ffffffff16565b610b3e90919063ffffffff16565b14610a16578c7f500000000000000000000000000000000000000000000000000000000000000090600090955095509550505050610a46565b8c7f5100000000000000000000000000000000000000000000000000000000000000906000909550955095505050505b985098509895505050505050565b60008082604051602001610a689190610f5c565b604051602081830303815290604052805190602001209050738473be67c1e951fa0428d28140dbeecab7052b8473ffffffffffffffffffffffffffffffffffffffff1663aabbb8ca85836040518363ffffffff1660e01b8152600401610acf929190611318565b60206040518083038186803b158015610ae757600080fd5b505afa158015610afb573d6000803e3d6000fd5b505050506040513d601f19601f82011682018060405250810190610b1f9190611356565b91505092915050565b60008183610b3691906113e1565b905092915050565b60008183610b4c9190611412565b905092915050565b600080fd5b600080fd5b6000819050919050565b610b7181610b5e565b8114610b7c57600080fd5b50565b600081359050610b8e81610b68565b92915050565b600073ffffffffffffffffffffffffffffffffffffffff82169050919050565b6000610bbf82610b94565b9050919050565b610bcf81610bb4565b8114610bda57600080fd5b50565b600081359050610bec81610bc6565b92915050565b60008060408385031215610c0957610c08610b54565b5b6000610c1785828601610b7f565b9250506020610c2885828601610bdd565b9150509250929050565b610c3b81610b5e565b82525050565b6000602082019050610c566000830184610c32565b92915050565b600080fd5b600080fd5b600080fd5b60008083601f840112610c8157610c80610c5c565b5b8235905067ffffffffffffffff811115610c9e57610c9d610c61565b5b602083019150836001820283011115610cba57610cb9610c66565b5b9250929050565b6000819050919050565b610cd481610cc1565b8114610cdf57600080fd5b50565b600081359050610cf181610ccb565b92915050565b60008060008060008060008060008060006101008c8e031215610d1d57610d1c610b54565b5b60008c013567ffffffffffffffff811115610d3b57610d3a610b59565b5b610d478e828f01610c6b565b9b509b50506020610d5a8e828f01610b7f565b9950506040610d6b8e828f01610bdd565b9850506060610d7c8e828f01610bdd565b9750506080610d8d8e828f01610bdd565b96505060a0610d9e8e828f01610ce2565b95505060c08c013567ffffffffffffffff811115610dbf57610dbe610b59565b5b610dcb8e828f01610c6b565b945094505060e08c013567ffffffffffffffff811115610dee57610ded610b59565b5b610dfa8e828f01610c6b565b92509250509295989b509295989b9093969950565b60007fff0000000000000000000000000000000000000000000000000000000000000082169050919050565b610e4481610e0f565b82525050565b6000606082019050610e5f6000830186610e3b565b610e6c6020830185610c32565b610e796040830184610c32565b949350505050565b600081905092915050565b7f455243313832305f4143434550545f4d41474943000000000000000000000000600082015250565b6000610ec2601483610e81565b9150610ecd82610e8c565b601482019050919050565b6000610ee382610eb5565b9150819050919050565b600081519050919050565b60005b83811015610f16578082015181840152602081019050610efb565b83811115610f25576000848401525b50505050565b6000610f3682610eed565b610f408185610e81565b9350610f50818560208601610ef8565b80840191505092915050565b6000610f688284610f2b565b915081905092915050565b610f7c81610bb4565b82525050565b6000606082019050610f976000830186610c32565b610fa46020830185610f73565b610fb16040830184610f73565b949350505050565b60008115159050919050565b610fce81610fb9565b8114610fd957600080fd5b50565b600081519050610feb81610fc5565b92915050565b60006020828403121561100757611006610b54565b5b600061101584828501610fdc565b91505092915050565b60006020820190506110336000830184610f73565b92915050565b60008151905061104881610ccb565b92915050565b60006020828403121561106457611063610b54565b5b600061107284828501611039565b91505092915050565b60006040820190506110906000830185610c32565b61109d6020830184610f73565b9392505050565b600081519050919050565b600082825260208201905092915050565b6000601f19601f8301169050919050565b60006110dc826110a4565b6110e681856110af565b93506110f6818560208601610ef8565b6110ff816110c0565b840191505092915050565b61111381610cc1565b82525050565b6000610100820190508181036000830152611134818b6110d1565b9050611143602083018a610c32565b6111506040830189610f73565b61115d6060830188610f73565b61116a6080830187610f73565b61117760a083018661110a565b81810360c083015261118981856110d1565b905081810360e083015261119d81846110d1565b90509998505050505050505050565b6111b581610bb4565b82525050565b600082825260208201905092915050565b60006111d7826110a4565b6111e181856111bb565b93506111f1818560208601610ef8565b6111fa816110c0565b840191505092915050565b61120e81610b5e565b82525050565b61121d81610cc1565b82525050565b60006101208301600083015161123c60008601826111ac565b506020830151848203602086015261125482826111cc565b91505060408301516112696040860182611205565b50606083015161127c60608601826111ac565b50608083015161128f60808601826111ac565b5060a08301516112a260a08601826111ac565b5060c08301516112b560c0860182611214565b5060e083015184820360e08601526112cd82826111cc565b9150506101008301518482036101008601526112e982826111cc565b9150508091505092915050565b600060208201905081810360008301526113108184611223565b905092915050565b600060408201905061132d6000830185610f73565b61133a6020830184610c32565b9392505050565b60008151905061135081610bc6565b92915050565b60006020828403121561136c5761136b610b54565b5b600061137a84828501611341565b91505092915050565b7f4e487b7100000000000000000000000000000000000000000000000000000000600052601260045260246000fd5b7f4e487b7100000000000000000000000000000000000000000000000000000000600052601160045260246000fd5b60006113ec82610cc1565b91506113f783610cc1565b92508261140757611406611383565b5b828204905092915050565b600061141d82610cc1565b915061142883610cc1565b9250817fffffffffffffffffffffffffffffffffffffffffffffffffffffffffffffffff0483118215151615611461576114606113b2565b5b82820290509291505056fea2646970667358221220866f73791b9eecb1b43432cf5d1836d7be7b38aa565c6751f8b97e0882884fa164736f6c63430008090033",
  "linkReferences": {},
  "deployedLinkReferences": {}
}