{
  "_format": "hh-sol-artifact-1",
  "contractName": "Pausable",
  "sourceName": "contracts/tools/Pausable.sol",
  "abi": [
    {
      "anonymous": false,
      "inputs": [
        {
          "indexed": true,
          "internalType": "address",
          "name": "token",
          "type": "address"
        },
        {
          "indexed": false,
          "internalType": "address",
          "name": "account",
          "type": "address"
        }
      ],
      "name": "Paused",
      "type": "event"
    },
    {
      "anonymous": false,
      "inputs": [
        {
          "indexed": true,
          "internalType": "address",
          "name": "token",
          "type": "address"
        },
        {
          "indexed": true,
          "internalType": "address",
          "name": "account",
          "type": "address"
        }
      ],
      "name": "PauserAdded",
      "type": "event"
    },
    {
      "anonymous": false,
      "inputs": [
        {
          "indexed": true,
          "internalType": "address",
          "name": "token",
          "type": "address"
        },
        {
          "indexed": true,
          "internalType": "address",
          "name": "account",
          "type": "address"
        }
      ],
      "name": "PauserRemoved",
      "type": "event"
    },
    {
      "anonymous": false,
      "inputs": [
        {
          "indexed": true,
          "internalType": "address",
          "name": "token",
          "type": "address"
        },
        {
          "indexed": false,
          "internalType": "address",
          "name": "account",
          "type": "address"
        }
      ],
      "name": "Unpaused",
      "type": "event"
    },
    {
      "inputs": [
        {
          "internalType": "address",
          "name": "token",
          "type": "address"
        },
        {
          "internalType": "address",
          "name": "account",
          "type": "address"
        }
      ],
      "name": "addPauser",
      "outputs": [],
      "stateMutability": "nonpayable",
      "type": "function"
    },
    {
      "inputs": [
        {
          "internalType": "address",
          "name": "token",
          "type": "address"
        },
        {
          "internalType": "address",
          "name": "account",
          "type": "address"
        }
      ],
      "name": "isPauser",
      "outputs": [
        {
          "internalType": "bool",
          "name": "",
          "type": "bool"
        }
      ],
      "stateMutability": "view",
      "type": "function"
    },
    {
      "inputs": [
        {
          "internalType": "address",
          "name": "token",
          "type": "address"
        }
      ],
      "name": "pause",
      "outputs": [],
      "stateMutability": "nonpayable",
      "type": "function"
    },
    {
      "inputs": [
        {
          "internalType": "address",
          "name": "token",
          "type": "address"
        }
      ],
      "name": "paused",
      "outputs": [
        {
          "internalType": "bool",
          "name": "",
          "type": "bool"
        }
      ],
      "stateMutability": "view",
      "type": "function"
    },
    {
      "inputs": [
        {
          "internalType": "address",
          "name": "token",
          "type": "address"
        },
        {
          "internalType": "address",
          "name": "account",
          "type": "address"
        }
      ],
      "name": "removePauser",
      "outputs": [],
      "stateMutability": "nonpayable",
      "type": "function"
    },
    {
      "inputs": [
        {
          "internalType": "address",
          "name": "token",
          "type": "address"
        }
      ],
      "name": "renouncePauser",
      "outputs": [],
      "stateMutability": "nonpayable",
      "type": "function"
    },
    {
      "inputs": [
        {
          "internalType": "address",
          "name": "token",
          "type": "address"
        }
      ],
      "name": "unpause",
      "outputs": [],
      "stateMutability": "nonpayable",
      "type": "function"
    }
  ],
  "bytecode": "0x608060405234801561001057600080fd5b50610b17806100206000396000f3fe608060405234801561001057600080fd5b506004361061007d5760003560e01c806357b001f91161005b57806357b001f9146100fe57806376a67a511461011a578063eb5314bd14610136578063ed2f9095146101525761007d565b80632e48152c146100825780632fd33398146100b257806341eb24bb146100e2575b600080fd5b61009c60048036038101906100979190610873565b61016e565b6040516100a991906108bb565b60405180910390f35b6100cc60048036038101906100c791906108d6565b6101c4565b6040516100d991906108bb565b60405180910390f35b6100fc60048036038101906100f79190610873565b61021e565b005b61011860048036038101906101139190610873565b61022b565b005b610134600480360381019061012f9190610873565b610341565b005b610150600480360381019061014b91906108d6565b610457565b005b61016c600480360381019061016791906108d6565b61047a565b005b6000600160008373ffffffffffffffffffffffffffffffffffffffff1673ffffffffffffffffffffffffffffffffffffffff16815260200190815260200160002060009054906101000a900460ff169050919050565b6000610216826000808673ffffffffffffffffffffffffffffffffffffffff1673ffffffffffffffffffffffffffffffffffffffff16815260200190815260200160002061049d90919063ffffffff16565b905092915050565b6102288133610565565b50565b8061023681336101c4565b61023f57600080fd5b81600160008273ffffffffffffffffffffffffffffffffffffffff1673ffffffffffffffffffffffffffffffffffffffff16815260200190815260200160002060009054906101000a900460ff1661029657600080fd5b6000600160008573ffffffffffffffffffffffffffffffffffffffff1673ffffffffffffffffffffffffffffffffffffffff16815260200190815260200160002060006101000a81548160ff0219169083151502179055508273ffffffffffffffffffffffffffffffffffffffff167f3d072963433794eb417a69355df67d08bbd73d5076ef653d6863861161d60af3336040516103349190610925565b60405180910390a2505050565b8061034c81336101c4565b61035557600080fd5b81600160008273ffffffffffffffffffffffffffffffffffffffff1673ffffffffffffffffffffffffffffffffffffffff16815260200190815260200160002060009054906101000a900460ff16156103ad57600080fd5b60018060008573ffffffffffffffffffffffffffffffffffffffff1673ffffffffffffffffffffffffffffffffffffffff16815260200190815260200160002060006101000a81548160ff0219169083151502179055508273ffffffffffffffffffffffffffffffffffffffff167f3dd4f37ca5eaf6c357698a52c806820426d7c9a26adb0991c3bebb09cf23352a3360405161044a9190610925565b60405180910390a2505050565b8161046281336101c4565b61046b57600080fd5b6104758383610613565b505050565b8161048581336101c4565b61048e57600080fd5b6104988383610565565b505050565b60008073ffffffffffffffffffffffffffffffffffffffff168273ffffffffffffffffffffffffffffffffffffffff16141561050e576040517f08c379a0000000000000000000000000000000000000000000000000000000008152600401610505906109c3565b60405180910390fd5b8260000160008373ffffffffffffffffffffffffffffffffffffffff1673ffffffffffffffffffffffffffffffffffffffff16815260200190815260200160002060009054906101000a900460ff16905092915050565b6105b5816000808573ffffffffffffffffffffffffffffffffffffffff1673ffffffffffffffffffffffffffffffffffffffff1681526020019081526020016000206106c190919063ffffffff16565b8073ffffffffffffffffffffffffffffffffffffffff168273ffffffffffffffffffffffffffffffffffffffff167fb75903ade4a0fdb07d60c882c22c779e2e1c751883c37aecdcc92a8ec72b046e60405160405180910390a35050565b610663816000808573ffffffffffffffffffffffffffffffffffffffff1673ffffffffffffffffffffffffffffffffffffffff16815260200190815260200160002061076890919063ffffffff16565b8073ffffffffffffffffffffffffffffffffffffffff168273ffffffffffffffffffffffffffffffffffffffff167fe0953c403a52f9dc1fef4202a8d33975c958b727bee0d7b5b328965ddad98d8160405160405180910390a35050565b6106cb828261049d565b61070a576040517f08c379a000000000000000000000000000000000000000000000000000000000815260040161070190610a55565b60405180910390fd5b60008260000160008373ffffffffffffffffffffffffffffffffffffffff1673ffffffffffffffffffffffffffffffffffffffff16815260200190815260200160002060006101000a81548160ff0219169083151502179055505050565b610772828261049d565b156107b2576040517f08c379a00000000000000000000000000000000000000000000000000000000081526004016107a990610ac1565b60405180910390fd5b60018260000160008373ffffffffffffffffffffffffffffffffffffffff1673ffffffffffffffffffffffffffffffffffffffff16815260200190815260200160002060006101000a81548160ff0219169083151502179055505050565b600080fd5b600073ffffffffffffffffffffffffffffffffffffffff82169050919050565b600061084082610815565b9050919050565b61085081610835565b811461085b57600080fd5b50565b60008135905061086d81610847565b92915050565b60006020828403121561088957610888610810565b5b60006108978482850161085e565b91505092915050565b60008115159050919050565b6108b5816108a0565b82525050565b60006020820190506108d060008301846108ac565b92915050565b600080604083850312156108ed576108ec610810565b5b60006108fb8582860161085e565b925050602061090c8582860161085e565b9150509250929050565b61091f81610835565b82525050565b600060208201905061093a6000830184610916565b92915050565b600082825260208201905092915050565b7f526f6c65733a206163636f756e7420697320746865207a65726f20616464726560008201527f7373000000000000000000000000000000000000000000000000000000000000602082015250565b60006109ad602283610940565b91506109b882610951565b604082019050919050565b600060208201905081810360008301526109dc816109a0565b9050919050565b7f526f6c65733a206163636f756e7420646f6573206e6f74206861766520726f6c60008201527f6500000000000000000000000000000000000000000000000000000000000000602082015250565b6000610a3f602183610940565b9150610a4a826109e3565b604082019050919050565b60006020820190508181036000830152610a6e81610a32565b9050919050565b7f526f6c65733a206163636f756e7420616c72656164792068617320726f6c6500600082015250565b6000610aab601f83610940565b9150610ab682610a75565b602082019050919050565b60006020820190508181036000830152610ada81610a9e565b905091905056fea26469706673582212209879727e6c1522f6112dd9665ce617b4ed208f7940596b7170bc90bad426cffd64736f6c63430008090033",
  "linkReferences": {},
  "deployedLinkReferences": {}
}