{
  "_format": "hh-sol-artifact-1",
  "contractName": "ERC20HoldableToken",
  "sourceName": "contracts/tokens/ERC20HoldableToken.sol",
  "abi": [
    {
      "inputs": [
        {
          "internalType": "string",
          "name": "name",
          "type": "string"
        },
        {
          "internalType": "string",
          "name": "symbol",
          "type": "string"
        },
        {
          "internalType": "uint8",
          "name": "decimals",
          "type": "uint8"
        }
      ],
      "stateMutability": "nonpayable",
      "type": "constructor"
    },
    {
      "anonymous": false,
      "inputs": [
        {
          "indexed": true,
          "internalType": "address",
          "name": "owner",
          "type": "address"
        },
        {
          "indexed": true,
          "internalType": "address",
          "name": "spender",
          "type": "address"
        },
        {
          "indexed": false,
          "internalType": "uint256",
          "name": "value",
          "type": "uint256"
        }
      ],
      "name": "Approval",
      "type": "event"
    },
    {
      "anonymous": false,
      "inputs": [
        {
          "indexed": true,
          "internalType": "bytes32",
          "name": "holdId",
          "type": "bytes32"
        },
        {
          "indexed": false,
          "internalType": "bytes32",
          "name": "lockPreimage",
          "type": "bytes32"
        },
        {
          "indexed": false,
          "internalType": "address",
          "name": "recipient",
          "type": "address"
        }
      ],
      "name": "ExecutedHold",
      "type": "event"
    },
    {
      "anonymous": false,
      "inputs": [
        {
          "indexed": true,
          "internalType": "address",
          "name": "account",
          "type": "address"
        }
      ],
      "name": "MinterAdded",
      "type": "event"
    },
    {
      "anonymous": false,
      "inputs": [
        {
          "indexed": true,
          "internalType": "address",
          "name": "account",
          "type": "address"
        }
      ],
      "name": "MinterRemoved",
      "type": "event"
    },
    {
      "anonymous": false,
      "inputs": [
        {
          "indexed": true,
          "internalType": "bytes32",
          "name": "holdId",
          "type": "bytes32"
        },
        {
          "indexed": true,
          "internalType": "address",
          "name": "recipient",
          "type": "address"
        },
        {
          "indexed": true,
          "internalType": "address",
          "name": "notary",
          "type": "address"
        },
        {
          "indexed": false,
          "internalType": "uint256",
          "name": "amount",
          "type": "uint256"
        },
        {
          "indexed": false,
          "internalType": "uint256",
          "name": "expirationDateTime",
          "type": "uint256"
        },
        {
          "indexed": false,
          "internalType": "bytes32",
          "name": "lockHash",
          "type": "bytes32"
        }
      ],
      "name": "NewHold",
      "type": "event"
    },
    {
      "anonymous": false,
      "inputs": [
        {
          "indexed": true,
          "internalType": "address",
          "name": "previousOwner",
          "type": "address"
        },
        {
          "indexed": true,
          "internalType": "address",
          "name": "newOwner",
          "type": "address"
        }
      ],
      "name": "OwnershipTransferred",
      "type": "event"
    },
    {
      "anonymous": false,
      "inputs": [
        {
          "indexed": false,
          "internalType": "address",
          "name": "account",
          "type": "address"
        }
      ],
      "name": "Paused",
      "type": "event"
    },
    {
      "anonymous": false,
      "inputs": [
        {
          "indexed": true,
          "internalType": "bytes32",
          "name": "holdId",
          "type": "bytes32"
        },
        {
          "indexed": false,
          "internalType": "address",
          "name": "sender",
          "type": "address"
        }
      ],
      "name": "ReleaseHold",
      "type": "event"
    },
    {
      "anonymous": false,
      "inputs": [
        {
          "indexed": true,
          "internalType": "address",
          "name": "from",
          "type": "address"
        },
        {
          "indexed": true,
          "internalType": "address",
          "name": "to",
          "type": "address"
        },
        {
          "indexed": false,
          "internalType": "uint256",
          "name": "value",
          "type": "uint256"
        }
      ],
      "name": "Transfer",
      "type": "event"
    },
    {
      "anonymous": false,
      "inputs": [
        {
          "indexed": false,
          "internalType": "address",
          "name": "account",
          "type": "address"
        }
      ],
      "name": "Unpaused",
      "type": "event"
    },
    {
      "inputs": [
        {
          "internalType": "address",
          "name": "account",
          "type": "address"
        }
      ],
      "name": "addMinter",
      "outputs": [],
      "stateMutability": "nonpayable",
      "type": "function"
    },
    {
      "inputs": [
        {
          "internalType": "address",
          "name": "owner",
          "type": "address"
        },
        {
          "internalType": "address",
          "name": "spender",
          "type": "address"
        }
      ],
      "name": "allowance",
      "outputs": [
        {
          "internalType": "uint256",
          "name": "",
          "type": "uint256"
        }
      ],
      "stateMutability": "view",
      "type": "function"
    },
    {
      "inputs": [
        {
          "internalType": "address",
          "name": "spender",
          "type": "address"
        },
        {
          "internalType": "uint256",
          "name": "amount",
          "type": "uint256"
        }
      ],
      "name": "approve",
      "outputs": [
        {
          "internalType": "bool",
          "name": "",
          "type": "bool"
        }
      ],
      "stateMutability": "nonpayable",
      "type": "function"
    },
    {
      "inputs": [
        {
          "internalType": "address",
          "name": "account",
          "type": "address"
        }
      ],
      "name": "balanceOf",
      "outputs": [
        {
          "internalType": "uint256",
          "name": "",
          "type": "uint256"
        }
      ],
      "stateMutability": "view",
      "type": "function"
    },
    {
      "inputs": [
        {
          "internalType": "address",
          "name": "account",
          "type": "address"
        }
      ],
      "name": "balanceOnHold",
      "outputs": [
        {
          "internalType": "uint256",
          "name": "",
          "type": "uint256"
        }
      ],
      "stateMutability": "view",
      "type": "function"
    },
    {
      "inputs": [
        {
          "internalType": "uint256",
          "name": "amount",
          "type": "uint256"
        }
      ],
      "name": "burn",
      "outputs": [],
      "stateMutability": "nonpayable",
      "type": "function"
    },
    {
      "inputs": [
        {
          "internalType": "address",
          "name": "account",
          "type": "address"
        },
        {
          "internalType": "uint256",
          "name": "amount",
          "type": "uint256"
        }
      ],
      "name": "burnFrom",
      "outputs": [],
      "stateMutability": "nonpayable",
      "type": "function"
    },
    {
      "inputs": [
        {
          "internalType": "bytes32",
          "name": "interfaceHash",
          "type": "bytes32"
        },
        {
          "internalType": "address",
          "name": "",
          "type": "address"
        }
      ],
      "name": "canImplementInterfaceForAddress",
      "outputs": [
        {
          "internalType": "bytes32",
          "name": "",
          "type": "bytes32"
        }
      ],
      "stateMutability": "view",
      "type": "function"
    },
    {
      "inputs": [],
      "name": "decimals",
      "outputs": [
        {
          "internalType": "uint8",
          "name": "",
          "type": "uint8"
        }
      ],
      "stateMutability": "view",
      "type": "function"
    },
    {
      "inputs": [
        {
          "internalType": "address",
          "name": "spender",
          "type": "address"
        },
        {
          "internalType": "uint256",
          "name": "subtractedValue",
          "type": "uint256"
        }
      ],
      "name": "decreaseAllowance",
      "outputs": [
        {
          "internalType": "bool",
          "name": "",
          "type": "bool"
        }
      ],
      "stateMutability": "nonpayable",
      "type": "function"
    },
    {
      "inputs": [
        {
          "internalType": "bytes32",
          "name": "holdId",
          "type": "bytes32"
        },
        {
          "internalType": "bytes32",
          "name": "lockPreimage",
          "type": "bytes32"
        }
      ],
      "name": "executeHold",
      "outputs": [],
      "stateMutability": "nonpayable",
      "type": "function"
    },
    {
      "inputs": [
        {
          "internalType": "bytes32",
          "name": "holdId",
          "type": "bytes32"
        },
        {
          "internalType": "bytes32",
          "name": "lockPreimage",
          "type": "bytes32"
        },
        {
          "internalType": "address",
          "name": "recipient",
          "type": "address"
        }
      ],
      "name": "executeHold",
      "outputs": [],
      "stateMutability": "nonpayable",
      "type": "function"
    },
    {
      "inputs": [
        {
          "internalType": "bytes32",
          "name": "holdId",
          "type": "bytes32"
        }
      ],
      "name": "executeHold",
      "outputs": [],
      "stateMutability": "nonpayable",
      "type": "function"
    },
    {
      "inputs": [
        {
          "internalType": "address",
          "name": "recipient",
          "type": "address"
        },
        {
          "internalType": "address",
          "name": "notary",
          "type": "address"
        },
        {
          "internalType": "uint256",
          "name": "amount",
          "type": "uint256"
        },
        {
          "internalType": "uint256",
          "name": "expirationDateTime",
          "type": "uint256"
        },
        {
          "internalType": "bytes32",
          "name": "lockHash",
          "type": "bytes32"
        }
      ],
      "name": "generateHoldId",
      "outputs": [
        {
          "internalType": "bytes32",
          "name": "holdId",
          "type": "bytes32"
        }
      ],
      "stateMutability": "pure",
      "type": "function"
    },
    {
      "inputs": [
        {
          "internalType": "bytes32",
          "name": "holdId",
          "type": "bytes32"
        },
        {
          "internalType": "address",
          "name": "recipient",
          "type": "address"
        },
        {
          "internalType": "address",
          "name": "notary",
          "type": "address"
        },
        {
          "internalType": "uint256",
          "name": "amount",
          "type": "uint256"
        },
        {
          "internalType": "uint256",
          "name": "expirationDateTime",
          "type": "uint256"
        },
        {
          "internalType": "bytes32",
          "name": "lockHash",
          "type": "bytes32"
        }
      ],
      "name": "hold",
      "outputs": [
        {
          "internalType": "bool",
          "name": "",
          "type": "bool"
        }
      ],
      "stateMutability": "nonpayable",
      "type": "function"
    },
    {
      "inputs": [
        {
          "internalType": "bytes32",
          "name": "holdId",
          "type": "bytes32"
        }
      ],
      "name": "holdStatus",
      "outputs": [
        {
          "internalType": "enum HoldStatusCode",
          "name": "",
          "type": "uint8"
        }
      ],
      "stateMutability": "view",
      "type": "function"
    },
    {
      "inputs": [
        {
          "internalType": "address",
          "name": "spender",
          "type": "address"
        },
        {
          "internalType": "uint256",
          "name": "addedValue",
          "type": "uint256"
        }
      ],
      "name": "increaseAllowance",
      "outputs": [
        {
          "internalType": "bool",
          "name": "",
          "type": "bool"
        }
      ],
      "stateMutability": "nonpayable",
      "type": "function"
    },
    {
      "inputs": [
        {
          "internalType": "address",
          "name": "account",
          "type": "address"
        }
      ],
      "name": "isMinter",
      "outputs": [
        {
          "internalType": "bool",
          "name": "",
          "type": "bool"
        }
      ],
      "stateMutability": "view",
      "type": "function"
    },
    {
      "inputs": [
        {
          "internalType": "address",
          "name": "to",
          "type": "address"
        },
        {
          "internalType": "uint256",
          "name": "value",
          "type": "uint256"
        }
      ],
      "name": "mint",
      "outputs": [
        {
          "internalType": "bool",
          "name": "",
          "type": "bool"
        }
      ],
      "stateMutability": "nonpayable",
      "type": "function"
    },
    {
      "inputs": [],
      "name": "name",
      "outputs": [
        {
          "internalType": "string",
          "name": "",
          "type": "string"
        }
      ],
      "stateMutability": "view",
      "type": "function"
    },
    {
      "inputs": [],
      "name": "owner",
      "outputs": [
        {
          "internalType": "address",
          "name": "",
          "type": "address"
        }
      ],
      "stateMutability": "view",
      "type": "function"
    },
    {
      "inputs": [],
      "name": "paused",
      "outputs": [
        {
          "internalType": "bool",
          "name": "",
          "type": "bool"
        }
      ],
      "stateMutability": "view",
      "type": "function"
    },
    {
      "inputs": [
        {
          "internalType": "bytes32",
          "name": "holdId",
          "type": "bytes32"
        }
      ],
      "name": "releaseHold",
      "outputs": [],
      "stateMutability": "nonpayable",
      "type": "function"
    },
    {
      "inputs": [
        {
          "internalType": "address",
          "name": "account",
          "type": "address"
        }
      ],
      "name": "removeMinter",
      "outputs": [],
      "stateMutability": "nonpayable",
      "type": "function"
    },
    {
      "inputs": [],
      "name": "renounceMinter",
      "outputs": [],
      "stateMutability": "nonpayable",
      "type": "function"
    },
    {
      "inputs": [],
      "name": "renounceOwnership",
      "outputs": [],
      "stateMutability": "nonpayable",
      "type": "function"
    },
    {
      "inputs": [
        {
          "internalType": "bytes32",
          "name": "holdId",
          "type": "bytes32"
        }
      ],
      "name": "retrieveHoldData",
      "outputs": [
        {
          "components": [
            {
              "internalType": "address",
              "name": "sender",
              "type": "address"
            },
            {
              "internalType": "address",
              "name": "recipient",
              "type": "address"
            },
            {
              "internalType": "address",
              "name": "notary",
              "type": "address"
            },
            {
              "internalType": "uint256",
              "name": "amount",
              "type": "uint256"
            },
            {
              "internalType": "uint256",
              "name": "expirationDateTime",
              "type": "uint256"
            },
            {
              "internalType": "bytes32",
              "name": "secretHash",
              "type": "bytes32"
            },
            {
              "internalType": "enum HoldStatusCode",
              "name": "status",
              "type": "uint8"
            }
          ],
          "internalType": "struct ERC20HoldData",
          "name": "",
          "type": "tuple"
        }
      ],
      "stateMutability": "view",
      "type": "function"
    },
    {
      "inputs": [
        {
          "internalType": "address",
          "name": "notary",
          "type": "address"
        },
        {
          "internalType": "address",
          "name": "sender",
          "type": "address"
        },
        {
          "internalType": "address",
          "name": "recipient",
          "type": "address"
        },
        {
          "internalType": "uint256",
          "name": "value",
          "type": "uint256"
        }
      ],
      "name": "retrieveHoldHashId",
      "outputs": [
        {
          "internalType": "bytes32",
          "name": "",
          "type": "bytes32"
        },
        {
          "internalType": "bytes32",
          "name": "",
          "type": "bytes32"
        }
      ],
      "stateMutability": "view",
      "type": "function"
    },
    {
      "inputs": [
        {
          "internalType": "address",
          "name": "account",
          "type": "address"
        }
      ],
      "name": "spendableBalanceOf",
      "outputs": [
        {
          "internalType": "uint256",
          "name": "",
          "type": "uint256"
        }
      ],
      "stateMutability": "view",
      "type": "function"
    },
    {
      "inputs": [],
      "name": "symbol",
      "outputs": [
        {
          "internalType": "string",
          "name": "",
          "type": "string"
        }
      ],
      "stateMutability": "view",
      "type": "function"
    },
    {
      "inputs": [],
      "name": "totalSupply",
      "outputs": [
        {
          "internalType": "uint256",
          "name": "",
          "type": "uint256"
        }
      ],
      "stateMutability": "view",
      "type": "function"
    },
    {
      "inputs": [],
      "name": "totalSupplyOnHold",
      "outputs": [
        {
          "internalType": "uint256",
          "name": "",
          "type": "uint256"
        }
      ],
      "stateMutability": "view",
      "type": "function"
    },
    {
      "inputs": [
        {
          "internalType": "address",
          "name": "recipient",
          "type": "address"
        },
        {
          "internalType": "uint256",
          "name": "amount",
          "type": "uint256"
        }
      ],
      "name": "transfer",
      "outputs": [
        {
          "internalType": "bool",
          "name": "",
          "type": "bool"
        }
      ],
      "stateMutability": "nonpayable",
      "type": "function"
    },
    {
      "inputs": [
        {
          "internalType": "address",
          "name": "sender",
          "type": "address"
        },
        {
          "internalType": "address",
          "name": "recipient",
          "type": "address"
        },
        {
          "internalType": "uint256",
          "name": "amount",
          "type": "uint256"
        }
      ],
      "name": "transferFrom",
      "outputs": [
        {
          "internalType": "bool",
          "name": "",
          "type": "bool"
        }
      ],
      "stateMutability": "nonpayable",
      "type": "function"
    },
    {
      "inputs": [
        {
          "internalType": "address",
          "name": "newOwner",
          "type": "address"
        }
      ],
      "name": "transferOwnership",
      "outputs": [],
      "stateMutability": "nonpayable",
      "type": "function"
    }
  ],
  "bytecode": "0x60a06040523480156200001157600080fd5b5060405162005b0938038062005b098339818101604052810190620000379190620006ae565b82828282826200005c620000506200012160201b60201c565b6200012960201b60201c565b81600490805190602001906200007492919062000423565b5080600590805190602001906200008d92919062000423565b5050506000600660006101000a81548160ff021916908315150217905550620000bc33620001ed60201b60201c565b620001076040518060400160405280600a81526020017f4552433230546f6b656e000000000000000000000000000000000000000000008152506200024e60201b620021be1760201c565b8060ff1660808160ff16815250505050505050506200092e565b600033905090565b60008060009054906101000a900473ffffffffffffffffffffffffffffffffffffffff169050816000806101000a81548173ffffffffffffffffffffffffffffffffffffffff021916908373ffffffffffffffffffffffffffffffffffffffff1602179055508173ffffffffffffffffffffffffffffffffffffffff168173ffffffffffffffffffffffffffffffffffffffff167f8be0079c531659141344cd1fd0a4f28419497f9722a3daafe3b4186f6b6457e060405160405180910390a35050565b62000208816008620002a560201b620022131790919060201c565b8073ffffffffffffffffffffffffffffffffffffffff167f6ae172837ea30b801fbfcdd4108aa1d5bf8ff775444fd70256b44e6bf3dfc3f660405160405180910390a250565b6001600760008360405160200162000267919062000795565b60405160208183030381529060405280519060200120815260200190815260200160002060006101000a81548160ff02191690831515021790555050565b620002b782826200035860201b60201c565b15620002fa576040517f08c379a0000000000000000000000000000000000000000000000000000000008152600401620002f1906200080f565b60405180910390fd5b60018260000160008373ffffffffffffffffffffffffffffffffffffffff1673ffffffffffffffffffffffffffffffffffffffff16815260200190815260200160002060006101000a81548160ff0219169083151502179055505050565b60008073ffffffffffffffffffffffffffffffffffffffff168273ffffffffffffffffffffffffffffffffffffffff161415620003cc576040517f08c379a0000000000000000000000000000000000000000000000000000000008152600401620003c390620008a7565b60405180910390fd5b8260000160008373ffffffffffffffffffffffffffffffffffffffff1673ffffffffffffffffffffffffffffffffffffffff16815260200190815260200160002060009054906101000a900460ff16905092915050565b8280546200043190620008f8565b90600052602060002090601f016020900481019282620004555760008555620004a1565b82601f106200047057805160ff1916838001178555620004a1565b82800160010185558215620004a1579182015b82811115620004a057825182559160200191906001019062000483565b5b509050620004b09190620004b4565b5090565b5b80821115620004cf576000816000905550600101620004b5565b5090565b6000604051905090565b600080fd5b600080fd5b600080fd5b600080fd5b6000601f19601f8301169050919050565b7f4e487b7100000000000000000000000000000000000000000000000000000000600052604160045260246000fd5b6200053c82620004f1565b810181811067ffffffffffffffff821117156200055e576200055d62000502565b5b80604052505050565b600062000573620004d3565b905062000581828262000531565b919050565b600067ffffffffffffffff821115620005a457620005a362000502565b5b620005af82620004f1565b9050602081019050919050565b60005b83811015620005dc578082015181840152602081019050620005bf565b83811115620005ec576000848401525b50505050565b600062000609620006038462000586565b62000567565b905082815260208101848484011115620006285762000627620004ec565b5b62000635848285620005bc565b509392505050565b600082601f830112620006555762000654620004e7565b5b815162000667848260208601620005f2565b91505092915050565b600060ff82169050919050565b620006888162000670565b81146200069457600080fd5b50565b600081519050620006a8816200067d565b92915050565b600080600060608486031215620006ca57620006c9620004dd565b5b600084015167ffffffffffffffff811115620006eb57620006ea620004e2565b5b620006f9868287016200063d565b935050602084015167ffffffffffffffff8111156200071d576200071c620004e2565b5b6200072b868287016200063d565b92505060406200073e8682870162000697565b9150509250925092565b600081519050919050565b600081905092915050565b60006200076b8262000748565b62000777818562000753565b935062000789818560208601620005bc565b80840191505092915050565b6000620007a382846200075e565b915081905092915050565b600082825260208201905092915050565b7f526f6c65733a206163636f756e7420616c72656164792068617320726f6c6500600082015250565b6000620007f7601f83620007ae565b91506200080482620007bf565b602082019050919050565b600060208201905081810360008301526200082a81620007e8565b9050919050565b7f526f6c65733a206163636f756e7420697320746865207a65726f20616464726560008201527f7373000000000000000000000000000000000000000000000000000000000000602082015250565b60006200088f602283620007ae565b91506200089c8262000831565b604082019050919050565b60006020820190508181036000830152620008c28162000880565b9050919050565b7f4e487b7100000000000000000000000000000000000000000000000000000000600052602260045260246000fd5b600060028204905060018216806200091157607f821691505b60208210811415620009285762000927620008c9565b5b50919050565b6080516151bf6200094a6000396000610a6901526151bf6000f3fe608060405234801561001057600080fd5b50600436106102115760003560e01c806379cc679011610125578063aa271e1a116100ad578063da1ec2461161007c578063da1ec24614610661578063dd62ed3e14610691578063f2fde38b146106c1578063f8abd4bc146106dd578063fdec4c21146106f957610211565b8063aa271e1a146105a1578063b67f7bd4146105d1578063c0e8330e14610601578063c5a468c61461063157610211565b8063983b2d56116100f4578063983b2d56146104ea57806398650275146105065780639d22091514610510578063a457c2d714610541578063a9059cbb1461057157610211565b806379cc6790146104765780638da5cb5b146104925780639335c28f146104b057806395d89b41146104cc57610211565b806339509351116101a857806351bfb9611161017757806351bfb961146103e45780635c975abb14610402578063603dfcb51461042057806370a082311461043c578063715018a61461046c57610211565b8063395093511461034c57806340c10f191461037c57806342966c68146103ac578063445850af146103c857610211565b806323b872dd116101e457806323b872dd146102b2578063249cb3fa146102e25780633092afd514610312578063313ce5671461032e57610211565b806306fdde0314610216578063095ea7b3146102345780630f8f8b831461026457806318160ddd14610294575b600080fd5b61021e610729565b60405161022b919061357a565b60405180910390f35b61024e60048036038101906102499190613635565b6107bb565b60405161025b9190613690565b60405180910390f35b61027e600480360381019061027991906136ab565b61089a565b60405161028b91906136e7565b60405180910390f35b61029c6108fd565b6040516102a991906136e7565b60405180910390f35b6102cc60048036038101906102c79190613702565b610907565b6040516102d99190613690565b60405180910390f35b6102fc60048036038101906102f7919061378b565b6109e8565b60405161030991906137da565b60405180910390f35b61032c600480360381019061032791906136ab565b610a47565b005b610336610a65565b6040516103439190613811565b60405180910390f35b61036660048036038101906103619190613635565b610a8d565b6040516103739190613690565b60405180910390f35b61039660048036038101906103919190613635565b610ac4565b6040516103a39190613690565b60405180910390f35b6103c660048036038101906103c1919061382c565b610aec565b005b6103e260048036038101906103dd9190613859565b610bc3565b005b6103ec610d95565b6040516103f991906136e7565b60405180910390f35b61040a610d9b565b6040516104179190613690565b60405180910390f35b61043a60048036038101906104359190613899565b610db2565b005b610456600480360381019061045191906136ab565b611013565b60405161046391906136e7565b60405180910390f35b610474611025565b005b610490600480360381019061048b9190613635565b611039565b005b61049a611112565b6040516104a791906138fb565b60405180910390f35b6104ca60048036038101906104c59190613916565b61113b565b005b6104d4611586565b6040516104e1919061357a565b60405180910390f35b61050460048036038101906104ff91906136ab565b611618565b005b61050e611636565b005b61052a60048036038101906105259190613943565b611641565b6040516105389291906139aa565b60405180910390f35b61055b60048036038101906105569190613635565b6116a0565b6040516105689190613690565b60405180910390f35b61058b60048036038101906105869190613635565b611717565b6040516105989190613690565b60405180910390f35b6105bb60048036038101906105b691906136ab565b6117f6565b6040516105c89190613690565b60405180910390f35b6105eb60048036038101906105e69190613916565b611813565b6040516105f89190613a4a565b60405180910390f35b61061b60048036038101906106169190613a65565b611840565b6040516106289190613690565b60405180910390f35b61064b600480360381019061064691906136ab565b611d60565b60405161065891906136e7565b60405180910390f35b61067b60048036038101906106769190613916565b611da9565b6040516106889190613bbc565b60405180910390f35b6106ab60048036038101906106a69190613bd7565b611f31565b6040516106b891906136e7565b60405180910390f35b6106db60048036038101906106d691906136ab565b611fb8565b005b6106f760048036038101906106f29190613916565b61203c565b005b610713600480360381019061070e9190613c17565b612182565b60405161072091906137da565b60405180910390f35b60606004805461073890613cc1565b80601f016020809104026020016040519081016040528092919081815260200182805461076490613cc1565b80156107b15780601f10610786576101008083540402835291602001916107b1565b820191906000526020600020905b81548152906001019060200180831161079457829003601f168201915b5050505050905090565b6000813073ffffffffffffffffffffffffffffffffffffffff16630f8f8b83336040518263ffffffff1660e01b81526004016107f791906138fb565b60206040518083038186803b15801561080f57600080fd5b505afa158015610823573d6000803e3d6000fd5b505050506040513d601f19601f820116820180604052508101906108479190613d08565b1015610888576040517f08c379a000000000000000000000000000000000000000000000000000000000815260040161087f90613da7565b60405180910390fd5b61089283836122bb565b905092915050565b60006108f6600a60008473ffffffffffffffffffffffffffffffffffffffff1673ffffffffffffffffffffffffffffffffffffffff168152602001908152602001600020546108e8846122de565b61232790919063ffffffff16565b9050919050565b6000600354905090565b6000813073ffffffffffffffffffffffffffffffffffffffff16630f8f8b83866040518263ffffffff1660e01b815260040161094391906138fb565b60206040518083038186803b15801561095b57600080fd5b505afa15801561096f573d6000803e3d6000fd5b505050506040513d601f19601f820116820180604052508101906109939190613d08565b10156109d4576040517f08c379a00000000000000000000000000000000000000000000000000000000081526004016109cb90613da7565b60405180910390fd5b6109df84848461233d565b90509392505050565b60006007600084815260200190815260200160002060009054906101000a900460ff1615610a3c57604051602001610a1f90613e1e565b604051602081830303815290604052805190602001209050610a41565b600090505b92915050565b610a50336117f6565b610a5957600080fd5b610a628161236c565b50565b60007f0000000000000000000000000000000000000000000000000000000000000000905090565b600080610a986123c6565b9050610ab9818585610aaa8589611f31565b610ab49190613e62565b6123ce565b600191505092915050565b6000610acf336117f6565b610ad857600080fd5b610ae28383612599565b6001905092915050565b803073ffffffffffffffffffffffffffffffffffffffff16630f8f8b83336040518263ffffffff1660e01b8152600401610b2691906138fb565b60206040518083038186803b158015610b3e57600080fd5b505afa158015610b52573d6000803e3d6000fd5b505050506040513d601f19601f82011682018060405250810190610b769190613d08565b1015610bb7576040517f08c379a0000000000000000000000000000000000000000000000000000000008152600401610bae90613da7565b60405180910390fd5b610bc0816126fa565b50565b600073ffffffffffffffffffffffffffffffffffffffff166009600084815260200190815260200160002060010160009054906101000a900473ffffffffffffffffffffffffffffffffffffffff1673ffffffffffffffffffffffffffffffffffffffff161415610c69576040517f08c379a0000000000000000000000000000000000000000000000000000000008152600401610c6090613f50565b60405180910390fd5b6000801b600960008481526020019081526020016000206005015414610d5057600281604051602001610c9c9190613f91565b604051602081830303815290604052604051610cb89190613ff3565b602060405180830381855afa158015610cd5573d6000803e3d6000fd5b5050506040513d601f19601f82011682018060405250810190610cf8919061401f565b600960008481526020019081526020016000206005015414610d4f576040517f08c379a0000000000000000000000000000000000000000000000000000000008152600401610d46906140be565b60405180910390fd5b5b610d9182826009600086815260200190815260200160002060010160009054906101000a900473ffffffffffffffffffffffffffffffffffffffff1661270e565b5050565b600c5481565b6000600660009054906101000a900460ff16905090565b600073ffffffffffffffffffffffffffffffffffffffff166009600085815260200190815260200160002060010160009054906101000a900473ffffffffffffffffffffffffffffffffffffffff1673ffffffffffffffffffffffffffffffffffffffff1614610e57576040517f08c379a0000000000000000000000000000000000000000000000000000000008152600401610e4e90614176565b60405180910390fd5b600073ffffffffffffffffffffffffffffffffffffffff168173ffffffffffffffffffffffffffffffffffffffff161415610ec7576040517f08c379a0000000000000000000000000000000000000000000000000000000008152600401610ebe90614208565b60405180910390fd5b6000801b600960008581526020019081526020016000206005015414610fae57600282604051602001610efa9190613f91565b604051602081830303815290604052604051610f169190613ff3565b602060405180830381855afa158015610f33573d6000803e3d6000fd5b5050506040513d601f19601f82011682018060405250810190610f56919061401f565b600960008581526020019081526020016000206005015414610fad576040517f08c379a0000000000000000000000000000000000000000000000000000000008152600401610fa4906140be565b60405180910390fd5b5b806009600085815260200190815260200160002060010160006101000a81548173ffffffffffffffffffffffffffffffffffffffff021916908373ffffffffffffffffffffffffffffffffffffffff16021790555061100e83838361270e565b505050565b600061101e826122de565b9050919050565b61102d612b8e565b6110376000612c0c565b565b803073ffffffffffffffffffffffffffffffffffffffff16630f8f8b83336040518263ffffffff1660e01b815260040161107391906138fb565b60206040518083038186803b15801561108b57600080fd5b505afa15801561109f573d6000803e3d6000fd5b505050506040513d601f19601f820116820180604052508101906110c39190613d08565b1015611104576040517f08c379a00000000000000000000000000000000000000000000000000000000081526004016110fb90613da7565b60405180910390fd5b61110e8282612cd0565b5050565b60008060009054906101000a900473ffffffffffffffffffffffffffffffffffffffff16905090565b80600160068111156111505761114f6139d3565b5b6009600083815260200190815260200160002060060160009054906101000a900460ff166006811115611186576111856139d3565b5b14806111d95750600360068111156111a1576111a06139d3565b5b6009600083815260200190815260200160002060060160009054906101000a900460ff1660068111156111d7576111d66139d3565b5b145b611218576040517f08c379a000000000000000000000000000000000000000000000000000000000815260040161120f90614274565b60405180910390fd5b3373ffffffffffffffffffffffffffffffffffffffff166009600084815260200190815260200160002060000160009054906101000a900473ffffffffffffffffffffffffffffffffffffffff1673ffffffffffffffffffffffffffffffffffffffff16141561131e57600960008381526020019081526020016000206004015442116112da576040517f08c379a00000000000000000000000000000000000000000000000000000000081526004016112d190614306565b60405180910390fd5b60066009600084815260200190815260200160002060060160006101000a81548160ff02191690836006811115611314576113136139d3565b5b0217905550611402565b3373ffffffffffffffffffffffffffffffffffffffff166009600084815260200190815260200160002060020160009054906101000a900473ffffffffffffffffffffffffffffffffffffffff1673ffffffffffffffffffffffffffffffffffffffff16146113c2576040517f08c379a00000000000000000000000000000000000000000000000000000000081526004016113b990614398565b60405180910390fd5b60046009600084815260200190815260200160002060060160006101000a81548160ff021916908360068111156113fc576113fb6139d3565b5b02179055505b6114a06009600084815260200190815260200160002060030154600a60006009600087815260200190815260200160002060000160009054906101000a900473ffffffffffffffffffffffffffffffffffffffff1673ffffffffffffffffffffffffffffffffffffffff1673ffffffffffffffffffffffffffffffffffffffff1681526020019081526020016000205461232790919063ffffffff16565b600a60006009600086815260200190815260200160002060000160009054906101000a900473ffffffffffffffffffffffffffffffffffffffff1673ffffffffffffffffffffffffffffffffffffffff1673ffffffffffffffffffffffffffffffffffffffff168152602001908152602001600020819055506115446009600084815260200190815260200160002060030154600c5461232790919063ffffffff16565b600c81905550817f67493c41cf2a398ecd74af2c26b3ad6114f9a0b0532ea06fc327adec601511023360405161157a91906138fb565b60405180910390a25050565b60606005805461159590613cc1565b80601f01602080910402602001604051908101604052809291908181526020018280546115c190613cc1565b801561160e5780601f106115e35761010080835404028352916020019161160e565b820191906000526020600020905b8154815290600101906020018083116115f157829003601f168201915b5050505050905090565b611621336117f6565b61162a57600080fd5b61163381612cf0565b50565b61163f3361236c565b565b6000806000308686898760405160200161165f959493929190614421565b6040516020818303038152906040528051906020012090506000600b6000838152602001908152602001600020549050818193509350505094509492505050565b6000806116ab6123c6565b905060006116b98286611f31565b9050838110156116fe576040517f08c379a00000000000000000000000000000000000000000000000000000000081526004016116f5906144f2565b60405180910390fd5b61170b82868684036123ce565b60019250505092915050565b6000813073ffffffffffffffffffffffffffffffffffffffff16630f8f8b83336040518263ffffffff1660e01b815260040161175391906138fb565b60206040518083038186803b15801561176b57600080fd5b505afa15801561177f573d6000803e3d6000fd5b505050506040513d601f19601f820116820180604052508101906117a39190613d08565b10156117e4576040517f08c379a00000000000000000000000000000000000000000000000000000000081526004016117db90613da7565b60405180910390fd5b6117ee8383612d4a565b905092915050565b600061180c826008612d6d90919063ffffffff16565b9050919050565b60006009600083815260200190815260200160002060060160009054906101000a900460ff169050919050565b60008073ffffffffffffffffffffffffffffffffffffffff168573ffffffffffffffffffffffffffffffffffffffff1614156118b1576040517f08c379a00000000000000000000000000000000000000000000000000000000081526004016118a890614584565b60405180910390fd5b60008414156118f5576040517f08c379a00000000000000000000000000000000000000000000000000000000081526004016118ec90614616565b60405180910390fd5b833073ffffffffffffffffffffffffffffffffffffffff16630f8f8b83336040518263ffffffff1660e01b815260040161192f91906138fb565b60206040518083038186803b15801561194757600080fd5b505afa15801561195b573d6000803e3d6000fd5b505050506040513d601f19601f8201168201806040525081019061197f9190613d08565b10156119c0576040517f08c379a00000000000000000000000000000000000000000000000000000000081526004016119b7906146a8565b60405180910390fd5b60006119d5866119ce6123c6565b8988611641565b50905087600b60008381526020019081526020016000208190555060006006811115611a0457611a036139d3565b5b600960008a815260200190815260200160002060060160009054906101000a900460ff166006811115611a3a57611a396139d3565b5b14611a7a576040517f08c379a0000000000000000000000000000000000000000000000000000000008152600401611a7190614714565b60405180910390fd5b6040518060e001604052803373ffffffffffffffffffffffffffffffffffffffff1681526020018873ffffffffffffffffffffffffffffffffffffffff1681526020018773ffffffffffffffffffffffffffffffffffffffff16815260200186815260200185815260200184815260200160016006811115611aff57611afe6139d3565b5b815250600960008a815260200190815260200160002060008201518160000160006101000a81548173ffffffffffffffffffffffffffffffffffffffff021916908373ffffffffffffffffffffffffffffffffffffffff16021790555060208201518160010160006101000a81548173ffffffffffffffffffffffffffffffffffffffff021916908373ffffffffffffffffffffffffffffffffffffffff16021790555060408201518160020160006101000a81548173ffffffffffffffffffffffffffffffffffffffff021916908373ffffffffffffffffffffffffffffffffffffffff160217905550606082015181600301556080820151816004015560a0820151816005015560c08201518160060160006101000a81548160ff02191690836006811115611c3357611c326139d3565b5b0217905550905050611c8d85600a60003373ffffffffffffffffffffffffffffffffffffffff1673ffffffffffffffffffffffffffffffffffffffff16815260200190815260200160002054612e3590919063ffffffff16565b600a60003373ffffffffffffffffffffffffffffffffffffffff1673ffffffffffffffffffffffffffffffffffffffff16815260200190815260200160002081905550611ce585600c54612e3590919063ffffffff16565b600c819055508573ffffffffffffffffffffffffffffffffffffffff168773ffffffffffffffffffffffffffffffffffffffff16897fe978043d2c2c19e698dfa9c4c7d635cd7a872597314f9f0b7979dae393c6da7c888888604051611d4d93929190614734565b60405180910390a4509695505050505050565b6000600a60008373ffffffffffffffffffffffffffffffffffffffff1673ffffffffffffffffffffffffffffffffffffffff168152602001908152602001600020549050919050565b611db161344d565b600960008381526020019081526020016000206040518060e00160405290816000820160009054906101000a900473ffffffffffffffffffffffffffffffffffffffff1673ffffffffffffffffffffffffffffffffffffffff1673ffffffffffffffffffffffffffffffffffffffff1681526020016001820160009054906101000a900473ffffffffffffffffffffffffffffffffffffffff1673ffffffffffffffffffffffffffffffffffffffff1673ffffffffffffffffffffffffffffffffffffffff1681526020016002820160009054906101000a900473ffffffffffffffffffffffffffffffffffffffff1673ffffffffffffffffffffffffffffffffffffffff1673ffffffffffffffffffffffffffffffffffffffff1681526020016003820154815260200160048201548152602001600582015481526020016006820160009054906101000a900460ff166006811115611f1457611f136139d3565b5b6006811115611f2657611f256139d3565b5b815250509050919050565b6000600260008473ffffffffffffffffffffffffffffffffffffffff1673ffffffffffffffffffffffffffffffffffffffff16815260200190815260200160002060008373ffffffffffffffffffffffffffffffffffffffff1673ffffffffffffffffffffffffffffffffffffffff16815260200190815260200160002054905092915050565b611fc0612b8e565b600073ffffffffffffffffffffffffffffffffffffffff168173ffffffffffffffffffffffffffffffffffffffff161415612030576040517f08c379a0000000000000000000000000000000000000000000000000000000008152600401612027906147dd565b60405180910390fd5b61203981612c0c565b50565b600073ffffffffffffffffffffffffffffffffffffffff166009600083815260200190815260200160002060010160009054906101000a900473ffffffffffffffffffffffffffffffffffffffff1673ffffffffffffffffffffffffffffffffffffffff1614156120e2576040517f08c379a00000000000000000000000000000000000000000000000000000000081526004016120d990613f50565b60405180910390fd5b6000801b60096000838152602001908152602001600020600501541461213d576040517f08c379a00000000000000000000000000000000000000000000000000000000081526004016121349061486f565b60405180910390fd5b61217f8160006009600085815260200190815260200160002060010160009054906101000a900473ffffffffffffffffffffffffffffffffffffffff1661270e565b50565b6000858585858560405160200161219d95949392919061488f565b60405160208183030381529060405280519060200120905095945050505050565b600160076000836040516020016121d5919061491f565b60405160208183030381529060405280519060200120815260200190815260200160002060006101000a81548160ff02191690831515021790555050565b61221d8282612d6d565b1561225d576040517f08c379a000000000000000000000000000000000000000000000000000000000815260040161225490614982565b60405180910390fd5b60018260000160008373ffffffffffffffffffffffffffffffffffffffff1673ffffffffffffffffffffffffffffffffffffffff16815260200190815260200160002060006101000a81548160ff0219169083151502179055505050565b6000806122c66123c6565b90506122d38185856123ce565b600191505092915050565b6000600160008373ffffffffffffffffffffffffffffffffffffffff1673ffffffffffffffffffffffffffffffffffffffff168152602001908152602001600020549050919050565b6000818361233591906149a2565b905092915050565b6000806123486123c6565b9050612355858285612e4b565b612360858585612ed7565b60019150509392505050565b61238081600861315b90919063ffffffff16565b8073ffffffffffffffffffffffffffffffffffffffff167fe94479a9f7e1952cc78f2d6baab678adc1b772d936c6583def489e524cb6669260405160405180910390a250565b600033905090565b600073ffffffffffffffffffffffffffffffffffffffff168373ffffffffffffffffffffffffffffffffffffffff16141561243e576040517f08c379a000000000000000000000000000000000000000000000000000000000815260040161243590614a48565b60405180910390fd5b600073ffffffffffffffffffffffffffffffffffffffff168273ffffffffffffffffffffffffffffffffffffffff1614156124ae576040517f08c379a00000000000000000000000000000000000000000000000000000000081526004016124a590614ada565b60405180910390fd5b80600260008573ffffffffffffffffffffffffffffffffffffffff1673ffffffffffffffffffffffffffffffffffffffff16815260200190815260200160002060008473ffffffffffffffffffffffffffffffffffffffff1673ffffffffffffffffffffffffffffffffffffffff168152602001908152602001600020819055508173ffffffffffffffffffffffffffffffffffffffff168373ffffffffffffffffffffffffffffffffffffffff167f8c5be1e5ebec7d5bd14f71427d1e84f3dd0314c0f7b2291e5b200ac8c7c3b9258360405161258c91906136e7565b60405180910390a3505050565b600073ffffffffffffffffffffffffffffffffffffffff168273ffffffffffffffffffffffffffffffffffffffff161415612609576040517f08c379a000000000000000000000000000000000000000000000000000000000815260040161260090614b46565b60405180910390fd5b61261560008383613202565b80600360008282546126279190613e62565b9250508190555080600160008473ffffffffffffffffffffffffffffffffffffffff1673ffffffffffffffffffffffffffffffffffffffff168152602001908152602001600020600082825461267d9190613e62565b925050819055508173ffffffffffffffffffffffffffffffffffffffff16600073ffffffffffffffffffffffffffffffffffffffff167fddf252ad1be2c89b69c2b068fc378daa952ba7f163c4a11628f55a4df523b3ef836040516126e291906136e7565b60405180910390a36126f660008383613212565b5050565b61270b6127056123c6565b82613217565b50565b8260016006811115612723576127226139d3565b5b6009600083815260200190815260200160002060060160009054906101000a900460ff166006811115612759576127586139d3565b5b14806127ac575060036006811115612774576127736139d3565b5b6009600083815260200190815260200160002060060160009054906101000a900460ff1660068111156127aa576127a96139d3565b5b145b6127eb576040517f08c379a00000000000000000000000000000000000000000000000000000000081526004016127e290614274565b60405180910390fd5b3373ffffffffffffffffffffffffffffffffffffffff166009600086815260200190815260200160002060020160009054906101000a900473ffffffffffffffffffffffffffffffffffffffff1673ffffffffffffffffffffffffffffffffffffffff161461288f576040517f08c379a000000000000000000000000000000000000000000000000000000000815260040161288690614bd8565b60405180910390fd5b6128e66009600086815260200190815260200160002060000160009054906101000a900473ffffffffffffffffffffffffffffffffffffffff16836009600088815260200190815260200160002060030154612ed7565b60026009600086815260200190815260200160002060060160006101000a81548160ff021916908360068111156129205761291f6139d3565b5b02179055506129c36009600086815260200190815260200160002060030154600a60006009600089815260200190815260200160002060000160009054906101000a900473ffffffffffffffffffffffffffffffffffffffff1673ffffffffffffffffffffffffffffffffffffffff1673ffffffffffffffffffffffffffffffffffffffff1681526020019081526020016000205461232790919063ffffffff16565b600a60006009600088815260200190815260200160002060000160009054906101000a900473ffffffffffffffffffffffffffffffffffffffff1673ffffffffffffffffffffffffffffffffffffffff1673ffffffffffffffffffffffffffffffffffffffff16815260200190815260200160002081905550612a676009600086815260200190815260200160002060030154600c5461232790919063ffffffff16565b600c819055506000612b336009600087815260200190815260200160002060020160009054906101000a900473ffffffffffffffffffffffffffffffffffffffff166009600088815260200190815260200160002060000160009054906101000a900473ffffffffffffffffffffffffffffffffffffffff166009600089815260200190815260200160002060010160009054906101000a900473ffffffffffffffffffffffffffffffffffffffff16600960008a815260200190815260200160002060030154611641565b509050600b600082815260200190815260200160002060009055847fc6d1a93a7a047b3f030e0a63b85e07ff5741659917295090572c23834d53281d8585604051612b7f929190614bf8565b60405180910390a25050505050565b612b966123c6565b73ffffffffffffffffffffffffffffffffffffffff16612bb4611112565b73ffffffffffffffffffffffffffffffffffffffff1614612c0a576040517f08c379a0000000000000000000000000000000000000000000000000000000008152600401612c0190614c6d565b60405180910390fd5b565b60008060009054906101000a900473ffffffffffffffffffffffffffffffffffffffff169050816000806101000a81548173ffffffffffffffffffffffffffffffffffffffff021916908373ffffffffffffffffffffffffffffffffffffffff1602179055508173ffffffffffffffffffffffffffffffffffffffff168173ffffffffffffffffffffffffffffffffffffffff167f8be0079c531659141344cd1fd0a4f28419497f9722a3daafe3b4186f6b6457e060405160405180910390a35050565b612ce282612cdc6123c6565b83612e4b565b612cec8282613217565b5050565b612d0481600861221390919063ffffffff16565b8073ffffffffffffffffffffffffffffffffffffffff167f6ae172837ea30b801fbfcdd4108aa1d5bf8ff775444fd70256b44e6bf3dfc3f660405160405180910390a250565b600080612d556123c6565b9050612d62818585612ed7565b600191505092915050565b60008073ffffffffffffffffffffffffffffffffffffffff168273ffffffffffffffffffffffffffffffffffffffff161415612dde576040517f08c379a0000000000000000000000000000000000000000000000000000000008152600401612dd590614cff565b60405180910390fd5b8260000160008373ffffffffffffffffffffffffffffffffffffffff1673ffffffffffffffffffffffffffffffffffffffff16815260200190815260200160002060009054906101000a900460ff16905092915050565b60008183612e439190613e62565b905092915050565b6000612e578484611f31565b90507fffffffffffffffffffffffffffffffffffffffffffffffffffffffffffffffff8114612ed15781811015612ec3576040517f08c379a0000000000000000000000000000000000000000000000000000000008152600401612eba90614d6b565b60405180910390fd5b612ed084848484036123ce565b5b50505050565b600073ffffffffffffffffffffffffffffffffffffffff168373ffffffffffffffffffffffffffffffffffffffff161415612f47576040517f08c379a0000000000000000000000000000000000000000000000000000000008152600401612f3e90614dfd565b60405180910390fd5b600073ffffffffffffffffffffffffffffffffffffffff168273ffffffffffffffffffffffffffffffffffffffff161415612fb7576040517f08c379a0000000000000000000000000000000000000000000000000000000008152600401612fae90614e8f565b60405180910390fd5b612fc2838383613202565b6000600160008573ffffffffffffffffffffffffffffffffffffffff1673ffffffffffffffffffffffffffffffffffffffff16815260200190815260200160002054905081811015613049576040517f08c379a000000000000000000000000000000000000000000000000000000000815260040161304090614f21565b60405180910390fd5b818103600160008673ffffffffffffffffffffffffffffffffffffffff1673ffffffffffffffffffffffffffffffffffffffff1681526020019081526020016000208190555081600160008573ffffffffffffffffffffffffffffffffffffffff1673ffffffffffffffffffffffffffffffffffffffff16815260200190815260200160002060008282546130de9190613e62565b925050819055508273ffffffffffffffffffffffffffffffffffffffff168473ffffffffffffffffffffffffffffffffffffffff167fddf252ad1be2c89b69c2b068fc378daa952ba7f163c4a11628f55a4df523b3ef8460405161314291906136e7565b60405180910390a3613155848484613212565b50505050565b6131658282612d6d565b6131a4576040517f08c379a000000000000000000000000000000000000000000000000000000000815260040161319b90614fb3565b60405180910390fd5b60008260000160008373ffffffffffffffffffffffffffffffffffffffff1673ffffffffffffffffffffffffffffffffffffffff16815260200190815260200160002060006101000a81548160ff0219169083151502179055505050565b61320d8383836133f0565b505050565b505050565b600073ffffffffffffffffffffffffffffffffffffffff168273ffffffffffffffffffffffffffffffffffffffff161415613287576040517f08c379a000000000000000000000000000000000000000000000000000000000815260040161327e90615045565b60405180910390fd5b61329382600083613202565b6000600160008473ffffffffffffffffffffffffffffffffffffffff1673ffffffffffffffffffffffffffffffffffffffff1681526020019081526020016000205490508181101561331a576040517f08c379a0000000000000000000000000000000000000000000000000000000008152600401613311906150d7565b60405180910390fd5b818103600160008573ffffffffffffffffffffffffffffffffffffffff1673ffffffffffffffffffffffffffffffffffffffff16815260200190815260200160002081905550816003600082825461337291906149a2565b92505081905550600073ffffffffffffffffffffffffffffffffffffffff168373ffffffffffffffffffffffffffffffffffffffff167fddf252ad1be2c89b69c2b068fc378daa952ba7f163c4a11628f55a4df523b3ef846040516133d791906136e7565b60405180910390a36133eb83600084613212565b505050565b6133fb838383613448565b613403610d9b565b15613443576040517f08c379a000000000000000000000000000000000000000000000000000000000815260040161343a90615169565b60405180910390fd5b505050565b505050565b6040518060e00160405280600073ffffffffffffffffffffffffffffffffffffffff168152602001600073ffffffffffffffffffffffffffffffffffffffff168152602001600073ffffffffffffffffffffffffffffffffffffffff168152602001600081526020016000815260200160008019168152602001600060068111156134db576134da6139d3565b5b81525090565b600081519050919050565b600082825260208201905092915050565b60005b8381101561351b578082015181840152602081019050613500565b8381111561352a576000848401525b50505050565b6000601f19601f8301169050919050565b600061354c826134e1565b61355681856134ec565b93506135668185602086016134fd565b61356f81613530565b840191505092915050565b600060208201905081810360008301526135948184613541565b905092915050565b600080fd5b600073ffffffffffffffffffffffffffffffffffffffff82169050919050565b60006135cc826135a1565b9050919050565b6135dc816135c1565b81146135e757600080fd5b50565b6000813590506135f9816135d3565b92915050565b6000819050919050565b613612816135ff565b811461361d57600080fd5b50565b60008135905061362f81613609565b92915050565b6000806040838503121561364c5761364b61359c565b5b600061365a858286016135ea565b925050602061366b85828601613620565b9150509250929050565b60008115159050919050565b61368a81613675565b82525050565b60006020820190506136a56000830184613681565b92915050565b6000602082840312156136c1576136c061359c565b5b60006136cf848285016135ea565b91505092915050565b6136e1816135ff565b82525050565b60006020820190506136fc60008301846136d8565b92915050565b60008060006060848603121561371b5761371a61359c565b5b6000613729868287016135ea565b935050602061373a868287016135ea565b925050604061374b86828701613620565b9150509250925092565b6000819050919050565b61376881613755565b811461377357600080fd5b50565b6000813590506137858161375f565b92915050565b600080604083850312156137a2576137a161359c565b5b60006137b085828601613776565b92505060206137c1858286016135ea565b9150509250929050565b6137d481613755565b82525050565b60006020820190506137ef60008301846137cb565b92915050565b600060ff82169050919050565b61380b816137f5565b82525050565b60006020820190506138266000830184613802565b92915050565b6000602082840312156138425761384161359c565b5b600061385084828501613620565b91505092915050565b600080604083850312156138705761386f61359c565b5b600061387e85828601613776565b925050602061388f85828601613776565b9150509250929050565b6000806000606084860312156138b2576138b161359c565b5b60006138c086828701613776565b93505060206138d186828701613776565b92505060406138e2868287016135ea565b9150509250925092565b6138f5816135c1565b82525050565b600060208201905061391060008301846138ec565b92915050565b60006020828403121561392c5761392b61359c565b5b600061393a84828501613776565b91505092915050565b6000806000806080858703121561395d5761395c61359c565b5b600061396b878288016135ea565b945050602061397c878288016135ea565b935050604061398d878288016135ea565b925050606061399e87828801613620565b91505092959194509250565b60006040820190506139bf60008301856137cb565b6139cc60208301846137cb565b9392505050565b7f4e487b7100000000000000000000000000000000000000000000000000000000600052602160045260246000fd5b60078110613a1357613a126139d3565b5b50565b6000819050613a2482613a02565b919050565b6000613a3482613a16565b9050919050565b613a4481613a29565b82525050565b6000602082019050613a5f6000830184613a3b565b92915050565b60008060008060008060c08789031215613a8257613a8161359c565b5b6000613a9089828a01613776565b9650506020613aa189828a016135ea565b9550506040613ab289828a016135ea565b9450506060613ac389828a01613620565b9350506080613ad489828a01613620565b92505060a0613ae589828a01613776565b9150509295509295509295565b613afb816135c1565b82525050565b613b0a816135ff565b82525050565b613b1981613755565b82525050565b613b2881613a29565b82525050565b60e082016000820151613b446000850182613af2565b506020820151613b576020850182613af2565b506040820151613b6a6040850182613af2565b506060820151613b7d6060850182613b01565b506080820151613b906080850182613b01565b5060a0820151613ba360a0850182613b10565b5060c0820151613bb660c0850182613b1f565b50505050565b600060e082019050613bd16000830184613b2e565b92915050565b60008060408385031215613bee57613bed61359c565b5b6000613bfc858286016135ea565b9250506020613c0d858286016135ea565b9150509250929050565b600080600080600060a08688031215613c3357613c3261359c565b5b6000613c41888289016135ea565b9550506020613c52888289016135ea565b9450506040613c6388828901613620565b9350506060613c7488828901613620565b9250506080613c8588828901613776565b9150509295509295909350565b7f4e487b7100000000000000000000000000000000000000000000000000000000600052602260045260246000fd5b60006002820490506001821680613cd957607f821691505b60208210811415613ced57613cec613c92565b5b50919050565b600081519050613d0281613609565b92915050565b600060208284031215613d1e57613d1d61359c565b5b6000613d2c84828501613cf3565b91505092915050565b7f486f6c6461626c65546f6b656e3a20616d6f756e74206578636565647320617660008201527f61696c61626c652062616c616e63650000000000000000000000000000000000602082015250565b6000613d91602f836134ec565b9150613d9c82613d35565b604082019050919050565b60006020820190508181036000830152613dc081613d84565b9050919050565b600081905092915050565b7f455243313832305f4143434550545f4d41474943000000000000000000000000600082015250565b6000613e08601483613dc7565b9150613e1382613dd2565b601482019050919050565b6000613e2982613dfb565b9150819050919050565b7f4e487b7100000000000000000000000000000000000000000000000000000000600052601160045260246000fd5b6000613e6d826135ff565b9150613e78836135ff565b9250827fffffffffffffffffffffffffffffffffffffffffffffffffffffffffffffffff03821115613ead57613eac613e33565b5b828201905092915050565b7f65786563757465486f6c643a206d75737420706173732074686520726563697060008201527f69656e74206f6e20657865637574696f6e20617320746865207265636970696560208201527f6e7420776173206e6f7420736574206f6e20686f6c6400000000000000000000604082015250565b6000613f3a6056836134ec565b9150613f4582613eb8565b606082019050919050565b60006020820190508181036000830152613f6981613f2d565b9050919050565b6000819050919050565b613f8b613f8682613755565b613f70565b82525050565b6000613f9d8284613f7a565b60208201915081905092915050565b600081519050919050565b600081905092915050565b6000613fcd82613fac565b613fd78185613fb7565b9350613fe78185602086016134fd565b80840191505092915050565b6000613fff8284613fc2565b915081905092915050565b6000815190506140198161375f565b92915050565b6000602082840312156140355761403461359c565b5b60006140438482850161400a565b91505092915050565b7f65786563757465486f6c643a20707265696d616765206861736820646f65732060008201527f6e6f74206d61746368206c6f636b206861736800000000000000000000000000602082015250565b60006140a86033836134ec565b91506140b38261404c565b604082019050919050565b600060208201905081810360008301526140d78161409b565b9050919050565b7f65786563757465486f6c643a2063616e206e6f7420736574206120726563697060008201527f69656e74206f6e20657865637574696f6e20617320697420776173207365742060208201527f6f6e20686f6c6400000000000000000000000000000000000000000000000000604082015250565b60006141606047836134ec565b915061416b826140de565b606082019050919050565b6000602082019050818103600083015261418f81614153565b9050919050565b7f65786563757465486f6c643a20726563697069656e74206d757374206e6f742060008201527f62652061207a65726f2061646472657373000000000000000000000000000000602082015250565b60006141f26031836134ec565b91506141fd82614196565b604082019050919050565b60006020820190508181036000830152614221816141e5565b9050919050565b7f486f6c64206973206e6f7420696e204f72646572656420737461747573000000600082015250565b600061425e601d836134ec565b915061426982614228565b602082019050919050565b6000602082019050818103600083015261428d81614251565b9050919050565b7f72656c65617365486f6c643a2063616e206f6e6c792072656c6561736520616660008201527f746572207468652065787069726174696f6e20646174652e0000000000000000602082015250565b60006142f06038836134ec565b91506142fb82614294565b604082019050919050565b6000602082019050818103600083015261431f816142e3565b9050919050565b7f72656c65617365486f6c643a2063616c6c6572206d757374206265207468652060008201527f686f6c642073656e646572206f72206e6f746172792e00000000000000000000602082015250565b60006143826036836134ec565b915061438d82614326565b604082019050919050565b600060208201905081810360008301526143b181614375565b9050919050565b60008160601b9050919050565b60006143d0826143b8565b9050919050565b60006143e2826143c5565b9050919050565b6143fa6143f5826135c1565b6143d7565b82525050565b6000819050919050565b61441b614416826135ff565b614400565b82525050565b600061442d82886143e9565b60148201915061443d82876143e9565b60148201915061444d82866143e9565b60148201915061445d82856143e9565b60148201915061446d828461440a565b6020820191508190509695505050505050565b7f45524332303a2064656372656173656420616c6c6f77616e63652062656c6f7760008201527f207a65726f000000000000000000000000000000000000000000000000000000602082015250565b60006144dc6025836134ec565b91506144e782614480565b604082019050919050565b6000602082019050818103600083015261450b816144cf565b9050919050565b7f686f6c643a206e6f74617279206d757374206e6f742062652061207a65726f2060008201527f6164647265737300000000000000000000000000000000000000000000000000602082015250565b600061456e6027836134ec565b915061457982614512565b604082019050919050565b6000602082019050818103600083015261459d81614561565b9050919050565b7f686f6c643a20616d6f756e74206d75737420626520677265617465722074686160008201527f6e207a65726f0000000000000000000000000000000000000000000000000000602082015250565b60006146006026836134ec565b915061460b826145a4565b604082019050919050565b6000602082019050818103600083015261462f816145f3565b9050919050565b7f686f6c643a20616d6f756e74206578636565647320617661696c61626c65206260008201527f616c616e63650000000000000000000000000000000000000000000000000000602082015250565b60006146926026836134ec565b915061469d82614636565b604082019050919050565b600060208201905081810360008301526146c181614685565b9050919050565b7f686f6c643a20696420616c726561647920657869737473000000000000000000600082015250565b60006146fe6017836134ec565b9150614709826146c8565b602082019050919050565b6000602082019050818103600083015261472d816146f1565b9050919050565b600060608201905061474960008301866136d8565b61475660208301856136d8565b61476360408301846137cb565b949350505050565b7f4f776e61626c653a206e6577206f776e657220697320746865207a65726f206160008201527f6464726573730000000000000000000000000000000000000000000000000000602082015250565b60006147c76026836134ec565b91506147d28261476b565b604082019050919050565b600060208201905081810360008301526147f6816147ba565b9050919050565b7f65786563757465486f6c643a206e65656420707265696d61676520696620746860008201527f6520686f6c64206861732061206c6f636b206861736800000000000000000000602082015250565b60006148596036836134ec565b9150614864826147fd565b604082019050919050565b600060208201905081810360008301526148888161484c565b9050919050565b600061489b82886143e9565b6014820191506148ab82876143e9565b6014820191506148bb828661440a565b6020820191506148cb828561440a565b6020820191506148db8284613f7a565b6020820191508190509695505050505050565b60006148f9826134e1565b6149038185613dc7565b93506149138185602086016134fd565b80840191505092915050565b600061492b82846148ee565b915081905092915050565b7f526f6c65733a206163636f756e7420616c72656164792068617320726f6c6500600082015250565b600061496c601f836134ec565b915061497782614936565b602082019050919050565b6000602082019050818103600083015261499b8161495f565b9050919050565b60006149ad826135ff565b91506149b8836135ff565b9250828210156149cb576149ca613e33565b5b828203905092915050565b7f45524332303a20617070726f76652066726f6d20746865207a65726f2061646460008201527f7265737300000000000000000000000000000000000000000000000000000000602082015250565b6000614a326024836134ec565b9150614a3d826149d6565b604082019050919050565b60006020820190508181036000830152614a6181614a25565b9050919050565b7f45524332303a20617070726f766520746f20746865207a65726f20616464726560008201527f7373000000000000000000000000000000000000000000000000000000000000602082015250565b6000614ac46022836134ec565b9150614acf82614a68565b604082019050919050565b60006020820190508181036000830152614af381614ab7565b9050919050565b7f45524332303a206d696e7420746f20746865207a65726f206164647265737300600082015250565b6000614b30601f836134ec565b9150614b3b82614afa565b602082019050919050565b60006020820190508181036000830152614b5f81614b23565b9050919050565b7f65786563757465486f6c643a2063616c6c6572206d757374206265207468652060008201527f686f6c64206e6f74617279000000000000000000000000000000000000000000602082015250565b6000614bc2602b836134ec565b9150614bcd82614b66565b604082019050919050565b60006020820190508181036000830152614bf181614bb5565b9050919050565b6000604082019050614c0d60008301856137cb565b614c1a60208301846138ec565b9392505050565b7f4f776e61626c653a2063616c6c6572206973206e6f7420746865206f776e6572600082015250565b6000614c576020836134ec565b9150614c6282614c21565b602082019050919050565b60006020820190508181036000830152614c8681614c4a565b9050919050565b7f526f6c65733a206163636f756e7420697320746865207a65726f20616464726560008201527f7373000000000000000000000000000000000000000000000000000000000000602082015250565b6000614ce96022836134ec565b9150614cf482614c8d565b604082019050919050565b60006020820190508181036000830152614d1881614cdc565b9050919050565b7f45524332303a20696e73756666696369656e7420616c6c6f77616e6365000000600082015250565b6000614d55601d836134ec565b9150614d6082614d1f565b602082019050919050565b60006020820190508181036000830152614d8481614d48565b9050919050565b7f45524332303a207472616e736665722066726f6d20746865207a65726f20616460008201527f6472657373000000000000000000000000000000000000000000000000000000602082015250565b6000614de76025836134ec565b9150614df282614d8b565b604082019050919050565b60006020820190508181036000830152614e1681614dda565b9050919050565b7f45524332303a207472616e7366657220746f20746865207a65726f206164647260008201527f6573730000000000000000000000000000000000000000000000000000000000602082015250565b6000614e796023836134ec565b9150614e8482614e1d565b604082019050919050565b60006020820190508181036000830152614ea881614e6c565b9050919050565b7f45524332303a207472616e7366657220616d6f756e742065786365656473206260008201527f616c616e63650000000000000000000000000000000000000000000000000000602082015250565b6000614f0b6026836134ec565b9150614f1682614eaf565b604082019050919050565b60006020820190508181036000830152614f3a81614efe565b9050919050565b7f526f6c65733a206163636f756e7420646f6573206e6f74206861766520726f6c60008201527f6500000000000000000000000000000000000000000000000000000000000000602082015250565b6000614f9d6021836134ec565b9150614fa882614f41565b604082019050919050565b60006020820190508181036000830152614fcc81614f90565b9050919050565b7f45524332303a206275726e2066726f6d20746865207a65726f2061646472657360008201527f7300000000000000000000000000000000000000000000000000000000000000602082015250565b600061502f6021836134ec565b915061503a82614fd3565b604082019050919050565b6000602082019050818103600083015261505e81615022565b9050919050565b7f45524332303a206275726e20616d6f756e7420657863656564732062616c616e60008201527f6365000000000000000000000000000000000000000000000000000000000000602082015250565b60006150c16022836134ec565b91506150cc82615065565b604082019050919050565b600060208201905081810360008301526150f0816150b4565b9050919050565b7f45524332305061757361626c653a20746f6b656e207472616e7366657220776860008201527f696c652070617573656400000000000000000000000000000000000000000000602082015250565b6000615153602a836134ec565b915061515e826150f7565b604082019050919050565b6000602082019050818103600083015261518281615146565b905091905056fea26469706673582212200347e93eddd85d8f1ad080a8bb87d19c5ada18018aa1b11e96d950b672fc120564736f6c63430008090033",
  "linkReferences": {},
  "deployedLinkReferences": {}
}