{
  "_format": "hh-sol-artifact-1",
  "contractName": "ERC1820Implementer",
  "sourceName": "contracts/interface/ERC1820Implementer.sol",
  "abi": [
    {
      "inputs": [
        {
          "internalType": "bytes32",
          "name": "interfaceHash",
          "type": "bytes32"
        },
        {
          "internalType": "address",
          "name": "",
          "type": "address"
        }
      ],
      "name": "canImplementInterfaceForAddress",
      "outputs": [
        {
          "internalType": "bytes32",
          "name": "",
          "type": "bytes32"
        }
      ],
      "stateMutability": "view",
      "type": "function"
    }
  ],
  "bytecode": "0x608060405234801561001057600080fd5b50610263806100206000396000f3fe608060405234801561001057600080fd5b506004361061002b5760003560e01c8063249cb3fa14610030575b600080fd5b61004a60048036038101906100459190610157565b610060565b60405161005791906101a6565b60405180910390f35b600080600084815260200190815260200160002060009054906101000a900460ff16156100b35760405160200161009690610218565b6040516020818303038152906040528051906020012090506100b8565b600090505b92915050565b600080fd5b6000819050919050565b6100d6816100c3565b81146100e157600080fd5b50565b6000813590506100f3816100cd565b92915050565b600073ffffffffffffffffffffffffffffffffffffffff82169050919050565b6000610124826100f9565b9050919050565b61013481610119565b811461013f57600080fd5b50565b6000813590506101518161012b565b92915050565b6000806040838503121561016e5761016d6100be565b5b600061017c858286016100e4565b925050602061018d85828601610142565b9150509250929050565b6101a0816100c3565b82525050565b60006020820190506101bb6000830184610197565b92915050565b600081905092915050565b7f455243313832305f4143434550545f4d41474943000000000000000000000000600082015250565b60006102026014836101c1565b915061020d826101cc565b601482019050919050565b6000610223826101f5565b915081905091905056fea26469706673582212208b48b733ddfc558d298791886a818f0bf9b89a03eeb65171edf3d4e2027aeefe64736f6c63430008090033",
  "linkReferences": {},
  "deployedLinkReferences": {}
}