{
  "_format": "hh-sol-artifact-1",
  "contractName": "ERC721Token",
  "sourceName": "contracts/tokens/ERC721Token.sol",
  "abi": [
    {
      "inputs": [
        {
          "internalType": "string",
          "name": "name",
          "type": "string"
        },
        {
          "internalType": "string",
          "name": "symbol",
          "type": "string"
        },
        {
          "internalType": "string",
          "name": "baseUri",
          "type": "string"
        },
        {
          "internalType": "string",
          "name": "contractUri",
          "type": "string"
        }
      ],
      "stateMutability": "nonpayable",
      "type": "constructor"
    },
    {
      "anonymous": false,
      "inputs": [
        {
          "indexed": true,
          "internalType": "address",
          "name": "owner",
          "type": "address"
        },
        {
          "indexed": true,
          "internalType": "address",
          "name": "approved",
          "type": "address"
        },
        {
          "indexed": true,
          "internalType": "uint256",
          "name": "tokenId",
          "type": "uint256"
        }
      ],
      "name": "Approval",
      "type": "event"
    },
    {
      "anonymous": false,
      "inputs": [
        {
          "indexed": true,
          "internalType": "address",
          "name": "owner",
          "type": "address"
        },
        {
          "indexed": true,
          "internalType": "address",
          "name": "operator",
          "type": "address"
        },
        {
          "indexed": false,
          "internalType": "bool",
          "name": "approved",
          "type": "bool"
        }
      ],
      "name": "ApprovalForAll",
      "type": "event"
    },
    {
      "anonymous": false,
      "inputs": [
        {
          "indexed": true,
          "internalType": "address",
          "name": "account",
          "type": "address"
        }
      ],
      "name": "MinterAdded",
      "type": "event"
    },
    {
      "anonymous": false,
      "inputs": [
        {
          "indexed": true,
          "internalType": "address",
          "name": "account",
          "type": "address"
        }
      ],
      "name": "MinterRemoved",
      "type": "event"
    },
    {
      "anonymous": false,
      "inputs": [
        {
          "indexed": true,
          "internalType": "address",
          "name": "previousOwner",
          "type": "address"
        },
        {
          "indexed": true,
          "internalType": "address",
          "name": "newOwner",
          "type": "address"
        }
      ],
      "name": "OwnershipTransferred",
      "type": "event"
    },
    {
      "anonymous": false,
      "inputs": [
        {
          "indexed": false,
          "internalType": "address",
          "name": "account",
          "type": "address"
        }
      ],
      "name": "Paused",
      "type": "event"
    },
    {
      "anonymous": false,
      "inputs": [
        {
          "indexed": true,
          "internalType": "bytes32",
          "name": "role",
          "type": "bytes32"
        },
        {
          "indexed": true,
          "internalType": "bytes32",
          "name": "previousAdminRole",
          "type": "bytes32"
        },
        {
          "indexed": true,
          "internalType": "bytes32",
          "name": "newAdminRole",
          "type": "bytes32"
        }
      ],
      "name": "RoleAdminChanged",
      "type": "event"
    },
    {
      "anonymous": false,
      "inputs": [
        {
          "indexed": true,
          "internalType": "bytes32",
          "name": "role",
          "type": "bytes32"
        },
        {
          "indexed": true,
          "internalType": "address",
          "name": "account",
          "type": "address"
        },
        {
          "indexed": true,
          "internalType": "address",
          "name": "sender",
          "type": "address"
        }
      ],
      "name": "RoleGranted",
      "type": "event"
    },
    {
      "anonymous": false,
      "inputs": [
        {
          "indexed": true,
          "internalType": "bytes32",
          "name": "role",
          "type": "bytes32"
        },
        {
          "indexed": true,
          "internalType": "address",
          "name": "account",
          "type": "address"
        },
        {
          "indexed": true,
          "internalType": "address",
          "name": "sender",
          "type": "address"
        }
      ],
      "name": "RoleRevoked",
      "type": "event"
    },
    {
      "anonymous": false,
      "inputs": [
        {
          "indexed": true,
          "internalType": "address",
          "name": "from",
          "type": "address"
        },
        {
          "indexed": true,
          "internalType": "address",
          "name": "to",
          "type": "address"
        },
        {
          "indexed": true,
          "internalType": "uint256",
          "name": "tokenId",
          "type": "uint256"
        }
      ],
      "name": "Transfer",
      "type": "event"
    },
    {
      "anonymous": false,
      "inputs": [
        {
          "indexed": false,
          "internalType": "address",
          "name": "account",
          "type": "address"
        }
      ],
      "name": "Unpaused",
      "type": "event"
    },
    {
      "inputs": [],
      "name": "DEFAULT_ADMIN_ROLE",
      "outputs": [
        {
          "internalType": "bytes32",
          "name": "",
          "type": "bytes32"
        }
      ],
      "stateMutability": "view",
      "type": "function"
    },
    {
      "inputs": [
        {
          "internalType": "address",
          "name": "account",
          "type": "address"
        }
      ],
      "name": "addMinter",
      "outputs": [],
      "stateMutability": "nonpayable",
      "type": "function"
    },
    {
      "inputs": [
        {
          "internalType": "address",
          "name": "to",
          "type": "address"
        },
        {
          "internalType": "uint256",
          "name": "tokenId",
          "type": "uint256"
        }
      ],
      "name": "approve",
      "outputs": [],
      "stateMutability": "nonpayable",
      "type": "function"
    },
    {
      "inputs": [
        {
          "internalType": "address",
          "name": "owner",
          "type": "address"
        }
      ],
      "name": "balanceOf",
      "outputs": [
        {
          "internalType": "uint256",
          "name": "",
          "type": "uint256"
        }
      ],
      "stateMutability": "view",
      "type": "function"
    },
    {
      "inputs": [
        {
          "internalType": "uint256",
          "name": "tokenId",
          "type": "uint256"
        }
      ],
      "name": "burn",
      "outputs": [],
      "stateMutability": "nonpayable",
      "type": "function"
    },
    {
      "inputs": [
        {
          "internalType": "bytes32",
          "name": "interfaceHash",
          "type": "bytes32"
        },
        {
          "internalType": "address",
          "name": "",
          "type": "address"
        }
      ],
      "name": "canImplementInterfaceForAddress",
      "outputs": [
        {
          "internalType": "bytes32",
          "name": "",
          "type": "bytes32"
        }
      ],
      "stateMutability": "view",
      "type": "function"
    },
    {
      "inputs": [],
      "name": "contractURI",
      "outputs": [
        {
          "internalType": "string",
          "name": "",
          "type": "string"
        }
      ],
      "stateMutability": "view",
      "type": "function"
    },
    {
      "inputs": [
        {
          "internalType": "uint256",
          "name": "tokenId",
          "type": "uint256"
        }
      ],
      "name": "getApproved",
      "outputs": [
        {
          "internalType": "address",
          "name": "",
          "type": "address"
        }
      ],
      "stateMutability": "view",
      "type": "function"
    },
    {
      "inputs": [
        {
          "internalType": "bytes32",
          "name": "role",
          "type": "bytes32"
        }
      ],
      "name": "getRoleAdmin",
      "outputs": [
        {
          "internalType": "bytes32",
          "name": "",
          "type": "bytes32"
        }
      ],
      "stateMutability": "view",
      "type": "function"
    },
    {
      "inputs": [
        {
          "internalType": "bytes32",
          "name": "role",
          "type": "bytes32"
        },
        {
          "internalType": "uint256",
          "name": "index",
          "type": "uint256"
        }
      ],
      "name": "getRoleMember",
      "outputs": [
        {
          "internalType": "address",
          "name": "",
          "type": "address"
        }
      ],
      "stateMutability": "view",
      "type": "function"
    },
    {
      "inputs": [
        {
          "internalType": "bytes32",
          "name": "role",
          "type": "bytes32"
        }
      ],
      "name": "getRoleMemberCount",
      "outputs": [
        {
          "internalType": "uint256",
          "name": "",
          "type": "uint256"
        }
      ],
      "stateMutability": "view",
      "type": "function"
    },
    {
      "inputs": [
        {
          "internalType": "bytes32",
          "name": "role",
          "type": "bytes32"
        },
        {
          "internalType": "address",
          "name": "account",
          "type": "address"
        }
      ],
      "name": "grantRole",
      "outputs": [],
      "stateMutability": "nonpayable",
      "type": "function"
    },
    {
      "inputs": [
        {
          "internalType": "bytes32",
          "name": "role",
          "type": "bytes32"
        },
        {
          "internalType": "address",
          "name": "account",
          "type": "address"
        }
      ],
      "name": "hasRole",
      "outputs": [
        {
          "internalType": "bool",
          "name": "",
          "type": "bool"
        }
      ],
      "stateMutability": "view",
      "type": "function"
    },
    {
      "inputs": [
        {
          "internalType": "address",
          "name": "owner",
          "type": "address"
        },
        {
          "internalType": "address",
          "name": "operator",
          "type": "address"
        }
      ],
      "name": "isApprovedForAll",
      "outputs": [
        {
          "internalType": "bool",
          "name": "",
          "type": "bool"
        }
      ],
      "stateMutability": "view",
      "type": "function"
    },
    {
      "inputs": [
        {
          "internalType": "address",
          "name": "account",
          "type": "address"
        }
      ],
      "name": "isMinter",
      "outputs": [
        {
          "internalType": "bool",
          "name": "",
          "type": "bool"
        }
      ],
      "stateMutability": "view",
      "type": "function"
    },
    {
      "inputs": [
        {
          "internalType": "address",
          "name": "to",
          "type": "address"
        },
        {
          "internalType": "uint256",
          "name": "tokenId",
          "type": "uint256"
        }
      ],
      "name": "mint",
      "outputs": [
        {
          "internalType": "bool",
          "name": "",
          "type": "bool"
        }
      ],
      "stateMutability": "nonpayable",
      "type": "function"
    },
    {
      "inputs": [
        {
          "internalType": "address",
          "name": "to",
          "type": "address"
        },
        {
          "internalType": "uint256",
          "name": "tokenId",
          "type": "uint256"
        },
        {
          "internalType": "string",
          "name": "uri",
          "type": "string"
        }
      ],
      "name": "mintAndSetTokenURI",
      "outputs": [
        {
          "internalType": "bool",
          "name": "",
          "type": "bool"
        }
      ],
      "stateMutability": "nonpayable",
      "type": "function"
    },
    {
      "inputs": [],
      "name": "name",
      "outputs": [
        {
          "internalType": "string",
          "name": "",
          "type": "string"
        }
      ],
      "stateMutability": "view",
      "type": "function"
    },
    {
      "inputs": [],
      "name": "owner",
      "outputs": [
        {
          "internalType": "address",
          "name": "",
          "type": "address"
        }
      ],
      "stateMutability": "view",
      "type": "function"
    },
    {
      "inputs": [
        {
          "internalType": "uint256",
          "name": "tokenId",
          "type": "uint256"
        }
      ],
      "name": "ownerOf",
      "outputs": [
        {
          "internalType": "address",
          "name": "",
          "type": "address"
        }
      ],
      "stateMutability": "view",
      "type": "function"
    },
    {
      "inputs": [],
      "name": "paused",
      "outputs": [
        {
          "internalType": "bool",
          "name": "",
          "type": "bool"
        }
      ],
      "stateMutability": "view",
      "type": "function"
    },
    {
      "inputs": [
        {
          "internalType": "address",
          "name": "account",
          "type": "address"
        }
      ],
      "name": "removeMinter",
      "outputs": [],
      "stateMutability": "nonpayable",
      "type": "function"
    },
    {
      "inputs": [],
      "name": "renounceMinter",
      "outputs": [],
      "stateMutability": "nonpayable",
      "type": "function"
    },
    {
      "inputs": [],
      "name": "renounceOwnership",
      "outputs": [],
      "stateMutability": "nonpayable",
      "type": "function"
    },
    {
      "inputs": [
        {
          "internalType": "bytes32",
          "name": "role",
          "type": "bytes32"
        },
        {
          "internalType": "address",
          "name": "account",
          "type": "address"
        }
      ],
      "name": "renounceRole",
      "outputs": [],
      "stateMutability": "nonpayable",
      "type": "function"
    },
    {
      "inputs": [
        {
          "internalType": "bytes32",
          "name": "role",
          "type": "bytes32"
        },
        {
          "internalType": "address",
          "name": "account",
          "type": "address"
        }
      ],
      "name": "revokeRole",
      "outputs": [],
      "stateMutability": "nonpayable",
      "type": "function"
    },
    {
      "inputs": [
        {
          "internalType": "address",
          "name": "from",
          "type": "address"
        },
        {
          "internalType": "address",
          "name": "to",
          "type": "address"
        },
        {
          "internalType": "uint256",
          "name": "tokenId",
          "type": "uint256"
        }
      ],
      "name": "safeTransferFrom",
      "outputs": [],
      "stateMutability": "nonpayable",
      "type": "function"
    },
    {
      "inputs": [
        {
          "internalType": "address",
          "name": "from",
          "type": "address"
        },
        {
          "internalType": "address",
          "name": "to",
          "type": "address"
        },
        {
          "internalType": "uint256",
          "name": "tokenId",
          "type": "uint256"
        },
        {
          "internalType": "bytes",
          "name": "data",
          "type": "bytes"
        }
      ],
      "name": "safeTransferFrom",
      "outputs": [],
      "stateMutability": "nonpayable",
      "type": "function"
    },
    {
      "inputs": [
        {
          "internalType": "address",
          "name": "operator",
          "type": "address"
        },
        {
          "internalType": "bool",
          "name": "approved",
          "type": "bool"
        }
      ],
      "name": "setApprovalForAll",
      "outputs": [],
      "stateMutability": "nonpayable",
      "type": "function"
    },
    {
      "inputs": [
        {
          "internalType": "string",
          "name": "uri",
          "type": "string"
        }
      ],
      "name": "setContractURI",
      "outputs": [],
      "stateMutability": "nonpayable",
      "type": "function"
    },
    {
      "inputs": [
        {
          "internalType": "uint256",
          "name": "tokenId",
          "type": "uint256"
        },
        {
          "internalType": "string",
          "name": "uri",
          "type": "string"
        }
      ],
      "name": "setTokenURI",
      "outputs": [],
      "stateMutability": "nonpayable",
      "type": "function"
    },
    {
      "inputs": [
        {
          "internalType": "bytes4",
          "name": "interfaceId",
          "type": "bytes4"
        }
      ],
      "name": "supportsInterface",
      "outputs": [
        {
          "internalType": "bool",
          "name": "",
          "type": "bool"
        }
      ],
      "stateMutability": "view",
      "type": "function"
    },
    {
      "inputs": [],
      "name": "symbol",
      "outputs": [
        {
          "internalType": "string",
          "name": "",
          "type": "string"
        }
      ],
      "stateMutability": "view",
      "type": "function"
    },
    {
      "inputs": [
        {
          "internalType": "uint256",
          "name": "index",
          "type": "uint256"
        }
      ],
      "name": "tokenByIndex",
      "outputs": [
        {
          "internalType": "uint256",
          "name": "",
          "type": "uint256"
        }
      ],
      "stateMutability": "view",
      "type": "function"
    },
    {
      "inputs": [
        {
          "internalType": "address",
          "name": "owner",
          "type": "address"
        },
        {
          "internalType": "uint256",
          "name": "index",
          "type": "uint256"
        }
      ],
      "name": "tokenOfOwnerByIndex",
      "outputs": [
        {
          "internalType": "uint256",
          "name": "",
          "type": "uint256"
        }
      ],
      "stateMutability": "view",
      "type": "function"
    },
    {
      "inputs": [
        {
          "internalType": "uint256",
          "name": "tokenId",
          "type": "uint256"
        }
      ],
      "name": "tokenURI",
      "outputs": [
        {
          "internalType": "string",
          "name": "",
          "type": "string"
        }
      ],
      "stateMutability": "view",
      "type": "function"
    },
    {
      "inputs": [],
      "name": "totalSupply",
      "outputs": [
        {
          "internalType": "uint256",
          "name": "",
          "type": "uint256"
        }
      ],
      "stateMutability": "view",
      "type": "function"
    },
    {
      "inputs": [
        {
          "internalType": "address",
          "name": "from",
          "type": "address"
        },
        {
          "internalType": "address",
          "name": "to",
          "type": "address"
        },
        {
          "internalType": "uint256",
          "name": "tokenId",
          "type": "uint256"
        }
      ],
      "name": "transferFrom",
      "outputs": [],
      "stateMutability": "nonpayable",
      "type": "function"
    },
    {
      "inputs": [
        {
          "internalType": "address",
          "name": "newOwner",
          "type": "address"
        }
      ],
      "name": "transferOwnership",
      "outputs": [],
      "stateMutability": "nonpayable",
      "type": "function"
    }
  ],
  "bytecode": "0x60806040523480156200001157600080fd5b50604051620059963803806200599683398181016040528101906200003791906200068f565b8383620000596200004d6200014060201b60201c565b6200014860201b60201c565b81600190805190602001906200007192919062000442565b5080600290805190602001906200008a92919062000442565b5050506000600c60006101000a81548160ff021916908315150217905550620000b9336200020c60201b60201c565b620001046040518060400160405280600b81526020017f455243373231546f6b656e0000000000000000000000000000000000000000008152506200026d60201b6200133f1760201c565b81601190805190602001906200011c92919062000442565b5080601290805190602001906200013592919062000442565b505050505062000963565b600033905090565b60008060009054906101000a900473ffffffffffffffffffffffffffffffffffffffff169050816000806101000a81548173ffffffffffffffffffffffffffffffffffffffff021916908373ffffffffffffffffffffffffffffffffffffffff1602179055508173ffffffffffffffffffffffffffffffffffffffff168173ffffffffffffffffffffffffffffffffffffffff167f8be0079c531659141344cd1fd0a4f28419497f9722a3daafe3b4186f6b6457e060405160405180910390a35050565b6200022781600d620002c460201b620013941790919060201c565b8073ffffffffffffffffffffffffffffffffffffffff167f6ae172837ea30b801fbfcdd4108aa1d5bf8ff775444fd70256b44e6bf3dfc3f660405160405180910390a250565b6001600e600083604051602001620002869190620007ca565b60405160208183030381529060405280519060200120815260200190815260200160002060006101000a81548160ff02191690831515021790555050565b620002d682826200037760201b60201c565b1562000319576040517f08c379a0000000000000000000000000000000000000000000000000000000008152600401620003109062000844565b60405180910390fd5b60018260000160008373ffffffffffffffffffffffffffffffffffffffff1673ffffffffffffffffffffffffffffffffffffffff16815260200190815260200160002060006101000a81548160ff0219169083151502179055505050565b60008073ffffffffffffffffffffffffffffffffffffffff168273ffffffffffffffffffffffffffffffffffffffff161415620003eb576040517f08c379a0000000000000000000000000000000000000000000000000000000008152600401620003e290620008dc565b60405180910390fd5b8260000160008373ffffffffffffffffffffffffffffffffffffffff1673ffffffffffffffffffffffffffffffffffffffff16815260200190815260200160002060009054906101000a900460ff16905092915050565b82805462000450906200092d565b90600052602060002090601f016020900481019282620004745760008555620004c0565b82601f106200048f57805160ff1916838001178555620004c0565b82800160010185558215620004c0579182015b82811115620004bf578251825591602001919060010190620004a2565b5b509050620004cf9190620004d3565b5090565b5b80821115620004ee576000816000905550600101620004d4565b5090565b6000604051905090565b600080fd5b600080fd5b600080fd5b600080fd5b6000601f19601f8301169050919050565b7f4e487b7100000000000000000000000000000000000000000000000000000000600052604160045260246000fd5b6200055b8262000510565b810181811067ffffffffffffffff821117156200057d576200057c62000521565b5b80604052505050565b600062000592620004f2565b9050620005a0828262000550565b919050565b600067ffffffffffffffff821115620005c357620005c262000521565b5b620005ce8262000510565b9050602081019050919050565b60005b83811015620005fb578082015181840152602081019050620005de565b838111156200060b576000848401525b50505050565b6000620006286200062284620005a5565b62000586565b9050828152602081018484840111156200064757620006466200050b565b5b62000654848285620005db565b509392505050565b600082601f83011262000674576200067362000506565b5b81516200068684826020860162000611565b91505092915050565b60008060008060808587031215620006ac57620006ab620004fc565b5b600085015167ffffffffffffffff811115620006cd57620006cc62000501565b5b620006db878288016200065c565b945050602085015167ffffffffffffffff811115620006ff57620006fe62000501565b5b6200070d878288016200065c565b935050604085015167ffffffffffffffff81111562000731576200073062000501565b5b6200073f878288016200065c565b925050606085015167ffffffffffffffff81111562000763576200076262000501565b5b62000771878288016200065c565b91505092959194509250565b600081519050919050565b600081905092915050565b6000620007a0826200077d565b620007ac818562000788565b9350620007be818560208601620005db565b80840191505092915050565b6000620007d8828462000793565b915081905092915050565b600082825260208201905092915050565b7f526f6c65733a206163636f756e7420616c72656164792068617320726f6c6500600082015250565b60006200082c601f83620007e3565b91506200083982620007f4565b602082019050919050565b600060208201905081810360008301526200085f816200081d565b9050919050565b7f526f6c65733a206163636f756e7420697320746865207a65726f20616464726560008201527f7373000000000000000000000000000000000000000000000000000000000000602082015250565b6000620008c4602283620007e3565b9150620008d18262000866565b604082019050919050565b60006020820190508181036000830152620008f781620008b5565b9050919050565b7f4e487b7100000000000000000000000000000000000000000000000000000000600052602260045260246000fd5b600060028204905060018216806200094657607f821691505b602082108114156200095d576200095c620008fe565b5b50919050565b61502380620009736000396000f3fe608060405234801561001057600080fd5b506004361061023d5760003560e01c80636352211e1161013b578063a217fddf116100b8578063ca15c8731161007c578063ca15c873146106fa578063d547741f1461072a578063e8a3d48514610746578063e985e9c514610764578063f2fde38b146107945761023d565b8063a217fddf14610644578063a22cb46514610662578063aa271e1a1461067e578063b88d4fde146106ae578063c87b56dd146106ca5761023d565b806391d14854116100ff57806391d14854146105b4578063938e3d7b146105e457806395d89b4114610600578063983b2d561461061e578063986502751461063a5761023d565b80636352211e146104fc57806370a082311461052c578063715018a61461055c5780638da5cb5b146105665780639010d07c146105845761023d565b80632e917b2f116101c957806340c10f191161018d57806340c10f191461044657806342842e0e1461047657806342966c68146104925780634f6ccce7146104ae5780635c975abb146104de5761023d565b80632e917b2f146103925780632f2ff15d146103c25780632f745c59146103de5780633092afd51461040e57806336568abe1461042a5761023d565b8063162094c411610210578063162094c4146102dc57806318160ddd146102f857806323b872dd14610316578063248a9ca314610332578063249cb3fa146103625761023d565b806301ffc9a71461024257806306fdde0314610272578063081812fc14610290578063095ea7b3146102c0575b600080fd5b61025c600480360381019061025791906136ef565b6107b0565b6040516102699190613737565b60405180910390f35b61027a6107c2565b60405161028791906137eb565b60405180910390f35b6102aa60048036038101906102a59190613843565b610854565b6040516102b791906138b1565b60405180910390f35b6102da60048036038101906102d591906138f8565b61089a565b005b6102f660048036038101906102f19190613a6d565b6109b2565b005b6103006109d2565b60405161030d9190613ad8565b60405180910390f35b610330600480360381019061032b9190613af3565b6109df565b005b61034c60048036038101906103479190613b7c565b610a3f565b6040516103599190613bb8565b60405180910390f35b61037c60048036038101906103779190613bd3565b610a5f565b6040516103899190613bb8565b60405180910390f35b6103ac60048036038101906103a79190613c13565b610abe565b6040516103b99190613737565b60405180910390f35b6103dc60048036038101906103d79190613bd3565b610af1565b005b6103f860048036038101906103f391906138f8565b610b12565b6040516104059190613ad8565b60405180910390f35b61042860048036038101906104239190613c82565b610bb7565b005b610444600480360381019061043f9190613bd3565b610bd5565b005b610460600480360381019061045b91906138f8565b610c58565b60405161046d9190613737565b60405180910390f35b610490600480360381019061048b9190613af3565b610c80565b005b6104ac60048036038101906104a79190613843565b610ca0565b005b6104c860048036038101906104c39190613843565b610cfc565b6040516104d59190613ad8565b60405180910390f35b6104e6610d6d565b6040516104f39190613737565b60405180910390f35b61051660048036038101906105119190613843565b610d84565b60405161052391906138b1565b60405180910390f35b61054660048036038101906105419190613c82565b610e36565b6040516105539190613ad8565b60405180910390f35b610564610eee565b005b61056e610f02565b60405161057b91906138b1565b60405180910390f35b61059e60048036038101906105999190613caf565b610f2b565b6040516105ab91906138b1565b60405180910390f35b6105ce60048036038101906105c99190613bd3565b610f5a565b6040516105db9190613737565b60405180910390f35b6105fe60048036038101906105f99190613cef565b610fc5565b005b610608610fe7565b60405161061591906137eb565b60405180910390f35b61063860048036038101906106339190613c82565b611079565b005b610642611097565b005b61064c6110a2565b6040516106599190613bb8565b60405180910390f35b61067c60048036038101906106779190613d64565b6110a9565b005b61069860048036038101906106939190613c82565b6110bf565b6040516106a59190613737565b60405180910390f35b6106c860048036038101906106c39190613e45565b6110dc565b005b6106e460048036038101906106df9190613843565b61113e565b6040516106f191906137eb565b60405180910390f35b610714600480360381019061070f9190613b7c565b611150565b6040516107219190613ad8565b60405180910390f35b610744600480360381019061073f9190613bd3565b611174565b005b61074e611195565b60405161075b91906137eb565b60405180910390f35b61077e60048036038101906107799190613ec8565b611227565b60405161078b9190613737565b60405180910390f35b6107ae60048036038101906107a99190613c82565b6112bb565b005b60006107bb8261143c565b9050919050565b6060600180546107d190613f37565b80601f01602080910402602001604051908101604052809291908181526020018280546107fd90613f37565b801561084a5780601f1061081f5761010080835404028352916020019161084a565b820191906000526020600020905b81548152906001019060200180831161082d57829003601f168201915b5050505050905090565b600061085f826114b6565b6005600083815260200190815260200160002060009054906101000a900473ffffffffffffffffffffffffffffffffffffffff169050919050565b60006108a582610d84565b90508073ffffffffffffffffffffffffffffffffffffffff168373ffffffffffffffffffffffffffffffffffffffff161415610916576040517f08c379a000000000000000000000000000000000000000000000000000000000815260040161090d90613fdb565b60405180910390fd5b8073ffffffffffffffffffffffffffffffffffffffff16610935611501565b73ffffffffffffffffffffffffffffffffffffffff16148061096457506109638161095e611501565b611227565b5b6109a3576040517f08c379a000000000000000000000000000000000000000000000000000000000815260040161099a9061406d565b60405180910390fd5b6109ad8383611509565b505050565b6109bb336110bf565b6109c457600080fd5b6109ce82826115c2565b5050565b6000600a80549050905090565b6109f06109ea611501565b82611636565b610a2f576040517f08c379a0000000000000000000000000000000000000000000000000000000008152600401610a26906140ff565b60405180910390fd5b610a3a8383836116cb565b505050565b6000600f6000838152602001908152602001600020600101549050919050565b6000600e600084815260200190815260200160002060009054906101000a900460ff1615610ab357604051602001610a9690614176565b604051602081830303815290604052805190602001209050610ab8565b600090505b92915050565b6000610ac9336110bf565b610ad257600080fd5b610adc8484611932565b610ae683836115c2565b600190509392505050565b610afa82610a3f565b610b0381611b0c565b610b0d8383611b20565b505050565b6000610b1d83610e36565b8210610b5e576040517f08c379a0000000000000000000000000000000000000000000000000000000008152600401610b55906141fd565b60405180910390fd5b600860008473ffffffffffffffffffffffffffffffffffffffff1673ffffffffffffffffffffffffffffffffffffffff168152602001908152602001600020600083815260200190815260200160002054905092915050565b610bc0336110bf565b610bc957600080fd5b610bd281611b54565b50565b610bdd611501565b73ffffffffffffffffffffffffffffffffffffffff168173ffffffffffffffffffffffffffffffffffffffff1614610c4a576040517f08c379a0000000000000000000000000000000000000000000000000000000008152600401610c419061428f565b60405180910390fd5b610c548282611bae565b5050565b6000610c63336110bf565b610c6c57600080fd5b610c768383611932565b6001905092915050565b610c9b838383604051806020016040528060008152506110dc565b505050565b610cb1610cab611501565b82611636565b610cf0576040517f08c379a0000000000000000000000000000000000000000000000000000000008152600401610ce7906140ff565b60405180910390fd5b610cf981611be2565b50565b6000610d066109d2565b8210610d47576040517f08c379a0000000000000000000000000000000000000000000000000000000008152600401610d3e90614321565b60405180910390fd5b600a8281548110610d5b57610d5a614341565b5b90600052602060002001549050919050565b6000600c60009054906101000a900460ff16905090565b6000806003600084815260200190815260200160002060009054906101000a900473ffffffffffffffffffffffffffffffffffffffff169050600073ffffffffffffffffffffffffffffffffffffffff168173ffffffffffffffffffffffffffffffffffffffff161415610e2d576040517f08c379a0000000000000000000000000000000000000000000000000000000008152600401610e24906143bc565b60405180910390fd5b80915050919050565b60008073ffffffffffffffffffffffffffffffffffffffff168273ffffffffffffffffffffffffffffffffffffffff161415610ea7576040517f08c379a0000000000000000000000000000000000000000000000000000000008152600401610e9e9061444e565b60405180910390fd5b600460008373ffffffffffffffffffffffffffffffffffffffff1673ffffffffffffffffffffffffffffffffffffffff168152602001908152602001600020549050919050565b610ef6611bee565b610f006000611c6c565b565b60008060009054906101000a900473ffffffffffffffffffffffffffffffffffffffff16905090565b6000610f528260106000868152602001908152602001600020611d3090919063ffffffff16565b905092915050565b6000600f600084815260200190815260200160002060000160008373ffffffffffffffffffffffffffffffffffffffff1673ffffffffffffffffffffffffffffffffffffffff16815260200190815260200160002060009054906101000a900460ff16905092915050565b610fcd611bee565b8060129080519060200190610fe39291906135a0565b5050565b606060028054610ff690613f37565b80601f016020809104026020016040519081016040528092919081815260200182805461102290613f37565b801561106f5780601f106110445761010080835404028352916020019161106f565b820191906000526020600020905b81548152906001019060200180831161105257829003601f168201915b5050505050905090565b611082336110bf565b61108b57600080fd5b61109481611d4a565b50565b6110a033611b54565b565b6000801b81565b6110bb6110b4611501565b8383611da4565b5050565b60006110d582600d611f1190919063ffffffff16565b9050919050565b6110ed6110e7611501565b83611636565b61112c576040517f08c379a0000000000000000000000000000000000000000000000000000000008152600401611123906140ff565b60405180910390fd5b61113884848484611fd9565b50505050565b606061114982612035565b9050919050565b600061116d60106000848152602001908152602001600020612148565b9050919050565b61117d82610a3f565b61118681611b0c565b6111908383611bae565b505050565b6060601280546111a490613f37565b80601f01602080910402602001604051908101604052809291908181526020018280546111d090613f37565b801561121d5780601f106111f25761010080835404028352916020019161121d565b820191906000526020600020905b81548152906001019060200180831161120057829003601f168201915b5050505050905090565b6000600660008473ffffffffffffffffffffffffffffffffffffffff1673ffffffffffffffffffffffffffffffffffffffff16815260200190815260200160002060008373ffffffffffffffffffffffffffffffffffffffff1673ffffffffffffffffffffffffffffffffffffffff16815260200190815260200160002060009054906101000a900460ff16905092915050565b6112c3611bee565b600073ffffffffffffffffffffffffffffffffffffffff168173ffffffffffffffffffffffffffffffffffffffff161415611333576040517f08c379a000000000000000000000000000000000000000000000000000000000815260040161132a906144e0565b60405180910390fd5b61133c81611c6c565b50565b6001600e6000836040516020016113569190614531565b60405160208183030381529060405280519060200120815260200190815260200160002060006101000a81548160ff02191690831515021790555050565b61139e8282611f11565b156113de576040517f08c379a00000000000000000000000000000000000000000000000000000000081526004016113d590614594565b60405180910390fd5b60018260000160008373ffffffffffffffffffffffffffffffffffffffff1673ffffffffffffffffffffffffffffffffffffffff16815260200190815260200160002060006101000a81548160ff0219169083151502179055505050565b60007f5a05180f000000000000000000000000000000000000000000000000000000007bffffffffffffffffffffffffffffffffffffffffffffffffffffffff1916827bffffffffffffffffffffffffffffffffffffffffffffffffffffffff191614806114af57506114ae8261215d565b5b9050919050565b6114bf816121d7565b6114fe576040517f08c379a00000000000000000000000000000000000000000000000000000000081526004016114f5906143bc565b60405180910390fd5b50565b600033905090565b816005600083815260200190815260200160002060006101000a81548173ffffffffffffffffffffffffffffffffffffffff021916908373ffffffffffffffffffffffffffffffffffffffff160217905550808273ffffffffffffffffffffffffffffffffffffffff1661157c83610d84565b73ffffffffffffffffffffffffffffffffffffffff167f8c5be1e5ebec7d5bd14f71427d1e84f3dd0314c0f7b2291e5b200ac8c7c3b92560405160405180910390a45050565b6115cb826121d7565b61160a576040517f08c379a000000000000000000000000000000000000000000000000000000000815260040161160190614626565b60405180910390fd5b806007600084815260200190815260200160002090805190602001906116319291906135a0565b505050565b60008061164283610d84565b90508073ffffffffffffffffffffffffffffffffffffffff168473ffffffffffffffffffffffffffffffffffffffff16148061168457506116838185611227565b5b806116c257508373ffffffffffffffffffffffffffffffffffffffff166116aa84610854565b73ffffffffffffffffffffffffffffffffffffffff16145b91505092915050565b8273ffffffffffffffffffffffffffffffffffffffff166116eb82610d84565b73ffffffffffffffffffffffffffffffffffffffff1614611741576040517f08c379a0000000000000000000000000000000000000000000000000000000008152600401611738906146b8565b60405180910390fd5b600073ffffffffffffffffffffffffffffffffffffffff168273ffffffffffffffffffffffffffffffffffffffff1614156117b1576040517f08c379a00000000000000000000000000000000000000000000000000000000081526004016117a89061474a565b60405180910390fd5b6117bc838383612243565b6117c7600082611509565b6001600460008573ffffffffffffffffffffffffffffffffffffffff1673ffffffffffffffffffffffffffffffffffffffff16815260200190815260200160002060008282546118179190614799565b925050819055506001600460008473ffffffffffffffffffffffffffffffffffffffff1673ffffffffffffffffffffffffffffffffffffffff168152602001908152602001600020600082825461186e91906147cd565b92505081905550816003600083815260200190815260200160002060006101000a81548173ffffffffffffffffffffffffffffffffffffffff021916908373ffffffffffffffffffffffffffffffffffffffff160217905550808273ffffffffffffffffffffffffffffffffffffffff168473ffffffffffffffffffffffffffffffffffffffff167fddf252ad1be2c89b69c2b068fc378daa952ba7f163c4a11628f55a4df523b3ef60405160405180910390a461192d838383612253565b505050565b600073ffffffffffffffffffffffffffffffffffffffff168273ffffffffffffffffffffffffffffffffffffffff1614156119a2576040517f08c379a00000000000000000000000000000000000000000000000000000000081526004016119999061486f565b60405180910390fd5b6119ab816121d7565b156119eb576040517f08c379a00000000000000000000000000000000000000000000000000000000081526004016119e2906148db565b60405180910390fd5b6119f760008383612243565b6001600460008473ffffffffffffffffffffffffffffffffffffffff1673ffffffffffffffffffffffffffffffffffffffff1681526020019081526020016000206000828254611a4791906147cd565b92505081905550816003600083815260200190815260200160002060006101000a81548173ffffffffffffffffffffffffffffffffffffffff021916908373ffffffffffffffffffffffffffffffffffffffff160217905550808273ffffffffffffffffffffffffffffffffffffffff16600073ffffffffffffffffffffffffffffffffffffffff167fddf252ad1be2c89b69c2b068fc378daa952ba7f163c4a11628f55a4df523b3ef60405160405180910390a4611b0860008383612253565b5050565b611b1d81611b18611501565b612258565b50565b611b2a82826122f5565b611b4f81601060008581526020019081526020016000206123d690919063ffffffff16565b505050565b611b6881600d61240690919063ffffffff16565b8073ffffffffffffffffffffffffffffffffffffffff167fe94479a9f7e1952cc78f2d6baab678adc1b772d936c6583def489e524cb6669260405160405180910390a250565b611bb882826124ad565b611bdd816010600085815260200190815260200160002061258f90919063ffffffff16565b505050565b611beb816125bf565b50565b611bf6611501565b73ffffffffffffffffffffffffffffffffffffffff16611c14610f02565b73ffffffffffffffffffffffffffffffffffffffff1614611c6a576040517f08c379a0000000000000000000000000000000000000000000000000000000008152600401611c6190614947565b60405180910390fd5b565b60008060009054906101000a900473ffffffffffffffffffffffffffffffffffffffff169050816000806101000a81548173ffffffffffffffffffffffffffffffffffffffff021916908373ffffffffffffffffffffffffffffffffffffffff1602179055508173ffffffffffffffffffffffffffffffffffffffff168173ffffffffffffffffffffffffffffffffffffffff167f8be0079c531659141344cd1fd0a4f28419497f9722a3daafe3b4186f6b6457e060405160405180910390a35050565b6000611d3f8360000183612612565b60001c905092915050565b611d5e81600d61139490919063ffffffff16565b8073ffffffffffffffffffffffffffffffffffffffff167f6ae172837ea30b801fbfcdd4108aa1d5bf8ff775444fd70256b44e6bf3dfc3f660405160405180910390a250565b8173ffffffffffffffffffffffffffffffffffffffff168373ffffffffffffffffffffffffffffffffffffffff161415611e13576040517f08c379a0000000000000000000000000000000000000000000000000000000008152600401611e0a906149b3565b60405180910390fd5b80600660008573ffffffffffffffffffffffffffffffffffffffff1673ffffffffffffffffffffffffffffffffffffffff16815260200190815260200160002060008473ffffffffffffffffffffffffffffffffffffffff1673ffffffffffffffffffffffffffffffffffffffff16815260200190815260200160002060006101000a81548160ff0219169083151502179055508173ffffffffffffffffffffffffffffffffffffffff168373ffffffffffffffffffffffffffffffffffffffff167f17307eab39ab6107e8899845ad3d59bd9653f200f220920489ca2b5937696c3183604051611f049190613737565b60405180910390a3505050565b60008073ffffffffffffffffffffffffffffffffffffffff168273ffffffffffffffffffffffffffffffffffffffff161415611f82576040517f08c379a0000000000000000000000000000000000000000000000000000000008152600401611f7990614a45565b60405180910390fd5b8260000160008373ffffffffffffffffffffffffffffffffffffffff1673ffffffffffffffffffffffffffffffffffffffff16815260200190815260200160002060009054906101000a900460ff16905092915050565b611fe48484846116cb565b611ff08484848461263d565b61202f576040517f08c379a000000000000000000000000000000000000000000000000000000000815260040161202690614ad7565b60405180910390fd5b50505050565b6060612040826114b6565b600060076000848152602001908152602001600020805461206090613f37565b80601f016020809104026020016040519081016040528092919081815260200182805461208c90613f37565b80156120d95780601f106120ae576101008083540402835291602001916120d9565b820191906000526020600020905b8154815290600101906020018083116120bc57829003601f168201915b5050505050905060006120ea6127d4565b9050600081511415612100578192505050612143565b60008251111561213557808260405160200161211d929190614af7565b60405160208183030381529060405292505050612143565b61213e84612866565b925050505b919050565b6000612156826000016128ce565b9050919050565b60007f7965db0b000000000000000000000000000000000000000000000000000000007bffffffffffffffffffffffffffffffffffffffffffffffffffffffff1916827bffffffffffffffffffffffffffffffffffffffffffffffffffffffff191614806121d057506121cf826128df565b5b9050919050565b60008073ffffffffffffffffffffffffffffffffffffffff166003600084815260200190815260200160002060009054906101000a900473ffffffffffffffffffffffffffffffffffffffff1673ffffffffffffffffffffffffffffffffffffffff1614159050919050565b61224e838383612959565b505050565b505050565b6122628282610f5a565b6122f1576122878173ffffffffffffffffffffffffffffffffffffffff1660146129b1565b6122958360001c60206129b1565b6040516020016122a6929190614bb3565b6040516020818303038152906040526040517f08c379a00000000000000000000000000000000000000000000000000000000081526004016122e891906137eb565b60405180910390fd5b5050565b6122ff8282610f5a565b6123d2576001600f600084815260200190815260200160002060000160008373ffffffffffffffffffffffffffffffffffffffff1673ffffffffffffffffffffffffffffffffffffffff16815260200190815260200160002060006101000a81548160ff021916908315150217905550612377611501565b73ffffffffffffffffffffffffffffffffffffffff168173ffffffffffffffffffffffffffffffffffffffff16837f2f8788117e7eff1d82e926ec794901d17c78024a50270940304540a733656f0d60405160405180910390a45b5050565b60006123fe836000018373ffffffffffffffffffffffffffffffffffffffff1660001b612bed565b905092915050565b6124108282611f11565b61244f576040517f08c379a000000000000000000000000000000000000000000000000000000000815260040161244690614c5f565b60405180910390fd5b60008260000160008373ffffffffffffffffffffffffffffffffffffffff1673ffffffffffffffffffffffffffffffffffffffff16815260200190815260200160002060006101000a81548160ff0219169083151502179055505050565b6124b78282610f5a565b1561258b576000600f600084815260200190815260200160002060000160008373ffffffffffffffffffffffffffffffffffffffff1673ffffffffffffffffffffffffffffffffffffffff16815260200190815260200160002060006101000a81548160ff021916908315150217905550612530611501565b73ffffffffffffffffffffffffffffffffffffffff168173ffffffffffffffffffffffffffffffffffffffff16837ff6391f5c32d9c69d2a47ea670b442974b53935d1edc7fd64eb21e047a839171b60405160405180910390a45b5050565b60006125b7836000018373ffffffffffffffffffffffffffffffffffffffff1660001b612c5d565b905092915050565b6125c881612d71565b60006007600083815260200190815260200160002080546125e890613f37565b90501461260f5760076000828152602001908152602001600020600061260e9190613626565b5b50565b600082600001828154811061262a57612629614341565b5b9060005260206000200154905092915050565b600061265e8473ffffffffffffffffffffffffffffffffffffffff16612e8e565b156127c7578373ffffffffffffffffffffffffffffffffffffffff1663150b7a02612687611501565b8786866040518563ffffffff1660e01b81526004016126a99493929190614cd4565b602060405180830381600087803b1580156126c357600080fd5b505af19250505080156126f457506040513d601f19601f820116820180604052508101906126f19190614d35565b60015b612777573d8060008114612724576040519150601f19603f3d011682016040523d82523d6000602084013e612729565b606091505b5060008151141561276f576040517f08c379a000000000000000000000000000000000000000000000000000000000815260040161276690614ad7565b60405180910390fd5b805181602001fd5b63150b7a0260e01b7bffffffffffffffffffffffffffffffffffffffffffffffffffffffff1916817bffffffffffffffffffffffffffffffffffffffffffffffffffffffff1916149150506127cc565b600190505b949350505050565b6060601180546127e390613f37565b80601f016020809104026020016040519081016040528092919081815260200182805461280f90613f37565b801561285c5780601f106128315761010080835404028352916020019161285c565b820191906000526020600020905b81548152906001019060200180831161283f57829003601f168201915b5050505050905090565b6060612871826114b6565b600061287b6127d4565b9050600081511161289b57604051806020016040528060008152506128c6565b806128a584612eb1565b6040516020016128b6929190614af7565b6040516020818303038152906040525b915050919050565b600081600001805490509050919050565b60007f780e9d63000000000000000000000000000000000000000000000000000000007bffffffffffffffffffffffffffffffffffffffffffffffffffffffff1916827bffffffffffffffffffffffffffffffffffffffffffffffffffffffff19161480612952575061295182613012565b5b9050919050565b6129648383836130f4565b61296c610d6d565b156129ac576040517f08c379a00000000000000000000000000000000000000000000000000000000081526004016129a390614dd4565b60405180910390fd5b505050565b6060600060028360026129c49190614df4565b6129ce91906147cd565b67ffffffffffffffff8111156129e7576129e6613942565b5b6040519080825280601f01601f191660200182016040528015612a195781602001600182028036833780820191505090505b5090507f300000000000000000000000000000000000000000000000000000000000000081600081518110612a5157612a50614341565b5b60200101907effffffffffffffffffffffffffffffffffffffffffffffffffffffffffffff1916908160001a9053507f780000000000000000000000000000000000000000000000000000000000000081600181518110612ab557612ab4614341565b5b60200101907effffffffffffffffffffffffffffffffffffffffffffffffffffffffffffff1916908160001a90535060006001846002612af59190614df4565b612aff91906147cd565b90505b6001811115612b9f577f3031323334353637383961626364656600000000000000000000000000000000600f861660108110612b4157612b40614341565b5b1a60f81b828281518110612b5857612b57614341565b5b60200101907effffffffffffffffffffffffffffffffffffffffffffffffffffffffffffff1916908160001a905350600485901c945080612b9890614e4e565b9050612b02565b5060008414612be3576040517f08c379a0000000000000000000000000000000000000000000000000000000008152600401612bda90614ec4565b60405180910390fd5b8091505092915050565b6000612bf98383613208565b612c52578260000182908060018154018082558091505060019003906000526020600020016000909190919091505582600001805490508360010160008481526020019081526020016000208190555060019050612c57565b600090505b92915050565b60008083600101600084815260200190815260200160002054905060008114612d65576000600182612c8f9190614799565b9050600060018660000180549050612ca79190614799565b9050818114612d16576000866000018281548110612cc857612cc7614341565b5b9060005260206000200154905080876000018481548110612cec57612ceb614341565b5b90600052602060002001819055508387600101600083815260200190815260200160002081905550505b85600001805480612d2a57612d29614ee4565b5b600190038181906000526020600020016000905590558560010160008681526020019081526020016000206000905560019350505050612d6b565b60009150505b92915050565b6000612d7c82610d84565b9050612d8a81600084612243565b612d95600083611509565b6001600460008373ffffffffffffffffffffffffffffffffffffffff1673ffffffffffffffffffffffffffffffffffffffff1681526020019081526020016000206000828254612de59190614799565b925050819055506003600083815260200190815260200160002060006101000a81549073ffffffffffffffffffffffffffffffffffffffff021916905581600073ffffffffffffffffffffffffffffffffffffffff168273ffffffffffffffffffffffffffffffffffffffff167fddf252ad1be2c89b69c2b068fc378daa952ba7f163c4a11628f55a4df523b3ef60405160405180910390a4612e8a81600084612253565b5050565b6000808273ffffffffffffffffffffffffffffffffffffffff163b119050919050565b60606000821415612ef9576040518060400160405280600181526020017f3000000000000000000000000000000000000000000000000000000000000000815250905061300d565b600082905060005b60008214612f2b578080612f1490614f13565b915050600a82612f249190614f8b565b9150612f01565b60008167ffffffffffffffff811115612f4757612f46613942565b5b6040519080825280601f01601f191660200182016040528015612f795781602001600182028036833780820191505090505b5090505b6000851461300657600182612f929190614799565b9150600a85612fa19190614fbc565b6030612fad91906147cd565b60f81b818381518110612fc357612fc2614341565b5b60200101907effffffffffffffffffffffffffffffffffffffffffffffffffffffffffffff1916908160001a905350600a85612fff9190614f8b565b9450612f7d565b8093505050505b919050565b60007f80ac58cd000000000000000000000000000000000000000000000000000000007bffffffffffffffffffffffffffffffffffffffffffffffffffffffff1916827bffffffffffffffffffffffffffffffffffffffffffffffffffffffff191614806130dd57507f5b5e139f000000000000000000000000000000000000000000000000000000007bffffffffffffffffffffffffffffffffffffffffffffffffffffffff1916827bffffffffffffffffffffffffffffffffffffffffffffffffffffffff1916145b806130ed57506130ec8261322b565b5b9050919050565b6130ff838383613295565b600073ffffffffffffffffffffffffffffffffffffffff168373ffffffffffffffffffffffffffffffffffffffff1614156131425761313d8161329a565b613181565b8173ffffffffffffffffffffffffffffffffffffffff168373ffffffffffffffffffffffffffffffffffffffff16146131805761317f83826132e3565b5b5b600073ffffffffffffffffffffffffffffffffffffffff168273ffffffffffffffffffffffffffffffffffffffff1614156131c4576131bf81613450565b613203565b8273ffffffffffffffffffffffffffffffffffffffff168273ffffffffffffffffffffffffffffffffffffffff1614613202576132018282613521565b5b5b505050565b600080836001016000848152602001908152602001600020541415905092915050565b60007f01ffc9a7000000000000000000000000000000000000000000000000000000007bffffffffffffffffffffffffffffffffffffffffffffffffffffffff1916827bffffffffffffffffffffffffffffffffffffffffffffffffffffffff1916149050919050565b505050565b600a80549050600b600083815260200190815260200160002081905550600a81908060018154018082558091505060019003906000526020600020016000909190919091505550565b600060016132f084610e36565b6132fa9190614799565b90506000600960008481526020019081526020016000205490508181146133df576000600860008673ffffffffffffffffffffffffffffffffffffffff1673ffffffffffffffffffffffffffffffffffffffff168152602001908152602001600020600084815260200190815260200160002054905080600860008773ffffffffffffffffffffffffffffffffffffffff1673ffffffffffffffffffffffffffffffffffffffff168152602001908152602001600020600084815260200190815260200160002081905550816009600083815260200190815260200160002081905550505b6009600084815260200190815260200160002060009055600860008573ffffffffffffffffffffffffffffffffffffffff1673ffffffffffffffffffffffffffffffffffffffff16815260200190815260200160002060008381526020019081526020016000206000905550505050565b60006001600a805490506134649190614799565b90506000600b60008481526020019081526020016000205490506000600a838154811061349457613493614341565b5b9060005260206000200154905080600a83815481106134b6576134b5614341565b5b906000526020600020018190555081600b600083815260200190815260200160002081905550600b600085815260200190815260200160002060009055600a80548061350557613504614ee4565b5b6001900381819060005260206000200160009055905550505050565b600061352c83610e36565b905081600860008573ffffffffffffffffffffffffffffffffffffffff1673ffffffffffffffffffffffffffffffffffffffff168152602001908152602001600020600083815260200190815260200160002081905550806009600084815260200190815260200160002081905550505050565b8280546135ac90613f37565b90600052602060002090601f0160209004810192826135ce5760008555613615565b82601f106135e757805160ff1916838001178555613615565b82800160010185558215613615579182015b828111156136145782518255916020019190600101906135f9565b5b5090506136229190613666565b5090565b50805461363290613f37565b6000825580601f106136445750613663565b601f0160209004906000526020600020908101906136629190613666565b5b50565b5b8082111561367f576000816000905550600101613667565b5090565b6000604051905090565b600080fd5b600080fd5b60007fffffffff0000000000000000000000000000000000000000000000000000000082169050919050565b6136cc81613697565b81146136d757600080fd5b50565b6000813590506136e9816136c3565b92915050565b6000602082840312156137055761370461368d565b5b6000613713848285016136da565b91505092915050565b60008115159050919050565b6137318161371c565b82525050565b600060208201905061374c6000830184613728565b92915050565b600081519050919050565b600082825260208201905092915050565b60005b8381101561378c578082015181840152602081019050613771565b8381111561379b576000848401525b50505050565b6000601f19601f8301169050919050565b60006137bd82613752565b6137c7818561375d565b93506137d781856020860161376e565b6137e0816137a1565b840191505092915050565b6000602082019050818103600083015261380581846137b2565b905092915050565b6000819050919050565b6138208161380d565b811461382b57600080fd5b50565b60008135905061383d81613817565b92915050565b6000602082840312156138595761385861368d565b5b60006138678482850161382e565b91505092915050565b600073ffffffffffffffffffffffffffffffffffffffff82169050919050565b600061389b82613870565b9050919050565b6138ab81613890565b82525050565b60006020820190506138c660008301846138a2565b92915050565b6138d581613890565b81146138e057600080fd5b50565b6000813590506138f2816138cc565b92915050565b6000806040838503121561390f5761390e61368d565b5b600061391d858286016138e3565b925050602061392e8582860161382e565b9150509250929050565b600080fd5b600080fd5b7f4e487b7100000000000000000000000000000000000000000000000000000000600052604160045260246000fd5b61397a826137a1565b810181811067ffffffffffffffff8211171561399957613998613942565b5b80604052505050565b60006139ac613683565b90506139b88282613971565b919050565b600067ffffffffffffffff8211156139d8576139d7613942565b5b6139e1826137a1565b9050602081019050919050565b82818337600083830152505050565b6000613a10613a0b846139bd565b6139a2565b905082815260208101848484011115613a2c57613a2b61393d565b5b613a378482856139ee565b509392505050565b600082601f830112613a5457613a53613938565b5b8135613a648482602086016139fd565b91505092915050565b60008060408385031215613a8457613a8361368d565b5b6000613a928582860161382e565b925050602083013567ffffffffffffffff811115613ab357613ab2613692565b5b613abf85828601613a3f565b9150509250929050565b613ad28161380d565b82525050565b6000602082019050613aed6000830184613ac9565b92915050565b600080600060608486031215613b0c57613b0b61368d565b5b6000613b1a868287016138e3565b9350506020613b2b868287016138e3565b9250506040613b3c8682870161382e565b9150509250925092565b6000819050919050565b613b5981613b46565b8114613b6457600080fd5b50565b600081359050613b7681613b50565b92915050565b600060208284031215613b9257613b9161368d565b5b6000613ba084828501613b67565b91505092915050565b613bb281613b46565b82525050565b6000602082019050613bcd6000830184613ba9565b92915050565b60008060408385031215613bea57613be961368d565b5b6000613bf885828601613b67565b9250506020613c09858286016138e3565b9150509250929050565b600080600060608486031215613c2c57613c2b61368d565b5b6000613c3a868287016138e3565b9350506020613c4b8682870161382e565b925050604084013567ffffffffffffffff811115613c6c57613c6b613692565b5b613c7886828701613a3f565b9150509250925092565b600060208284031215613c9857613c9761368d565b5b6000613ca6848285016138e3565b91505092915050565b60008060408385031215613cc657613cc561368d565b5b6000613cd485828601613b67565b9250506020613ce58582860161382e565b9150509250929050565b600060208284031215613d0557613d0461368d565b5b600082013567ffffffffffffffff811115613d2357613d22613692565b5b613d2f84828501613a3f565b91505092915050565b613d418161371c565b8114613d4c57600080fd5b50565b600081359050613d5e81613d38565b92915050565b60008060408385031215613d7b57613d7a61368d565b5b6000613d89858286016138e3565b9250506020613d9a85828601613d4f565b9150509250929050565b600067ffffffffffffffff821115613dbf57613dbe613942565b5b613dc8826137a1565b9050602081019050919050565b6000613de8613de384613da4565b6139a2565b905082815260208101848484011115613e0457613e0361393d565b5b613e0f8482856139ee565b509392505050565b600082601f830112613e2c57613e2b613938565b5b8135613e3c848260208601613dd5565b91505092915050565b60008060008060808587031215613e5f57613e5e61368d565b5b6000613e6d878288016138e3565b9450506020613e7e878288016138e3565b9350506040613e8f8782880161382e565b925050606085013567ffffffffffffffff811115613eb057613eaf613692565b5b613ebc87828801613e17565b91505092959194509250565b60008060408385031215613edf57613ede61368d565b5b6000613eed858286016138e3565b9250506020613efe858286016138e3565b9150509250929050565b7f4e487b7100000000000000000000000000000000000000000000000000000000600052602260045260246000fd5b60006002820490506001821680613f4f57607f821691505b60208210811415613f6357613f62613f08565b5b50919050565b7f4552433732313a20617070726f76616c20746f2063757272656e74206f776e6560008201527f7200000000000000000000000000000000000000000000000000000000000000602082015250565b6000613fc560218361375d565b9150613fd082613f69565b604082019050919050565b60006020820190508181036000830152613ff481613fb8565b9050919050565b7f4552433732313a20617070726f76652063616c6c6572206973206e6f7420746f60008201527f6b656e206f776e6572206e6f7220617070726f76656420666f7220616c6c0000602082015250565b6000614057603e8361375d565b915061406282613ffb565b604082019050919050565b600060208201905081810360008301526140868161404a565b9050919050565b7f4552433732313a2063616c6c6572206973206e6f7420746f6b656e206f776e6560008201527f72206e6f7220617070726f766564000000000000000000000000000000000000602082015250565b60006140e9602e8361375d565b91506140f48261408d565b604082019050919050565b60006020820190508181036000830152614118816140dc565b9050919050565b600081905092915050565b7f455243313832305f4143434550545f4d41474943000000000000000000000000600082015250565b600061416060148361411f565b915061416b8261412a565b601482019050919050565b600061418182614153565b9150819050919050565b7f455243373231456e756d657261626c653a206f776e657220696e646578206f7560008201527f74206f6620626f756e6473000000000000000000000000000000000000000000602082015250565b60006141e7602b8361375d565b91506141f28261418b565b604082019050919050565b60006020820190508181036000830152614216816141da565b9050919050565b7f416363657373436f6e74726f6c3a2063616e206f6e6c792072656e6f756e636560008201527f20726f6c657320666f722073656c660000000000000000000000000000000000602082015250565b6000614279602f8361375d565b91506142848261421d565b604082019050919050565b600060208201905081810360008301526142a88161426c565b9050919050565b7f455243373231456e756d657261626c653a20676c6f62616c20696e646578206f60008201527f7574206f6620626f756e64730000000000000000000000000000000000000000602082015250565b600061430b602c8361375d565b9150614316826142af565b604082019050919050565b6000602082019050818103600083015261433a816142fe565b9050919050565b7f4e487b7100000000000000000000000000000000000000000000000000000000600052603260045260246000fd5b7f4552433732313a20696e76616c696420746f6b656e2049440000000000000000600082015250565b60006143a660188361375d565b91506143b182614370565b602082019050919050565b600060208201905081810360008301526143d581614399565b9050919050565b7f4552433732313a2061646472657373207a65726f206973206e6f74206120766160008201527f6c6964206f776e65720000000000000000000000000000000000000000000000602082015250565b600061443860298361375d565b9150614443826143dc565b604082019050919050565b600060208201905081810360008301526144678161442b565b9050919050565b7f4f776e61626c653a206e6577206f776e657220697320746865207a65726f206160008201527f6464726573730000000000000000000000000000000000000000000000000000602082015250565b60006144ca60268361375d565b91506144d58261446e565b604082019050919050565b600060208201905081810360008301526144f9816144bd565b9050919050565b600061450b82613752565b614515818561411f565b935061452581856020860161376e565b80840191505092915050565b600061453d8284614500565b915081905092915050565b7f526f6c65733a206163636f756e7420616c72656164792068617320726f6c6500600082015250565b600061457e601f8361375d565b915061458982614548565b602082019050919050565b600060208201905081810360008301526145ad81614571565b9050919050565b7f45524337323155524953746f726167653a2055524920736574206f66206e6f6e60008201527f6578697374656e7420746f6b656e000000000000000000000000000000000000602082015250565b6000614610602e8361375d565b915061461b826145b4565b604082019050919050565b6000602082019050818103600083015261463f81614603565b9050919050565b7f4552433732313a207472616e736665722066726f6d20696e636f72726563742060008201527f6f776e6572000000000000000000000000000000000000000000000000000000602082015250565b60006146a260258361375d565b91506146ad82614646565b604082019050919050565b600060208201905081810360008301526146d181614695565b9050919050565b7f4552433732313a207472616e7366657220746f20746865207a65726f2061646460008201527f7265737300000000000000000000000000000000000000000000000000000000602082015250565b600061473460248361375d565b915061473f826146d8565b604082019050919050565b6000602082019050818103600083015261476381614727565b9050919050565b7f4e487b7100000000000000000000000000000000000000000000000000000000600052601160045260246000fd5b60006147a48261380d565b91506147af8361380d565b9250828210156147c2576147c161476a565b5b828203905092915050565b60006147d88261380d565b91506147e38361380d565b9250827fffffffffffffffffffffffffffffffffffffffffffffffffffffffffffffffff038211156148185761481761476a565b5b828201905092915050565b7f4552433732313a206d696e7420746f20746865207a65726f2061646472657373600082015250565b600061485960208361375d565b915061486482614823565b602082019050919050565b600060208201905081810360008301526148888161484c565b9050919050565b7f4552433732313a20746f6b656e20616c7265616479206d696e74656400000000600082015250565b60006148c5601c8361375d565b91506148d08261488f565b602082019050919050565b600060208201905081810360008301526148f4816148b8565b9050919050565b7f4f776e61626c653a2063616c6c6572206973206e6f7420746865206f776e6572600082015250565b600061493160208361375d565b915061493c826148fb565b602082019050919050565b6000602082019050818103600083015261496081614924565b9050919050565b7f4552433732313a20617070726f766520746f2063616c6c657200000000000000600082015250565b600061499d60198361375d565b91506149a882614967565b602082019050919050565b600060208201905081810360008301526149cc81614990565b9050919050565b7f526f6c65733a206163636f756e7420697320746865207a65726f20616464726560008201527f7373000000000000000000000000000000000000000000000000000000000000602082015250565b6000614a2f60228361375d565b9150614a3a826149d3565b604082019050919050565b60006020820190508181036000830152614a5e81614a22565b9050919050565b7f4552433732313a207472616e7366657220746f206e6f6e20455243373231526560008201527f63656976657220696d706c656d656e7465720000000000000000000000000000602082015250565b6000614ac160328361375d565b9150614acc82614a65565b604082019050919050565b60006020820190508181036000830152614af081614ab4565b9050919050565b6000614b038285614500565b9150614b0f8284614500565b91508190509392505050565b7f416363657373436f6e74726f6c3a206163636f756e7420000000000000000000600082015250565b6000614b5160178361411f565b9150614b5c82614b1b565b601782019050919050565b7f206973206d697373696e6720726f6c6520000000000000000000000000000000600082015250565b6000614b9d60118361411f565b9150614ba882614b67565b601182019050919050565b6000614bbe82614b44565b9150614bca8285614500565b9150614bd582614b90565b9150614be18284614500565b91508190509392505050565b7f526f6c65733a206163636f756e7420646f6573206e6f74206861766520726f6c60008201527f6500000000000000000000000000000000000000000000000000000000000000602082015250565b6000614c4960218361375d565b9150614c5482614bed565b604082019050919050565b60006020820190508181036000830152614c7881614c3c565b9050919050565b600081519050919050565b600082825260208201905092915050565b6000614ca682614c7f565b614cb08185614c8a565b9350614cc081856020860161376e565b614cc9816137a1565b840191505092915050565b6000608082019050614ce960008301876138a2565b614cf660208301866138a2565b614d036040830185613ac9565b8181036060830152614d158184614c9b565b905095945050505050565b600081519050614d2f816136c3565b92915050565b600060208284031215614d4b57614d4a61368d565b5b6000614d5984828501614d20565b91505092915050565b7f4552433732315061757361626c653a20746f6b656e207472616e73666572207760008201527f68696c6520706175736564000000000000000000000000000000000000000000602082015250565b6000614dbe602b8361375d565b9150614dc982614d62565b604082019050919050565b60006020820190508181036000830152614ded81614db1565b9050919050565b6000614dff8261380d565b9150614e0a8361380d565b9250817fffffffffffffffffffffffffffffffffffffffffffffffffffffffffffffffff0483118215151615614e4357614e4261476a565b5b828202905092915050565b6000614e598261380d565b91506000821415614e6d57614e6c61476a565b5b600182039050919050565b7f537472696e67733a20686578206c656e67746820696e73756666696369656e74600082015250565b6000614eae60208361375d565b9150614eb982614e78565b602082019050919050565b60006020820190508181036000830152614edd81614ea1565b9050919050565b7f4e487b7100000000000000000000000000000000000000000000000000000000600052603160045260246000fd5b6000614f1e8261380d565b91507fffffffffffffffffffffffffffffffffffffffffffffffffffffffffffffffff821415614f5157614f5061476a565b5b600182019050919050565b7f4e487b7100000000000000000000000000000000000000000000000000000000600052601260045260246000fd5b6000614f968261380d565b9150614fa18361380d565b925082614fb157614fb0614f5c565b5b828204905092915050565b6000614fc78261380d565b9150614fd28361380d565b925082614fe257614fe1614f5c565b5b82820690509291505056fea2646970667358221220d2a01c5878f29e54a11e758424af713288a263794fef9a25f8d2082b507894dd64736f6c63430008090033",
  "linkReferences": {},
  "deployedLinkReferences": {}
}